{
	"data": {
		"bytecode": {
			"linkReferences": {},
			"object": "608060405234801561000f575f80fd5b50604051610a76380380610a76833981810160405281019061003191906100d5565b8060015f6101000a81548173ffffffffffffffffffffffffffffffffffffffff021916908373ffffffffffffffffffffffffffffffffffffffff16021790555050610100565b5f80fd5b5f73ffffffffffffffffffffffffffffffffffffffff82169050919050565b5f6100a48261007b565b9050919050565b6100b48161009a565b81146100be575f80fd5b50565b5f815190506100cf816100ab565b92915050565b5f602082840312156100ea576100e9610077565b5b5f6100f7848285016100c1565b91505092915050565b6109698061010d5f395ff3fe608060405234801561000f575f80fd5b5060043610610055575f3560e01c8063371303c0146100595780633f7a0270146100635780635e9f96a61461007f5780638381f58a1461009b578063c671f9be146100b9575b5f80fd5b6100616100c3565b005b61007d6004803603810190610078919061075b565b610214565b005b6100996004803603810190610094919061075b565b61037a565b005b6100a36104df565b6040516100b09190610795565b60405180910390f35b6100c16104e4565b005b5f8060015f9054906101000a900473ffffffffffffffffffffffffffffffffffffffff1673ffffffffffffffffffffffffffffffffffffffff166040516024016040516020818303038152906040527f371303c0000000000000000000000000000000000000000000000000000000007bffffffffffffffffffffffffffffffffffffffffffffffffffffffff19166020820180517bffffffffffffffffffffffffffffffffffffffffffffffffffffffff838183161783525050505060405161018d9190610800565b5f604051808303815f865af19150503d805f81146101c6576040519150601f19603f3d011682016040523d82523d5f602084013e6101cb565b606091505b509150915081610210576040517f08c379a000000000000000000000000000000000000000000000000000000000815260040161020790610870565b60405180910390fd5b5050565b5f8060015f9054906101000a900473ffffffffffffffffffffffffffffffffffffffff1673ffffffffffffffffffffffffffffffffffffffff168360405160240161025f9190610795565b6040516020818303038152906040527f3f7a0270000000000000000000000000000000000000000000000000000000007bffffffffffffffffffffffffffffffffffffffffffffffffffffffff19166020820180517bffffffffffffffffffffffffffffffffffffffffffffffffffffffff83818316178352505050506040516102e99190610800565b5f604051808303815f865af19150503d805f8114610322576040519150601f19603f3d011682016040523d82523d5f602084013e610327565b606091505b50915091508161036c576040517f08c379a000000000000000000000000000000000000000000000000000000000815260040161036390610870565b60405180910390fd5b6103758161063d565b505050565b5f8060015f9054906101000a900473ffffffffffffffffffffffffffffffffffffffff1673ffffffffffffffffffffffffffffffffffffffff16836040516024016103c59190610795565b6040516020818303038152906040527f3f7a0270000000000000000000000000000000000000000000000000000000007bffffffffffffffffffffffffffffffffffffffffffffffffffffffff19166020820180517bffffffffffffffffffffffffffffffffffffffffffffffffffffffff838183161783525050505060405161044f9190610800565b5f60405180830381855af49150503d805f8114610487576040519150601f19603f3d011682016040523d82523d5f602084013e61048c565b606091505b5091509150816104d1576040517f08c379a00000000000000000000000000000000000000000000000000000000081526004016104c890610870565b60405180910390fd5b6104da8161063d565b505050565b5f5481565b5f8060015f9054906101000a900473ffffffffffffffffffffffffffffffffffffffff1673ffffffffffffffffffffffffffffffffffffffff166040516024016040516020818303038152906040527f8381f58a000000000000000000000000000000000000000000000000000000007bffffffffffffffffffffffffffffffffffffffffffffffffffffffff19166020820180517bffffffffffffffffffffffffffffffffffffffffffffffffffffffff83818316178352505050506040516105ae9190610800565b5f60405180830381855afa9150503d805f81146105e6576040519150601f19603f3d011682016040523d82523d5f602084013e6105eb565b606091505b509150915081610630576040517f08c379a000000000000000000000000000000000000000000000000000000000815260040161062790610870565b60405180910390fd5b6106398161063d565b5050565b6106d38160405160240161065191906108e6565b6040516020818303038152906040527f0be77f56000000000000000000000000000000000000000000000000000000007bffffffffffffffffffffffffffffffffffffffffffffffffffffffff19166020820180517bffffffffffffffffffffffffffffffffffffffffffffffffffffffff83818316178352505050506106d6565b50565b6106ed816106e56106f061070f565b63ffffffff16565b50565b5f6a636f6e736f6c652e6c6f6790505f80835160208501845afa505050565b61071a819050919050565b610722610906565b565b5f80fd5b5f819050919050565b61073a81610728565b8114610744575f80fd5b50565b5f8135905061075581610731565b92915050565b5f602082840312156107705761076f610724565b5b5f61077d84828501610747565b91505092915050565b61078f81610728565b82525050565b5f6020820190506107a85f830184610786565b92915050565b5f81519050919050565b5f81905092915050565b8281835e5f83830152505050565b5f6107da826107ae565b6107e481856107b8565b93506107f48185602086016107c2565b80840191505092915050565b5f61080b82846107d0565b915081905092915050565b5f82825260208201905092915050565b7f65786563757465206661696c00000000000000000000000000000000000000005f82015250565b5f61085a600c83610816565b915061086582610826565b602082019050919050565b5f6020820190508181035f8301526108878161084e565b9050919050565b5f82825260208201905092915050565b5f601f19601f8301169050919050565b5f6108b8826107ae565b6108c2818561088e565b93506108d28185602086016107c2565b6108db8161089e565b840191505092915050565b5f6020820190508181035f8301526108fe81846108ae565b905092915050565b7f4e487b71000000000000000000000000000000000000000000000000000000005f52605160045260245ffdfea2646970667358221220a9df321c1bfe86e227e29d75e373b9a3210a22df6611925bb50c06d194e3c08864736f6c634300081a0033",
			"opcodes": "PUSH1 0x80 PUSH1 0x40 MSTORE CALLVALUE DUP1 ISZERO PUSH2 0xF JUMPI PUSH0 DUP1 REVERT JUMPDEST POP PUSH1 0x40 MLOAD PUSH2 0xA76 CODESIZE SUB DUP1 PUSH2 0xA76 DUP4 CODECOPY DUP2 DUP2 ADD PUSH1 0x40 MSTORE DUP2 ADD SWAP1 PUSH2 0x31 SWAP2 SWAP1 PUSH2 0xD5 JUMP JUMPDEST DUP1 PUSH1 0x1 PUSH0 PUSH2 0x100 EXP DUP2 SLOAD DUP2 PUSH20 0xFFFFFFFFFFFFFFFFFFFFFFFFFFFFFFFFFFFFFFFF MUL NOT AND SWAP1 DUP4 PUSH20 0xFFFFFFFFFFFFFFFFFFFFFFFFFFFFFFFFFFFFFFFF AND MUL OR SWAP1 SSTORE POP POP PUSH2 0x100 JUMP JUMPDEST PUSH0 DUP1 REVERT JUMPDEST PUSH0 PUSH20 0xFFFFFFFFFFFFFFFFFFFFFFFFFFFFFFFFFFFFFFFF DUP3 AND SWAP1 POP SWAP2 SWAP1 POP JUMP JUMPDEST PUSH0 PUSH2 0xA4 DUP3 PUSH2 0x7B JUMP JUMPDEST SWAP1 POP SWAP2 SWAP1 POP JUMP JUMPDEST PUSH2 0xB4 DUP2 PUSH2 0x9A JUMP JUMPDEST DUP2 EQ PUSH2 0xBE JUMPI PUSH0 DUP1 REVERT JUMPDEST POP JUMP JUMPDEST PUSH0 DUP2 MLOAD SWAP1 POP PUSH2 0xCF DUP2 PUSH2 0xAB JUMP JUMPDEST SWAP3 SWAP2 POP POP JUMP JUMPDEST PUSH0 PUSH1 0x20 DUP3 DUP5 SUB SLT ISZERO PUSH2 0xEA JUMPI PUSH2 0xE9 PUSH2 0x77 JUMP JUMPDEST JUMPDEST PUSH0 PUSH2 0xF7 DUP5 DUP3 DUP6 ADD PUSH2 0xC1 JUMP JUMPDEST SWAP2 POP POP SWAP3 SWAP2 POP POP JUMP JUMPDEST PUSH2 0x969 DUP1 PUSH2 0x10D PUSH0 CODECOPY PUSH0 RETURN INVALID PUSH1 0x80 PUSH1 0x40 MSTORE CALLVALUE DUP1 ISZERO PUSH2 0xF JUMPI PUSH0 DUP1 REVERT JUMPDEST POP PUSH1 0x4 CALLDATASIZE LT PUSH2 0x55 JUMPI PUSH0 CALLDATALOAD PUSH1 0xE0 SHR DUP1 PUSH4 0x371303C0 EQ PUSH2 0x59 JUMPI DUP1 PUSH4 0x3F7A0270 EQ PUSH2 0x63 JUMPI DUP1 PUSH4 0x5E9F96A6 EQ PUSH2 0x7F JUMPI DUP1 PUSH4 0x8381F58A EQ PUSH2 0x9B JUMPI DUP1 PUSH4 0xC671F9BE EQ PUSH2 0xB9 JUMPI JUMPDEST PUSH0 DUP1 REVERT JUMPDEST PUSH2 0x61 PUSH2 0xC3 JUMP JUMPDEST STOP JUMPDEST PUSH2 0x7D PUSH1 0x4 DUP1 CALLDATASIZE SUB DUP2 ADD SWAP1 PUSH2 0x78 SWAP2 SWAP1 PUSH2 0x75B JUMP JUMPDEST PUSH2 0x214 JUMP JUMPDEST STOP JUMPDEST PUSH2 0x99 PUSH1 0x4 DUP1 CALLDATASIZE SUB DUP2 ADD SWAP1 PUSH2 0x94 SWAP2 SWAP1 PUSH2 0x75B JUMP JUMPDEST PUSH2 0x37A JUMP JUMPDEST STOP JUMPDEST PUSH2 0xA3 PUSH2 0x4DF JUMP JUMPDEST PUSH1 0x40 MLOAD PUSH2 0xB0 SWAP2 SWAP1 PUSH2 0x795 JUMP JUMPDEST PUSH1 0x40 MLOAD DUP1 SWAP2 SUB SWAP1 RETURN JUMPDEST PUSH2 0xC1 PUSH2 0x4E4 JUMP JUMPDEST STOP JUMPDEST PUSH0 DUP1 PUSH1 0x1 PUSH0 SWAP1 SLOAD SWAP1 PUSH2 0x100 EXP SWAP1 DIV PUSH20 0xFFFFFFFFFFFFFFFFFFFFFFFFFFFFFFFFFFFFFFFF AND PUSH20 0xFFFFFFFFFFFFFFFFFFFFFFFFFFFFFFFFFFFFFFFF AND PUSH1 0x40 MLOAD PUSH1 0x24 ADD PUSH1 0x40 MLOAD PUSH1 0x20 DUP2 DUP4 SUB SUB DUP2 MSTORE SWAP1 PUSH1 0x40 MSTORE PUSH32 0x371303C000000000000000000000000000000000000000000000000000000000 PUSH28 0xFFFFFFFFFFFFFFFFFFFFFFFFFFFFFFFFFFFFFFFFFFFFFFFFFFFFFFFF NOT AND PUSH1 0x20 DUP3 ADD DUP1 MLOAD PUSH28 0xFFFFFFFFFFFFFFFFFFFFFFFFFFFFFFFFFFFFFFFFFFFFFFFFFFFFFFFF DUP4 DUP2 DUP4 AND OR DUP4 MSTORE POP POP POP POP PUSH1 0x40 MLOAD PUSH2 0x18D SWAP2 SWAP1 PUSH2 0x800 JUMP JUMPDEST PUSH0 PUSH1 0x40 MLOAD DUP1 DUP4 SUB DUP2 PUSH0 DUP7 GAS CALL SWAP2 POP POP RETURNDATASIZE DUP1 PUSH0 DUP2 EQ PUSH2 0x1C6 JUMPI PUSH1 0x40 MLOAD SWAP2 POP PUSH1 0x1F NOT PUSH1 0x3F RETURNDATASIZE ADD AND DUP3 ADD PUSH1 0x40 MSTORE RETURNDATASIZE DUP3 MSTORE RETURNDATASIZE PUSH0 PUSH1 0x20 DUP5 ADD RETURNDATACOPY PUSH2 0x1CB JUMP JUMPDEST PUSH1 0x60 SWAP2 POP JUMPDEST POP SWAP2 POP SWAP2 POP DUP2 PUSH2 0x210 JUMPI PUSH1 0x40 MLOAD PUSH32 0x8C379A000000000000000000000000000000000000000000000000000000000 DUP2 MSTORE PUSH1 0x4 ADD PUSH2 0x207 SWAP1 PUSH2 0x870 JUMP JUMPDEST PUSH1 0x40 MLOAD DUP1 SWAP2 SUB SWAP1 REVERT JUMPDEST POP POP JUMP JUMPDEST PUSH0 DUP1 PUSH1 0x1 PUSH0 SWAP1 SLOAD SWAP1 PUSH2 0x100 EXP SWAP1 DIV PUSH20 0xFFFFFFFFFFFFFFFFFFFFFFFFFFFFFFFFFFFFFFFF AND PUSH20 0xFFFFFFFFFFFFFFFFFFFFFFFFFFFFFFFFFFFFFFFF AND DUP4 PUSH1 0x40 MLOAD PUSH1 0x24 ADD PUSH2 0x25F SWAP2 SWAP1 PUSH2 0x795 JUMP JUMPDEST PUSH1 0x40 MLOAD PUSH1 0x20 DUP2 DUP4 SUB SUB DUP2 MSTORE SWAP1 PUSH1 0x40 MSTORE PUSH32 0x3F7A027000000000000000000000000000000000000000000000000000000000 PUSH28 0xFFFFFFFFFFFFFFFFFFFFFFFFFFFFFFFFFFFFFFFFFFFFFFFFFFFFFFFF NOT AND PUSH1 0x20 DUP3 ADD DUP1 MLOAD PUSH28 0xFFFFFFFFFFFFFFFFFFFFFFFFFFFFFFFFFFFFFFFFFFFFFFFFFFFFFFFF DUP4 DUP2 DUP4 AND OR DUP4 MSTORE POP POP POP POP PUSH1 0x40 MLOAD PUSH2 0x2E9 SWAP2 SWAP1 PUSH2 0x800 JUMP JUMPDEST PUSH0 PUSH1 0x40 MLOAD DUP1 DUP4 SUB DUP2 PUSH0 DUP7 GAS CALL SWAP2 POP POP RETURNDATASIZE DUP1 PUSH0 DUP2 EQ PUSH2 0x322 JUMPI PUSH1 0x40 MLOAD SWAP2 POP PUSH1 0x1F NOT PUSH1 0x3F RETURNDATASIZE ADD AND DUP3 ADD PUSH1 0x40 MSTORE RETURNDATASIZE DUP3 MSTORE RETURNDATASIZE PUSH0 PUSH1 0x20 DUP5 ADD RETURNDATACOPY PUSH2 0x327 JUMP JUMPDEST PUSH1 0x60 SWAP2 POP JUMPDEST POP SWAP2 POP SWAP2 POP DUP2 PUSH2 0x36C JUMPI PUSH1 0x40 MLOAD PUSH32 0x8C379A000000000000000000000000000000000000000000000000000000000 DUP2 MSTORE PUSH1 0x4 ADD PUSH2 0x363 SWAP1 PUSH2 0x870 JUMP JUMPDEST PUSH1 0x40 MLOAD DUP1 SWAP2 SUB SWAP1 REVERT JUMPDEST PUSH2 0x375 DUP2 PUSH2 0x63D JUMP JUMPDEST POP POP POP JUMP JUMPDEST PUSH0 DUP1 PUSH1 0x1 PUSH0 SWAP1 SLOAD SWAP1 PUSH2 0x100 EXP SWAP1 DIV PUSH20 0xFFFFFFFFFFFFFFFFFFFFFFFFFFFFFFFFFFFFFFFF AND PUSH20 0xFFFFFFFFFFFFFFFFFFFFFFFFFFFFFFFFFFFFFFFF AND DUP4 PUSH1 0x40 MLOAD PUSH1 0x24 ADD PUSH2 0x3C5 SWAP2 SWAP1 PUSH2 0x795 JUMP JUMPDEST PUSH1 0x40 MLOAD PUSH1 0x20 DUP2 DUP4 SUB SUB DUP2 MSTORE SWAP1 PUSH1 0x40 MSTORE PUSH32 0x3F7A027000000000000000000000000000000000000000000000000000000000 PUSH28 0xFFFFFFFFFFFFFFFFFFFFFFFFFFFFFFFFFFFFFFFFFFFFFFFFFFFFFFFF NOT AND PUSH1 0x20 DUP3 ADD DUP1 MLOAD PUSH28 0xFFFFFFFFFFFFFFFFFFFFFFFFFFFFFFFFFFFFFFFFFFFFFFFFFFFFFFFF DUP4 DUP2 DUP4 AND OR DUP4 MSTORE POP POP POP POP PUSH1 0x40 MLOAD PUSH2 0x44F SWAP2 SWAP1 PUSH2 0x800 JUMP JUMPDEST PUSH0 PUSH1 0x40 MLOAD DUP1 DUP4 SUB DUP2 DUP6 GAS DELEGATECALL SWAP2 POP POP RETURNDATASIZE DUP1 PUSH0 DUP2 EQ PUSH2 0x487 JUMPI PUSH1 0x40 MLOAD SWAP2 POP PUSH1 0x1F NOT PUSH1 0x3F RETURNDATASIZE ADD AND DUP3 ADD PUSH1 0x40 MSTORE RETURNDATASIZE DUP3 MSTORE RETURNDATASIZE PUSH0 PUSH1 0x20 DUP5 ADD RETURNDATACOPY PUSH2 0x48C JUMP JUMPDEST PUSH1 0x60 SWAP2 POP JUMPDEST POP SWAP2 POP SWAP2 POP DUP2 PUSH2 0x4D1 JUMPI PUSH1 0x40 MLOAD PUSH32 0x8C379A000000000000000000000000000000000000000000000000000000000 DUP2 MSTORE PUSH1 0x4 ADD PUSH2 0x4C8 SWAP1 PUSH2 0x870 JUMP JUMPDEST PUSH1 0x40 MLOAD DUP1 SWAP2 SUB SWAP1 REVERT JUMPDEST PUSH2 0x4DA DUP2 PUSH2 0x63D JUMP JUMPDEST POP POP POP JUMP JUMPDEST PUSH0 SLOAD DUP2 JUMP JUMPDEST PUSH0 DUP1 PUSH1 0x1 PUSH0 SWAP1 SLOAD SWAP1 PUSH2 0x100 EXP SWAP1 DIV PUSH20 0xFFFFFFFFFFFFFFFFFFFFFFFFFFFFFFFFFFFFFFFF AND PUSH20 0xFFFFFFFFFFFFFFFFFFFFFFFFFFFFFFFFFFFFFFFF AND PUSH1 0x40 MLOAD PUSH1 0x24 ADD PUSH1 0x40 MLOAD PUSH1 0x20 DUP2 DUP4 SUB SUB DUP2 MSTORE SWAP1 PUSH1 0x40 MSTORE PUSH32 0x8381F58A00000000000000000000000000000000000000000000000000000000 PUSH28 0xFFFFFFFFFFFFFFFFFFFFFFFFFFFFFFFFFFFFFFFFFFFFFFFFFFFFFFFF NOT AND PUSH1 0x20 DUP3 ADD DUP1 MLOAD PUSH28 0xFFFFFFFFFFFFFFFFFFFFFFFFFFFFFFFFFFFFFFFFFFFFFFFFFFFFFFFF DUP4 DUP2 DUP4 AND OR DUP4 MSTORE POP POP POP POP PUSH1 0x40 MLOAD PUSH2 0x5AE SWAP2 SWAP1 PUSH2 0x800 JUMP JUMPDEST PUSH0 PUSH1 0x40 MLOAD DUP1 DUP4 SUB DUP2 DUP6 GAS STATICCALL SWAP2 POP POP RETURNDATASIZE DUP1 PUSH0 DUP2 EQ PUSH2 0x5E6 JUMPI PUSH1 0x40 MLOAD SWAP2 POP PUSH1 0x1F NOT PUSH1 0x3F RETURNDATASIZE ADD AND DUP3 ADD PUSH1 0x40 MSTORE RETURNDATASIZE DUP3 MSTORE RETURNDATASIZE PUSH0 PUSH1 0x20 DUP5 ADD RETURNDATACOPY PUSH2 0x5EB JUMP JUMPDEST PUSH1 0x60 SWAP2 POP JUMPDEST POP SWAP2 POP SWAP2 POP DUP2 PUSH2 0x630 JUMPI PUSH1 0x40 MLOAD PUSH32 0x8C379A000000000000000000000000000000000000000000000000000000000 DUP2 MSTORE PUSH1 0x4 ADD PUSH2 0x627 SWAP1 PUSH2 0x870 JUMP JUMPDEST PUSH1 0x40 MLOAD DUP1 SWAP2 SUB SWAP1 REVERT JUMPDEST PUSH2 0x639 DUP2 PUSH2 0x63D JUMP JUMPDEST POP POP JUMP JUMPDEST PUSH2 0x6D3 DUP2 PUSH1 0x40 MLOAD PUSH1 0x24 ADD PUSH2 0x651 SWAP2 SWAP1 PUSH2 0x8E6 JUMP JUMPDEST PUSH1 0x40 MLOAD PUSH1 0x20 DUP2 DUP4 SUB SUB DUP2 MSTORE SWAP1 PUSH1 0x40 MSTORE PUSH32 0xBE77F5600000000000000000000000000000000000000000000000000000000 PUSH28 0xFFFFFFFFFFFFFFFFFFFFFFFFFFFFFFFFFFFFFFFFFFFFFFFFFFFFFFFF NOT AND PUSH1 0x20 DUP3 ADD DUP1 MLOAD PUSH28 0xFFFFFFFFFFFFFFFFFFFFFFFFFFFFFFFFFFFFFFFFFFFFFFFFFFFFFFFF DUP4 DUP2 DUP4 AND OR DUP4 MSTORE POP POP POP POP PUSH2 0x6D6 JUMP JUMPDEST POP JUMP JUMPDEST PUSH2 0x6ED DUP2 PUSH2 0x6E5 PUSH2 0x6F0 PUSH2 0x70F JUMP JUMPDEST PUSH4 0xFFFFFFFF AND JUMP JUMPDEST POP JUMP JUMPDEST PUSH0 PUSH11 0x636F6E736F6C652E6C6F67 SWAP1 POP PUSH0 DUP1 DUP4 MLOAD PUSH1 0x20 DUP6 ADD DUP5 GAS STATICCALL POP POP POP JUMP JUMPDEST PUSH2 0x71A DUP2 SWAP1 POP SWAP2 SWAP1 POP JUMP JUMPDEST PUSH2 0x722 PUSH2 0x906 JUMP JUMPDEST JUMP JUMPDEST PUSH0 DUP1 REVERT JUMPDEST PUSH0 DUP2 SWAP1 POP SWAP2 SWAP1 POP JUMP JUMPDEST PUSH2 0x73A DUP2 PUSH2 0x728 JUMP JUMPDEST DUP2 EQ PUSH2 0x744 JUMPI PUSH0 DUP1 REVERT JUMPDEST POP JUMP JUMPDEST PUSH0 DUP2 CALLDATALOAD SWAP1 POP PUSH2 0x755 DUP2 PUSH2 0x731 JUMP JUMPDEST SWAP3 SWAP2 POP POP JUMP JUMPDEST PUSH0 PUSH1 0x20 DUP3 DUP5 SUB SLT ISZERO PUSH2 0x770 JUMPI PUSH2 0x76F PUSH2 0x724 JUMP JUMPDEST JUMPDEST PUSH0 PUSH2 0x77D DUP5 DUP3 DUP6 ADD PUSH2 0x747 JUMP JUMPDEST SWAP2 POP POP SWAP3 SWAP2 POP POP JUMP JUMPDEST PUSH2 0x78F DUP2 PUSH2 0x728 JUMP JUMPDEST DUP3 MSTORE POP POP JUMP JUMPDEST PUSH0 PUSH1 0x20 DUP3 ADD SWAP1 POP PUSH2 0x7A8 PUSH0 DUP4 ADD DUP5 PUSH2 0x786 JUMP JUMPDEST SWAP3 SWAP2 POP POP JUMP JUMPDEST PUSH0 DUP2 MLOAD SWAP1 POP SWAP2 SWAP1 POP JUMP JUMPDEST PUSH0 DUP2 SWAP1 POP SWAP3 SWAP2 POP POP JUMP JUMPDEST DUP3 DUP2 DUP4 MCOPY PUSH0 DUP4 DUP4 ADD MSTORE POP POP POP JUMP JUMPDEST PUSH0 PUSH2 0x7DA DUP3 PUSH2 0x7AE JUMP JUMPDEST PUSH2 0x7E4 DUP2 DUP6 PUSH2 0x7B8 JUMP JUMPDEST SWAP4 POP PUSH2 0x7F4 DUP2 DUP6 PUSH1 0x20 DUP7 ADD PUSH2 0x7C2 JUMP JUMPDEST DUP1 DUP5 ADD SWAP2 POP POP SWAP3 SWAP2 POP POP JUMP JUMPDEST PUSH0 PUSH2 0x80B DUP3 DUP5 PUSH2 0x7D0 JUMP JUMPDEST SWAP2 POP DUP2 SWAP1 POP SWAP3 SWAP2 POP POP JUMP JUMPDEST PUSH0 DUP3 DUP3 MSTORE PUSH1 0x20 DUP3 ADD SWAP1 POP SWAP3 SWAP2 POP POP JUMP JUMPDEST PUSH32 0x65786563757465206661696C0000000000000000000000000000000000000000 PUSH0 DUP3 ADD MSTORE POP JUMP JUMPDEST PUSH0 PUSH2 0x85A PUSH1 0xC DUP4 PUSH2 0x816 JUMP JUMPDEST SWAP2 POP PUSH2 0x865 DUP3 PUSH2 0x826 JUMP JUMPDEST PUSH1 0x20 DUP3 ADD SWAP1 POP SWAP2 SWAP1 POP JUMP JUMPDEST PUSH0 PUSH1 0x20 DUP3 ADD SWAP1 POP DUP2 DUP2 SUB PUSH0 DUP4 ADD MSTORE PUSH2 0x887 DUP2 PUSH2 0x84E JUMP JUMPDEST SWAP1 POP SWAP2 SWAP1 POP JUMP JUMPDEST PUSH0 DUP3 DUP3 MSTORE PUSH1 0x20 DUP3 ADD SWAP1 POP SWAP3 SWAP2 POP POP JUMP JUMPDEST PUSH0 PUSH1 0x1F NOT PUSH1 0x1F DUP4 ADD AND SWAP1 POP SWAP2 SWAP1 POP JUMP JUMPDEST PUSH0 PUSH2 0x8B8 DUP3 PUSH2 0x7AE JUMP JUMPDEST PUSH2 0x8C2 DUP2 DUP6 PUSH2 0x88E JUMP JUMPDEST SWAP4 POP PUSH2 0x8D2 DUP2 DUP6 PUSH1 0x20 DUP7 ADD PUSH2 0x7C2 JUMP JUMPDEST PUSH2 0x8DB DUP2 PUSH2 0x89E JUMP JUMPDEST DUP5 ADD SWAP2 POP POP SWAP3 SWAP2 POP POP JUMP JUMPDEST PUSH0 PUSH1 0x20 DUP3 ADD SWAP1 POP DUP2 DUP2 SUB PUSH0 DUP4 ADD MSTORE PUSH2 0x8FE DUP2 DUP5 PUSH2 0x8AE JUMP JUMPDEST SWAP1 POP SWAP3 SWAP2 POP POP JUMP JUMPDEST PUSH32 0x4E487B7100000000000000000000000000000000000000000000000000000000 PUSH0 MSTORE PUSH1 0x51 PUSH1 0x4 MSTORE PUSH1 0x24 PUSH0 REVERT INVALID LOG2 PUSH5 0x6970667358 0x22 SLT KECCAK256 0xA9 0xDF ORIGIN SHR SHL INVALID DUP7 0xE2 0x27 0xE2 SWAP14 PUSH22 0xE373B9A3210A22DF6611925BB50C06D194E3C0886473 PUSH16 0x6C634300081A00330000000000000000 "
		},
		"gasEstimates": {
			"creation": {
				"codeDepositCost": "481800",
				"executionCost": "infinite",
				"totalCost": "infinite"
			},
			"external": {
				"delegateSetN(uint256)": "infinite",
				"inc()": "infinite",
				"number()": "2468",
				"setN(uint256)": "infinite",
				"staticSetN()": "infinite"
			}
		},
		"methodIdentifiers": {
			"delegateSetN(uint256)": "5e9f96a6",
			"inc()": "371303c0",
			"number()": "8381f58a",
			"setN(uint256)": "3f7a0270",
			"staticSetN()": "c671f9be"
		}
	},
	"abi": [
		{
			"inputs": [
				{
					"internalType": "address",
					"name": "_to",
					"type": "address"
				}
			],
			"stateMutability": "nonpayable",
			"type": "constructor"
		},
		{
			"inputs": [
				{
					"internalType": "uint256",
					"name": "_number",
					"type": "uint256"
				}
			],
			"name": "delegateSetN",
			"outputs": [],
			"stateMutability": "nonpayable",
			"type": "function"
		},
		{
			"inputs": [],
			"name": "inc",
			"outputs": [],
			"stateMutability": "nonpayable",
			"type": "function"
		},
		{
			"inputs": [],
			"name": "number",
			"outputs": [
				{
					"internalType": "uint256",
					"name": "",
					"type": "uint256"
				}
			],
			"stateMutability": "view",
			"type": "function"
		},
		{
			"inputs": [
				{
					"internalType": "uint256",
					"name": "_number",
					"type": "uint256"
				}
			],
			"name": "setN",
			"outputs": [],
			"stateMutability": "nonpayable",
			"type": "function"
		},
		{
			"inputs": [],
			"name": "staticSetN",
			"outputs": [],
			"stateMutability": "view",
			"type": "function"
		}
	]
}