{
	"data": {
		"bytecode": {
			"linkReferences": {},
			"object": "6080604052348015600e575f80fd5b50606a80601a5f395ff3fe6080604052348015600e575f80fd5b50600436106026575f3560e01c806328b5e32b14602a575b5f80fd5b60306032565b005b56fea26469706673582212206717f7bb92cbe81aaea7519e8c1564e2af6823ed315faee529b6bbd29fe8ae2964736f6c634300081a0033",
			"opcodes": "PUSH1 0x80 PUSH1 0x40 MSTORE CALLVALUE DUP1 ISZERO PUSH1 0xE JUMPI PUSH0 DUP1 REVERT JUMPDEST POP PUSH1 0x6A DUP1 PUSH1 0x1A PUSH0 CODECOPY PUSH0 RETURN INVALID PUSH1 0x80 PUSH1 0x40 MSTORE CALLVALUE DUP1 ISZERO PUSH1 0xE JUMPI PUSH0 DUP1 REVERT JUMPDEST POP PUSH1 0x4 CALLDATASIZE LT PUSH1 0x26 JUMPI PUSH0 CALLDATALOAD PUSH1 0xE0 SHR DUP1 PUSH4 0x28B5E32B EQ PUSH1 0x2A JUMPI JUMPDEST PUSH0 DUP1 REVERT JUMPDEST PUSH1 0x30 PUSH1 0x32 JUMP JUMPDEST STOP JUMPDEST JUMP INVALID LOG2 PUSH5 0x6970667358 0x22 SLT KECCAK256 PUSH8 0x17F7BB92CBE81AAE 0xA7 MLOAD SWAP15 DUP13 ISZERO PUSH5 0xE2AF6823ED BALANCE PUSH0 0xAE 0xE5 0x29 0xB6 0xBB 0xD2 SWAP16 0xE8 0xAE 0x29 PUSH5 0x736F6C6343 STOP ADDMOD BYTE STOP CALLER "
		},
		"gasEstimates": {
			"creation": {
				"codeDepositCost": "21200",
				"executionCost": "73",
				"totalCost": "21273"
			},
			"external": {
				"call()": "121"
			}
		},
		"methodIdentifiers": {
			"call()": "28b5e32b"
		}
	},
	"abi": [
		{
			"inputs": [],
			"name": "call",
			"outputs": [],
			"stateMutability": "nonpayable",
			"type": "function"
		}
	]
}