{
	"data": {
		"bytecode": {
			"linkReferences": {},
			"object": "6080604052348015600e575f80fd5b50610e9b8061001c5f395ff3fe608060405234801561000f575f80fd5b5060043610610086575f3560e01c806363a3d4b61161005957806363a3d4b6146100c457806390382f17146100ce578063aed11580146100d8578063bbb8ac5f146100e257610086565b8063019dcdb91461008a57806304d0f4e91461009457806338f14e0f146100b0578063595c380e146100ba575b5f80fd5b6100926100ec565b005b6100ae60048036038101906100a9919061074c565b610151565b005b6100b8610155565b005b6100c26101d4565b005b6100cc610250565b005b6100d66102f0565b005b6100e0610346565b005b6100ea61039c565b005b61014f6001611234604051602401610105929190610811565b6040516020818303038152906040526304d0f4e960e01b6020820180517bffffffffffffffffffffffffffffffffffffffffffffffffffffffff838183161783525050505061049a565b565b5050565b61017f6104d260405160200161016b919061086d565b60405160208183030381529060405261049a565b6101ac61123460f01b60405160200161019891906108a7565b60405160208183030381529060405261049a565b6101d26040516020016101be90610915565b60405160208183030381529060405261049a565b565b6101fe6104d26040516020016101ea9190610938565b60405160208183030381529060405261049a565b6102286112346040516020016102149190610981565b60405160208183030381529060405261049a565b61024e60405160200161023a906109cc565b60405160208183030381529060405261049a565b565b6102ee600161123460f01b60405160240161026c929190610a35565b6040516020818303038152906040527f04d0f4e9000000000000000000000000000000000000000000000000000000007bffffffffffffffffffffffffffffffffffffffffffffffffffffffff19166020820180517bffffffffffffffffffffffffffffffffffffffffffffffffffffffff838183161783525050505061049a565b565b61031a6104d26040516020016103069190610a95565b60405160208183030381529060405261049a565b6103446104d26040516020016103309190610ac1565b60405160208183030381529060405261049a565b565b5f6104d260405160200161035a9190610a95565b60405160208183030381529060405290505f80828060200190518101906103819190610c36565b9150915061038e82610533565b610397816105cc565b505050565b6104226304d0f4e960e01b600161123460f01b6040516024016103c0929190610a35565b604051602081830303815290604052907bffffffffffffffffffffffffffffffffffffffffffffffffffffffff19166020820180517bffffffffffffffffffffffffffffffffffffffffffffffffffffffff838183161783525050505061049a565b5f7f04d0f4e964613477c10be911c5d0b6bcf8baa1a767b85cdbb6783ae5c46239c0905061049781600161123460f01b604051602001610463929190610a35565b604051602081830303815290604052604051602001610483929190610d1f565b60405160208183030381529060405261049a565b50565b610530816040516024016104ae9190610d8e565b6040516020818303038152906040527f0be77f56000000000000000000000000000000000000000000000000000000007bffffffffffffffffffffffffffffffffffffffffffffffffffffffff19166020820180517bffffffffffffffffffffffffffffffffffffffffffffffffffffffff8381831617835250505050610665565b50565b6105c9816040516024016105479190610dbd565b6040516020818303038152906040527ff82c50f1000000000000000000000000000000000000000000000000000000007bffffffffffffffffffffffffffffffffffffffffffffffffffffffff19166020820180517bffffffffffffffffffffffffffffffffffffffffffffffffffffffff8381831617835250505050610665565b50565b610662816040516024016105e09190610e18565b6040516020818303038152906040527f41304fac000000000000000000000000000000000000000000000000000000007bffffffffffffffffffffffffffffffffffffffffffffffffffffffff19166020820180517bffffffffffffffffffffffffffffffffffffffffffffffffffffffff8381831617835250505050610665565b50565b61067c8161067461067f61069e565b63ffffffff16565b50565b5f6a636f6e736f6c652e6c6f6790505f80835160208501845afa505050565b6106a9819050919050565b6106b1610e38565b565b5f604051905090565b5f80fd5b5f80fd5b5f819050919050565b6106d6816106c4565b81146106e0575f80fd5b50565b5f813590506106f1816106cd565b92915050565b5f7fffff00000000000000000000000000000000000000000000000000000000000082169050919050565b61072b816106f7565b8114610735575f80fd5b50565b5f8135905061074681610722565b92915050565b5f8060408385031215610762576107616106bc565b5b5f61076f858286016106e3565b925050602061078085828601610738565b9150509250929050565b5f819050919050565b5f819050919050565b5f6107b66107b16107ac8461078a565b610793565b6106c4565b9050919050565b6107c68161079c565b82525050565b5f819050919050565b5f8160f01b9050919050565b5f6107fb6107f66107f1846107cc565b6107d5565b6106f7565b9050919050565b61080b816107e1565b82525050565b5f6040820190506108245f8301856107bd565b6108316020830184610802565b9392505050565b5f61ffff82169050919050565b5f61084f826107d5565b9050919050565b61086761086282610838565b610845565b82525050565b5f6108788284610856565b60028201915081905092915050565b5f819050919050565b6108a161089c826106f7565b610887565b82525050565b5f6108b28284610890565b60028201915081905092915050565b5f81905092915050565b7f31323334000000000000000000000000000000000000000000000000000000005f82015250565b5f6108ff6004836108c1565b915061090a826108cb565b600482019050919050565b5f61091f826108f3565b9150819050919050565b61093281610838565b82525050565b5f60208201905061094b5f830184610929565b92915050565b5f61096b610966610961846107cc565b610793565b610838565b9050919050565b61097b81610951565b82525050565b5f6020820190506109945f830184610972565b92915050565b5f82825260208201905092915050565b5f6109b660048361099a565b91506109c1826108cb565b602082019050919050565b5f6020820190508181035f8301526109e3816109aa565b9050919050565b5f60ff82169050919050565b5f610a10610a0b610a068461078a565b610793565b6109ea565b9050919050565b610a20816109f6565b82525050565b610a2f816106f7565b82525050565b5f604082019050610a485f830185610a17565b610a556020830184610a26565b9392505050565b5f819050919050565b5f610a7f610a7a610a7584610a5c565b610793565b610838565b9050919050565b610a8f81610a65565b82525050565b5f604082019050610aa85f830184610a86565b8181036020830152610ab9816109aa565b905092915050565b5f610acc8284610856565b600282019150610adb826108f3565b915081905092915050565b5f81519050610af4816106cd565b92915050565b5f80fd5b5f80fd5b5f601f19601f8301169050919050565b7f4e487b71000000000000000000000000000000000000000000000000000000005f52604160045260245ffd5b610b4882610b02565b810181811067ffffffffffffffff82111715610b6757610b66610b12565b5b80604052505050565b5f610b796106b3565b9050610b858282610b3f565b919050565b5f67ffffffffffffffff821115610ba457610ba3610b12565b5b610bad82610b02565b9050602081019050919050565b8281835e5f83830152505050565b5f610bda610bd584610b8a565b610b70565b905082815260208101848484011115610bf657610bf5610afe565b5b610c01848285610bba565b509392505050565b5f82601f830112610c1d57610c1c610afa565b5b8151610c2d848260208601610bc8565b91505092915050565b5f8060408385031215610c4c57610c4b6106bc565b5b5f610c5985828601610ae6565b925050602083015167ffffffffffffffff811115610c7a57610c796106c0565b5b610c8685828601610c09565b9150509250929050565b5f7fffffffff0000000000000000000000000000000000000000000000000000000082169050919050565b5f819050919050565b610cd5610cd082610c90565b610cbb565b82525050565b5f81519050919050565b5f81905092915050565b5f610cf982610cdb565b610d038185610ce5565b9350610d13818560208601610bba565b80840191505092915050565b5f610d2a8285610cc4565b600482019150610d3a8284610cef565b91508190509392505050565b5f82825260208201905092915050565b5f610d6082610cdb565b610d6a8185610d46565b9350610d7a818560208601610bba565b610d8381610b02565b840191505092915050565b5f6020820190508181035f830152610da68184610d56565b905092915050565b610db7816106c4565b82525050565b5f602082019050610dd05f830184610dae565b92915050565b5f81519050919050565b5f610dea82610dd6565b610df4818561099a565b9350610e04818560208601610bba565b610e0d81610b02565b840191505092915050565b5f6020820190508181035f830152610e308184610de0565b905092915050565b7f4e487b71000000000000000000000000000000000000000000000000000000005f52605160045260245ffdfea264697066735822122052c23daa57a21e69cf5e00484644e63fbcffd10638e6e8601f4b6c5da05e573464736f6c634300081a0033",
			"opcodes": "PUSH1 0x80 PUSH1 0x40 MSTORE CALLVALUE DUP1 ISZERO PUSH1 0xE JUMPI PUSH0 DUP1 REVERT JUMPDEST POP PUSH2 0xE9B DUP1 PUSH2 0x1C PUSH0 CODECOPY PUSH0 RETURN INVALID PUSH1 0x80 PUSH1 0x40 MSTORE CALLVALUE DUP1 ISZERO PUSH2 0xF JUMPI PUSH0 DUP1 REVERT JUMPDEST POP PUSH1 0x4 CALLDATASIZE LT PUSH2 0x86 JUMPI PUSH0 CALLDATALOAD PUSH1 0xE0 SHR DUP1 PUSH4 0x63A3D4B6 GT PUSH2 0x59 JUMPI DUP1 PUSH4 0x63A3D4B6 EQ PUSH2 0xC4 JUMPI DUP1 PUSH4 0x90382F17 EQ PUSH2 0xCE JUMPI DUP1 PUSH4 0xAED11580 EQ PUSH2 0xD8 JUMPI DUP1 PUSH4 0xBBB8AC5F EQ PUSH2 0xE2 JUMPI PUSH2 0x86 JUMP JUMPDEST DUP1 PUSH4 0x19DCDB9 EQ PUSH2 0x8A JUMPI DUP1 PUSH4 0x4D0F4E9 EQ PUSH2 0x94 JUMPI DUP1 PUSH4 0x38F14E0F EQ PUSH2 0xB0 JUMPI DUP1 PUSH4 0x595C380E EQ PUSH2 0xBA JUMPI JUMPDEST PUSH0 DUP1 REVERT JUMPDEST PUSH2 0x92 PUSH2 0xEC JUMP JUMPDEST STOP JUMPDEST PUSH2 0xAE PUSH1 0x4 DUP1 CALLDATASIZE SUB DUP2 ADD SWAP1 PUSH2 0xA9 SWAP2 SWAP1 PUSH2 0x74C JUMP JUMPDEST PUSH2 0x151 JUMP JUMPDEST STOP JUMPDEST PUSH2 0xB8 PUSH2 0x155 JUMP JUMPDEST STOP JUMPDEST PUSH2 0xC2 PUSH2 0x1D4 JUMP JUMPDEST STOP JUMPDEST PUSH2 0xCC PUSH2 0x250 JUMP JUMPDEST STOP JUMPDEST PUSH2 0xD6 PUSH2 0x2F0 JUMP JUMPDEST STOP JUMPDEST PUSH2 0xE0 PUSH2 0x346 JUMP JUMPDEST STOP JUMPDEST PUSH2 0xEA PUSH2 0x39C JUMP JUMPDEST STOP JUMPDEST PUSH2 0x14F PUSH1 0x1 PUSH2 0x1234 PUSH1 0x40 MLOAD PUSH1 0x24 ADD PUSH2 0x105 SWAP3 SWAP2 SWAP1 PUSH2 0x811 JUMP JUMPDEST PUSH1 0x40 MLOAD PUSH1 0x20 DUP2 DUP4 SUB SUB DUP2 MSTORE SWAP1 PUSH1 0x40 MSTORE PUSH4 0x4D0F4E9 PUSH1 0xE0 SHL PUSH1 0x20 DUP3 ADD DUP1 MLOAD PUSH28 0xFFFFFFFFFFFFFFFFFFFFFFFFFFFFFFFFFFFFFFFFFFFFFFFFFFFFFFFF DUP4 DUP2 DUP4 AND OR DUP4 MSTORE POP POP POP POP PUSH2 0x49A JUMP JUMPDEST JUMP JUMPDEST POP POP JUMP JUMPDEST PUSH2 0x17F PUSH2 0x4D2 PUSH1 0x40 MLOAD PUSH1 0x20 ADD PUSH2 0x16B SWAP2 SWAP1 PUSH2 0x86D JUMP JUMPDEST PUSH1 0x40 MLOAD PUSH1 0x20 DUP2 DUP4 SUB SUB DUP2 MSTORE SWAP1 PUSH1 0x40 MSTORE PUSH2 0x49A JUMP JUMPDEST PUSH2 0x1AC PUSH2 0x1234 PUSH1 0xF0 SHL PUSH1 0x40 MLOAD PUSH1 0x20 ADD PUSH2 0x198 SWAP2 SWAP1 PUSH2 0x8A7 JUMP JUMPDEST PUSH1 0x40 MLOAD PUSH1 0x20 DUP2 DUP4 SUB SUB DUP2 MSTORE SWAP1 PUSH1 0x40 MSTORE PUSH2 0x49A JUMP JUMPDEST PUSH2 0x1D2 PUSH1 0x40 MLOAD PUSH1 0x20 ADD PUSH2 0x1BE SWAP1 PUSH2 0x915 JUMP JUMPDEST PUSH1 0x40 MLOAD PUSH1 0x20 DUP2 DUP4 SUB SUB DUP2 MSTORE SWAP1 PUSH1 0x40 MSTORE PUSH2 0x49A JUMP JUMPDEST JUMP JUMPDEST PUSH2 0x1FE PUSH2 0x4D2 PUSH1 0x40 MLOAD PUSH1 0x20 ADD PUSH2 0x1EA SWAP2 SWAP1 PUSH2 0x938 JUMP JUMPDEST PUSH1 0x40 MLOAD PUSH1 0x20 DUP2 DUP4 SUB SUB DUP2 MSTORE SWAP1 PUSH1 0x40 MSTORE PUSH2 0x49A JUMP JUMPDEST PUSH2 0x228 PUSH2 0x1234 PUSH1 0x40 MLOAD PUSH1 0x20 ADD PUSH2 0x214 SWAP2 SWAP1 PUSH2 0x981 JUMP JUMPDEST PUSH1 0x40 MLOAD PUSH1 0x20 DUP2 DUP4 SUB SUB DUP2 MSTORE SWAP1 PUSH1 0x40 MSTORE PUSH2 0x49A JUMP JUMPDEST PUSH2 0x24E PUSH1 0x40 MLOAD PUSH1 0x20 ADD PUSH2 0x23A SWAP1 PUSH2 0x9CC JUMP JUMPDEST PUSH1 0x40 MLOAD PUSH1 0x20 DUP2 DUP4 SUB SUB DUP2 MSTORE SWAP1 PUSH1 0x40 MSTORE PUSH2 0x49A JUMP JUMPDEST JUMP JUMPDEST PUSH2 0x2EE PUSH1 0x1 PUSH2 0x1234 PUSH1 0xF0 SHL PUSH1 0x40 MLOAD PUSH1 0x24 ADD PUSH2 0x26C SWAP3 SWAP2 SWAP1 PUSH2 0xA35 JUMP JUMPDEST PUSH1 0x40 MLOAD PUSH1 0x20 DUP2 DUP4 SUB SUB DUP2 MSTORE SWAP1 PUSH1 0x40 MSTORE PUSH32 0x4D0F4E900000000000000000000000000000000000000000000000000000000 PUSH28 0xFFFFFFFFFFFFFFFFFFFFFFFFFFFFFFFFFFFFFFFFFFFFFFFFFFFFFFFF NOT AND PUSH1 0x20 DUP3 ADD DUP1 MLOAD PUSH28 0xFFFFFFFFFFFFFFFFFFFFFFFFFFFFFFFFFFFFFFFFFFFFFFFFFFFFFFFF DUP4 DUP2 DUP4 AND OR DUP4 MSTORE POP POP POP POP PUSH2 0x49A JUMP JUMPDEST JUMP JUMPDEST PUSH2 0x31A PUSH2 0x4D2 PUSH1 0x40 MLOAD PUSH1 0x20 ADD PUSH2 0x306 SWAP2 SWAP1 PUSH2 0xA95 JUMP JUMPDEST PUSH1 0x40 MLOAD PUSH1 0x20 DUP2 DUP4 SUB SUB DUP2 MSTORE SWAP1 PUSH1 0x40 MSTORE PUSH2 0x49A JUMP JUMPDEST PUSH2 0x344 PUSH2 0x4D2 PUSH1 0x40 MLOAD PUSH1 0x20 ADD PUSH2 0x330 SWAP2 SWAP1 PUSH2 0xAC1 JUMP JUMPDEST PUSH1 0x40 MLOAD PUSH1 0x20 DUP2 DUP4 SUB SUB DUP2 MSTORE SWAP1 PUSH1 0x40 MSTORE PUSH2 0x49A JUMP JUMPDEST JUMP JUMPDEST PUSH0 PUSH2 0x4D2 PUSH1 0x40 MLOAD PUSH1 0x20 ADD PUSH2 0x35A SWAP2 SWAP1 PUSH2 0xA95 JUMP JUMPDEST PUSH1 0x40 MLOAD PUSH1 0x20 DUP2 DUP4 SUB SUB DUP2 MSTORE SWAP1 PUSH1 0x40 MSTORE SWAP1 POP PUSH0 DUP1 DUP3 DUP1 PUSH1 0x20 ADD SWAP1 MLOAD DUP2 ADD SWAP1 PUSH2 0x381 SWAP2 SWAP1 PUSH2 0xC36 JUMP JUMPDEST SWAP2 POP SWAP2 POP PUSH2 0x38E DUP3 PUSH2 0x533 JUMP JUMPDEST PUSH2 0x397 DUP2 PUSH2 0x5CC JUMP JUMPDEST POP POP POP JUMP JUMPDEST PUSH2 0x422 PUSH4 0x4D0F4E9 PUSH1 0xE0 SHL PUSH1 0x1 PUSH2 0x1234 PUSH1 0xF0 SHL PUSH1 0x40 MLOAD PUSH1 0x24 ADD PUSH2 0x3C0 SWAP3 SWAP2 SWAP1 PUSH2 0xA35 JUMP JUMPDEST PUSH1 0x40 MLOAD PUSH1 0x20 DUP2 DUP4 SUB SUB DUP2 MSTORE SWAP1 PUSH1 0x40 MSTORE SWAP1 PUSH28 0xFFFFFFFFFFFFFFFFFFFFFFFFFFFFFFFFFFFFFFFFFFFFFFFFFFFFFFFF NOT AND PUSH1 0x20 DUP3 ADD DUP1 MLOAD PUSH28 0xFFFFFFFFFFFFFFFFFFFFFFFFFFFFFFFFFFFFFFFFFFFFFFFFFFFFFFFF DUP4 DUP2 DUP4 AND OR DUP4 MSTORE POP POP POP POP PUSH2 0x49A JUMP JUMPDEST PUSH0 PUSH32 0x4D0F4E964613477C10BE911C5D0B6BCF8BAA1A767B85CDBB6783AE5C46239C0 SWAP1 POP PUSH2 0x497 DUP2 PUSH1 0x1 PUSH2 0x1234 PUSH1 0xF0 SHL PUSH1 0x40 MLOAD PUSH1 0x20 ADD PUSH2 0x463 SWAP3 SWAP2 SWAP1 PUSH2 0xA35 JUMP JUMPDEST PUSH1 0x40 MLOAD PUSH1 0x20 DUP2 DUP4 SUB SUB DUP2 MSTORE SWAP1 PUSH1 0x40 MSTORE PUSH1 0x40 MLOAD PUSH1 0x20 ADD PUSH2 0x483 SWAP3 SWAP2 SWAP1 PUSH2 0xD1F JUMP JUMPDEST PUSH1 0x40 MLOAD PUSH1 0x20 DUP2 DUP4 SUB SUB DUP2 MSTORE SWAP1 PUSH1 0x40 MSTORE PUSH2 0x49A JUMP JUMPDEST POP JUMP JUMPDEST PUSH2 0x530 DUP2 PUSH1 0x40 MLOAD PUSH1 0x24 ADD PUSH2 0x4AE SWAP2 SWAP1 PUSH2 0xD8E JUMP JUMPDEST PUSH1 0x40 MLOAD PUSH1 0x20 DUP2 DUP4 SUB SUB DUP2 MSTORE SWAP1 PUSH1 0x40 MSTORE PUSH32 0xBE77F5600000000000000000000000000000000000000000000000000000000 PUSH28 0xFFFFFFFFFFFFFFFFFFFFFFFFFFFFFFFFFFFFFFFFFFFFFFFFFFFFFFFF NOT AND PUSH1 0x20 DUP3 ADD DUP1 MLOAD PUSH28 0xFFFFFFFFFFFFFFFFFFFFFFFFFFFFFFFFFFFFFFFFFFFFFFFFFFFFFFFF DUP4 DUP2 DUP4 AND OR DUP4 MSTORE POP POP POP POP PUSH2 0x665 JUMP JUMPDEST POP JUMP JUMPDEST PUSH2 0x5C9 DUP2 PUSH1 0x40 MLOAD PUSH1 0x24 ADD PUSH2 0x547 SWAP2 SWAP1 PUSH2 0xDBD JUMP JUMPDEST PUSH1 0x40 MLOAD PUSH1 0x20 DUP2 DUP4 SUB SUB DUP2 MSTORE SWAP1 PUSH1 0x40 MSTORE PUSH32 0xF82C50F100000000000000000000000000000000000000000000000000000000 PUSH28 0xFFFFFFFFFFFFFFFFFFFFFFFFFFFFFFFFFFFFFFFFFFFFFFFFFFFFFFFF NOT AND PUSH1 0x20 DUP3 ADD DUP1 MLOAD PUSH28 0xFFFFFFFFFFFFFFFFFFFFFFFFFFFFFFFFFFFFFFFFFFFFFFFFFFFFFFFF DUP4 DUP2 DUP4 AND OR DUP4 MSTORE POP POP POP POP PUSH2 0x665 JUMP JUMPDEST POP JUMP JUMPDEST PUSH2 0x662 DUP2 PUSH1 0x40 MLOAD PUSH1 0x24 ADD PUSH2 0x5E0 SWAP2 SWAP1 PUSH2 0xE18 JUMP JUMPDEST PUSH1 0x40 MLOAD PUSH1 0x20 DUP2 DUP4 SUB SUB DUP2 MSTORE SWAP1 PUSH1 0x40 MSTORE PUSH32 0x41304FAC00000000000000000000000000000000000000000000000000000000 PUSH28 0xFFFFFFFFFFFFFFFFFFFFFFFFFFFFFFFFFFFFFFFFFFFFFFFFFFFFFFFF NOT AND PUSH1 0x20 DUP3 ADD DUP1 MLOAD PUSH28 0xFFFFFFFFFFFFFFFFFFFFFFFFFFFFFFFFFFFFFFFFFFFFFFFFFFFFFFFF DUP4 DUP2 DUP4 AND OR DUP4 MSTORE POP POP POP POP PUSH2 0x665 JUMP JUMPDEST POP JUMP JUMPDEST PUSH2 0x67C DUP2 PUSH2 0x674 PUSH2 0x67F PUSH2 0x69E JUMP JUMPDEST PUSH4 0xFFFFFFFF AND JUMP JUMPDEST POP JUMP JUMPDEST PUSH0 PUSH11 0x636F6E736F6C652E6C6F67 SWAP1 POP PUSH0 DUP1 DUP4 MLOAD PUSH1 0x20 DUP6 ADD DUP5 GAS STATICCALL POP POP POP JUMP JUMPDEST PUSH2 0x6A9 DUP2 SWAP1 POP SWAP2 SWAP1 POP JUMP JUMPDEST PUSH2 0x6B1 PUSH2 0xE38 JUMP JUMPDEST JUMP JUMPDEST PUSH0 PUSH1 0x40 MLOAD SWAP1 POP SWAP1 JUMP JUMPDEST PUSH0 DUP1 REVERT JUMPDEST PUSH0 DUP1 REVERT JUMPDEST PUSH0 DUP2 SWAP1 POP SWAP2 SWAP1 POP JUMP JUMPDEST PUSH2 0x6D6 DUP2 PUSH2 0x6C4 JUMP JUMPDEST DUP2 EQ PUSH2 0x6E0 JUMPI PUSH0 DUP1 REVERT JUMPDEST POP JUMP JUMPDEST PUSH0 DUP2 CALLDATALOAD SWAP1 POP PUSH2 0x6F1 DUP2 PUSH2 0x6CD JUMP JUMPDEST SWAP3 SWAP2 POP POP JUMP JUMPDEST PUSH0 PUSH32 0xFFFF000000000000000000000000000000000000000000000000000000000000 DUP3 AND SWAP1 POP SWAP2 SWAP1 POP JUMP JUMPDEST PUSH2 0x72B DUP2 PUSH2 0x6F7 JUMP JUMPDEST DUP2 EQ PUSH2 0x735 JUMPI PUSH0 DUP1 REVERT JUMPDEST POP JUMP JUMPDEST PUSH0 DUP2 CALLDATALOAD SWAP1 POP PUSH2 0x746 DUP2 PUSH2 0x722 JUMP JUMPDEST SWAP3 SWAP2 POP POP JUMP JUMPDEST PUSH0 DUP1 PUSH1 0x40 DUP4 DUP6 SUB SLT ISZERO PUSH2 0x762 JUMPI PUSH2 0x761 PUSH2 0x6BC JUMP JUMPDEST JUMPDEST PUSH0 PUSH2 0x76F DUP6 DUP3 DUP7 ADD PUSH2 0x6E3 JUMP JUMPDEST SWAP3 POP POP PUSH1 0x20 PUSH2 0x780 DUP6 DUP3 DUP7 ADD PUSH2 0x738 JUMP JUMPDEST SWAP2 POP POP SWAP3 POP SWAP3 SWAP1 POP JUMP JUMPDEST PUSH0 DUP2 SWAP1 POP SWAP2 SWAP1 POP JUMP JUMPDEST PUSH0 DUP2 SWAP1 POP SWAP2 SWAP1 POP JUMP JUMPDEST PUSH0 PUSH2 0x7B6 PUSH2 0x7B1 PUSH2 0x7AC DUP5 PUSH2 0x78A JUMP JUMPDEST PUSH2 0x793 JUMP JUMPDEST PUSH2 0x6C4 JUMP JUMPDEST SWAP1 POP SWAP2 SWAP1 POP JUMP JUMPDEST PUSH2 0x7C6 DUP2 PUSH2 0x79C JUMP JUMPDEST DUP3 MSTORE POP POP JUMP JUMPDEST PUSH0 DUP2 SWAP1 POP SWAP2 SWAP1 POP JUMP JUMPDEST PUSH0 DUP2 PUSH1 0xF0 SHL SWAP1 POP SWAP2 SWAP1 POP JUMP JUMPDEST PUSH0 PUSH2 0x7FB PUSH2 0x7F6 PUSH2 0x7F1 DUP5 PUSH2 0x7CC JUMP JUMPDEST PUSH2 0x7D5 JUMP JUMPDEST PUSH2 0x6F7 JUMP JUMPDEST SWAP1 POP SWAP2 SWAP1 POP JUMP JUMPDEST PUSH2 0x80B DUP2 PUSH2 0x7E1 JUMP JUMPDEST DUP3 MSTORE POP POP JUMP JUMPDEST PUSH0 PUSH1 0x40 DUP3 ADD SWAP1 POP PUSH2 0x824 PUSH0 DUP4 ADD DUP6 PUSH2 0x7BD JUMP JUMPDEST PUSH2 0x831 PUSH1 0x20 DUP4 ADD DUP5 PUSH2 0x802 JUMP JUMPDEST SWAP4 SWAP3 POP POP POP JUMP JUMPDEST PUSH0 PUSH2 0xFFFF DUP3 AND SWAP1 POP SWAP2 SWAP1 POP JUMP JUMPDEST PUSH0 PUSH2 0x84F DUP3 PUSH2 0x7D5 JUMP JUMPDEST SWAP1 POP SWAP2 SWAP1 POP JUMP JUMPDEST PUSH2 0x867 PUSH2 0x862 DUP3 PUSH2 0x838 JUMP JUMPDEST PUSH2 0x845 JUMP JUMPDEST DUP3 MSTORE POP POP JUMP JUMPDEST PUSH0 PUSH2 0x878 DUP3 DUP5 PUSH2 0x856 JUMP JUMPDEST PUSH1 0x2 DUP3 ADD SWAP2 POP DUP2 SWAP1 POP SWAP3 SWAP2 POP POP JUMP JUMPDEST PUSH0 DUP2 SWAP1 POP SWAP2 SWAP1 POP JUMP JUMPDEST PUSH2 0x8A1 PUSH2 0x89C DUP3 PUSH2 0x6F7 JUMP JUMPDEST PUSH2 0x887 JUMP JUMPDEST DUP3 MSTORE POP POP JUMP JUMPDEST PUSH0 PUSH2 0x8B2 DUP3 DUP5 PUSH2 0x890 JUMP JUMPDEST PUSH1 0x2 DUP3 ADD SWAP2 POP DUP2 SWAP1 POP SWAP3 SWAP2 POP POP JUMP JUMPDEST PUSH0 DUP2 SWAP1 POP SWAP3 SWAP2 POP POP JUMP JUMPDEST PUSH32 0x3132333400000000000000000000000000000000000000000000000000000000 PUSH0 DUP3 ADD MSTORE POP JUMP JUMPDEST PUSH0 PUSH2 0x8FF PUSH1 0x4 DUP4 PUSH2 0x8C1 JUMP JUMPDEST SWAP2 POP PUSH2 0x90A DUP3 PUSH2 0x8CB JUMP JUMPDEST PUSH1 0x4 DUP3 ADD SWAP1 POP SWAP2 SWAP1 POP JUMP JUMPDEST PUSH0 PUSH2 0x91F DUP3 PUSH2 0x8F3 JUMP JUMPDEST SWAP2 POP DUP2 SWAP1 POP SWAP2 SWAP1 POP JUMP JUMPDEST PUSH2 0x932 DUP2 PUSH2 0x838 JUMP JUMPDEST DUP3 MSTORE POP POP JUMP JUMPDEST PUSH0 PUSH1 0x20 DUP3 ADD SWAP1 POP PUSH2 0x94B PUSH0 DUP4 ADD DUP5 PUSH2 0x929 JUMP JUMPDEST SWAP3 SWAP2 POP POP JUMP JUMPDEST PUSH0 PUSH2 0x96B PUSH2 0x966 PUSH2 0x961 DUP5 PUSH2 0x7CC JUMP JUMPDEST PUSH2 0x793 JUMP JUMPDEST PUSH2 0x838 JUMP JUMPDEST SWAP1 POP SWAP2 SWAP1 POP JUMP JUMPDEST PUSH2 0x97B DUP2 PUSH2 0x951 JUMP JUMPDEST DUP3 MSTORE POP POP JUMP JUMPDEST PUSH0 PUSH1 0x20 DUP3 ADD SWAP1 POP PUSH2 0x994 PUSH0 DUP4 ADD DUP5 PUSH2 0x972 JUMP JUMPDEST SWAP3 SWAP2 POP POP JUMP JUMPDEST PUSH0 DUP3 DUP3 MSTORE PUSH1 0x20 DUP3 ADD SWAP1 POP SWAP3 SWAP2 POP POP JUMP JUMPDEST PUSH0 PUSH2 0x9B6 PUSH1 0x4 DUP4 PUSH2 0x99A JUMP JUMPDEST SWAP2 POP PUSH2 0x9C1 DUP3 PUSH2 0x8CB JUMP JUMPDEST PUSH1 0x20 DUP3 ADD SWAP1 POP SWAP2 SWAP1 POP JUMP JUMPDEST PUSH0 PUSH1 0x20 DUP3 ADD SWAP1 POP DUP2 DUP2 SUB PUSH0 DUP4 ADD MSTORE PUSH2 0x9E3 DUP2 PUSH2 0x9AA JUMP JUMPDEST SWAP1 POP SWAP2 SWAP1 POP JUMP JUMPDEST PUSH0 PUSH1 0xFF DUP3 AND SWAP1 POP SWAP2 SWAP1 POP JUMP JUMPDEST PUSH0 PUSH2 0xA10 PUSH2 0xA0B PUSH2 0xA06 DUP5 PUSH2 0x78A JUMP JUMPDEST PUSH2 0x793 JUMP JUMPDEST PUSH2 0x9EA JUMP JUMPDEST SWAP1 POP SWAP2 SWAP1 POP JUMP JUMPDEST PUSH2 0xA20 DUP2 PUSH2 0x9F6 JUMP JUMPDEST DUP3 MSTORE POP POP JUMP JUMPDEST PUSH2 0xA2F DUP2 PUSH2 0x6F7 JUMP JUMPDEST DUP3 MSTORE POP POP JUMP JUMPDEST PUSH0 PUSH1 0x40 DUP3 ADD SWAP1 POP PUSH2 0xA48 PUSH0 DUP4 ADD DUP6 PUSH2 0xA17 JUMP JUMPDEST PUSH2 0xA55 PUSH1 0x20 DUP4 ADD DUP5 PUSH2 0xA26 JUMP JUMPDEST SWAP4 SWAP3 POP POP POP JUMP JUMPDEST PUSH0 DUP2 SWAP1 POP SWAP2 SWAP1 POP JUMP JUMPDEST PUSH0 PUSH2 0xA7F PUSH2 0xA7A PUSH2 0xA75 DUP5 PUSH2 0xA5C JUMP JUMPDEST PUSH2 0x793 JUMP JUMPDEST PUSH2 0x838 JUMP JUMPDEST SWAP1 POP SWAP2 SWAP1 POP JUMP JUMPDEST PUSH2 0xA8F DUP2 PUSH2 0xA65 JUMP JUMPDEST DUP3 MSTORE POP POP JUMP JUMPDEST PUSH0 PUSH1 0x40 DUP3 ADD SWAP1 POP PUSH2 0xAA8 PUSH0 DUP4 ADD DUP5 PUSH2 0xA86 JUMP JUMPDEST DUP2 DUP2 SUB PUSH1 0x20 DUP4 ADD MSTORE PUSH2 0xAB9 DUP2 PUSH2 0x9AA JUMP JUMPDEST SWAP1 POP SWAP3 SWAP2 POP POP JUMP JUMPDEST PUSH0 PUSH2 0xACC DUP3 DUP5 PUSH2 0x856 JUMP JUMPDEST PUSH1 0x2 DUP3 ADD SWAP2 POP PUSH2 0xADB DUP3 PUSH2 0x8F3 JUMP JUMPDEST SWAP2 POP DUP2 SWAP1 POP SWAP3 SWAP2 POP POP JUMP JUMPDEST PUSH0 DUP2 MLOAD SWAP1 POP PUSH2 0xAF4 DUP2 PUSH2 0x6CD JUMP JUMPDEST SWAP3 SWAP2 POP POP JUMP JUMPDEST PUSH0 DUP1 REVERT JUMPDEST PUSH0 DUP1 REVERT JUMPDEST PUSH0 PUSH1 0x1F NOT PUSH1 0x1F DUP4 ADD AND SWAP1 POP SWAP2 SWAP1 POP JUMP JUMPDEST PUSH32 0x4E487B7100000000000000000000000000000000000000000000000000000000 PUSH0 MSTORE PUSH1 0x41 PUSH1 0x4 MSTORE PUSH1 0x24 PUSH0 REVERT JUMPDEST PUSH2 0xB48 DUP3 PUSH2 0xB02 JUMP JUMPDEST DUP2 ADD DUP2 DUP2 LT PUSH8 0xFFFFFFFFFFFFFFFF DUP3 GT OR ISZERO PUSH2 0xB67 JUMPI PUSH2 0xB66 PUSH2 0xB12 JUMP JUMPDEST JUMPDEST DUP1 PUSH1 0x40 MSTORE POP POP POP JUMP JUMPDEST PUSH0 PUSH2 0xB79 PUSH2 0x6B3 JUMP JUMPDEST SWAP1 POP PUSH2 0xB85 DUP3 DUP3 PUSH2 0xB3F JUMP JUMPDEST SWAP2 SWAP1 POP JUMP JUMPDEST PUSH0 PUSH8 0xFFFFFFFFFFFFFFFF DUP3 GT ISZERO PUSH2 0xBA4 JUMPI PUSH2 0xBA3 PUSH2 0xB12 JUMP JUMPDEST JUMPDEST PUSH2 0xBAD DUP3 PUSH2 0xB02 JUMP JUMPDEST SWAP1 POP PUSH1 0x20 DUP2 ADD SWAP1 POP SWAP2 SWAP1 POP JUMP JUMPDEST DUP3 DUP2 DUP4 MCOPY PUSH0 DUP4 DUP4 ADD MSTORE POP POP POP JUMP JUMPDEST PUSH0 PUSH2 0xBDA PUSH2 0xBD5 DUP5 PUSH2 0xB8A JUMP JUMPDEST PUSH2 0xB70 JUMP JUMPDEST SWAP1 POP DUP3 DUP2 MSTORE PUSH1 0x20 DUP2 ADD DUP5 DUP5 DUP5 ADD GT ISZERO PUSH2 0xBF6 JUMPI PUSH2 0xBF5 PUSH2 0xAFE JUMP JUMPDEST JUMPDEST PUSH2 0xC01 DUP5 DUP3 DUP6 PUSH2 0xBBA JUMP JUMPDEST POP SWAP4 SWAP3 POP POP POP JUMP JUMPDEST PUSH0 DUP3 PUSH1 0x1F DUP4 ADD SLT PUSH2 0xC1D JUMPI PUSH2 0xC1C PUSH2 0xAFA JUMP JUMPDEST JUMPDEST DUP2 MLOAD PUSH2 0xC2D DUP5 DUP3 PUSH1 0x20 DUP7 ADD PUSH2 0xBC8 JUMP JUMPDEST SWAP2 POP POP SWAP3 SWAP2 POP POP JUMP JUMPDEST PUSH0 DUP1 PUSH1 0x40 DUP4 DUP6 SUB SLT ISZERO PUSH2 0xC4C JUMPI PUSH2 0xC4B PUSH2 0x6BC JUMP JUMPDEST JUMPDEST PUSH0 PUSH2 0xC59 DUP6 DUP3 DUP7 ADD PUSH2 0xAE6 JUMP JUMPDEST SWAP3 POP POP PUSH1 0x20 DUP4 ADD MLOAD PUSH8 0xFFFFFFFFFFFFFFFF DUP2 GT ISZERO PUSH2 0xC7A JUMPI PUSH2 0xC79 PUSH2 0x6C0 JUMP JUMPDEST JUMPDEST PUSH2 0xC86 DUP6 DUP3 DUP7 ADD PUSH2 0xC09 JUMP JUMPDEST SWAP2 POP POP SWAP3 POP SWAP3 SWAP1 POP JUMP JUMPDEST PUSH0 PUSH32 0xFFFFFFFF00000000000000000000000000000000000000000000000000000000 DUP3 AND SWAP1 POP SWAP2 SWAP1 POP JUMP JUMPDEST PUSH0 DUP2 SWAP1 POP SWAP2 SWAP1 POP JUMP JUMPDEST PUSH2 0xCD5 PUSH2 0xCD0 DUP3 PUSH2 0xC90 JUMP JUMPDEST PUSH2 0xCBB JUMP JUMPDEST DUP3 MSTORE POP POP JUMP JUMPDEST PUSH0 DUP2 MLOAD SWAP1 POP SWAP2 SWAP1 POP JUMP JUMPDEST PUSH0 DUP2 SWAP1 POP SWAP3 SWAP2 POP POP JUMP JUMPDEST PUSH0 PUSH2 0xCF9 DUP3 PUSH2 0xCDB JUMP JUMPDEST PUSH2 0xD03 DUP2 DUP6 PUSH2 0xCE5 JUMP JUMPDEST SWAP4 POP PUSH2 0xD13 DUP2 DUP6 PUSH1 0x20 DUP7 ADD PUSH2 0xBBA JUMP JUMPDEST DUP1 DUP5 ADD SWAP2 POP POP SWAP3 SWAP2 POP POP JUMP JUMPDEST PUSH0 PUSH2 0xD2A DUP3 DUP6 PUSH2 0xCC4 JUMP JUMPDEST PUSH1 0x4 DUP3 ADD SWAP2 POP PUSH2 0xD3A DUP3 DUP5 PUSH2 0xCEF JUMP JUMPDEST SWAP2 POP DUP2 SWAP1 POP SWAP4 SWAP3 POP POP POP JUMP JUMPDEST PUSH0 DUP3 DUP3 MSTORE PUSH1 0x20 DUP3 ADD SWAP1 POP SWAP3 SWAP2 POP POP JUMP JUMPDEST PUSH0 PUSH2 0xD60 DUP3 PUSH2 0xCDB JUMP JUMPDEST PUSH2 0xD6A DUP2 DUP6 PUSH2 0xD46 JUMP JUMPDEST SWAP4 POP PUSH2 0xD7A DUP2 DUP6 PUSH1 0x20 DUP7 ADD PUSH2 0xBBA JUMP JUMPDEST PUSH2 0xD83 DUP2 PUSH2 0xB02 JUMP JUMPDEST DUP5 ADD SWAP2 POP POP SWAP3 SWAP2 POP POP JUMP JUMPDEST PUSH0 PUSH1 0x20 DUP3 ADD SWAP1 POP DUP2 DUP2 SUB PUSH0 DUP4 ADD MSTORE PUSH2 0xDA6 DUP2 DUP5 PUSH2 0xD56 JUMP JUMPDEST SWAP1 POP SWAP3 SWAP2 POP POP JUMP JUMPDEST PUSH2 0xDB7 DUP2 PUSH2 0x6C4 JUMP JUMPDEST DUP3 MSTORE POP POP JUMP JUMPDEST PUSH0 PUSH1 0x20 DUP3 ADD SWAP1 POP PUSH2 0xDD0 PUSH0 DUP4 ADD DUP5 PUSH2 0xDAE JUMP JUMPDEST SWAP3 SWAP2 POP POP JUMP JUMPDEST PUSH0 DUP2 MLOAD SWAP1 POP SWAP2 SWAP1 POP JUMP JUMPDEST PUSH0 PUSH2 0xDEA DUP3 PUSH2 0xDD6 JUMP JUMPDEST PUSH2 0xDF4 DUP2 DUP6 PUSH2 0x99A JUMP JUMPDEST SWAP4 POP PUSH2 0xE04 DUP2 DUP6 PUSH1 0x20 DUP7 ADD PUSH2 0xBBA JUMP JUMPDEST PUSH2 0xE0D DUP2 PUSH2 0xB02 JUMP JUMPDEST DUP5 ADD SWAP2 POP POP SWAP3 SWAP2 POP POP JUMP JUMPDEST PUSH0 PUSH1 0x20 DUP3 ADD SWAP1 POP DUP2 DUP2 SUB PUSH0 DUP4 ADD MSTORE PUSH2 0xE30 DUP2 DUP5 PUSH2 0xDE0 JUMP JUMPDEST SWAP1 POP SWAP3 SWAP2 POP POP JUMP JUMPDEST PUSH32 0x4E487B7100000000000000000000000000000000000000000000000000000000 PUSH0 MSTORE PUSH1 0x51 PUSH1 0x4 MSTORE PUSH1 0x24 PUSH0 REVERT INVALID LOG2 PUSH5 0x6970667358 0x22 SLT KECCAK256 MSTORE 0xC2 RETURNDATASIZE 0xAA JUMPI LOG2 0x1E PUSH10 0xCF5E00484644E63FBCFF 0xD1 MOD CODESIZE 0xE6 0xE8 PUSH1 0x1F 0x4B PUSH13 0x5DA05E573464736F6C63430008 BYTE STOP CALLER "
		},
		"gasEstimates": {
			"creation": {
				"codeDepositCost": "747800",
				"executionCost": "777",
				"totalCost": "748577"
			},
			"external": {
				"testAbiCall()": "infinite",
				"testAbiDecode()": "infinite",
				"testAbiEncode()": "infinite",
				"testAbiEncodeCombined()": "infinite",
				"testAbiEncodePacked()": "infinite",
				"testAbiMethod(uint256,bytes2)": "601",
				"testAbiSeletor()": "infinite",
				"testAbiSignature()": "infinite"
			}
		},
		"methodIdentifiers": {
			"testAbiCall()": "019dcdb9",
			"testAbiDecode()": "aed11580",
			"testAbiEncode()": "595c380e",
			"testAbiEncodeCombined()": "90382f17",
			"testAbiEncodePacked()": "38f14e0f",
			"testAbiMethod(uint256,bytes2)": "04d0f4e9",
			"testAbiSeletor()": "bbb8ac5f",
			"testAbiSignature()": "63a3d4b6"
		}
	},
	"abi": [
		{
			"inputs": [],
			"name": "testAbiCall",
			"outputs": [],
			"stateMutability": "pure",
			"type": "function"
		},
		{
			"inputs": [],
			"name": "testAbiDecode",
			"outputs": [],
			"stateMutability": "pure",
			"type": "function"
		},
		{
			"inputs": [],
			"name": "testAbiEncode",
			"outputs": [],
			"stateMutability": "pure",
			"type": "function"
		},
		{
			"inputs": [],
			"name": "testAbiEncodeCombined",
			"outputs": [],
			"stateMutability": "pure",
			"type": "function"
		},
		{
			"inputs": [],
			"name": "testAbiEncodePacked",
			"outputs": [],
			"stateMutability": "pure",
			"type": "function"
		},
		{
			"inputs": [
				{
					"internalType": "uint256",
					"name": "a",
					"type": "uint256"
				},
				{
					"internalType": "bytes2",
					"name": "b",
					"type": "bytes2"
				}
			],
			"name": "testAbiMethod",
			"outputs": [],
			"stateMutability": "nonpayable",
			"type": "function"
		},
		{
			"inputs": [],
			"name": "testAbiSeletor",
			"outputs": [],
			"stateMutability": "pure",
			"type": "function"
		},
		{
			"inputs": [],
			"name": "testAbiSignature",
			"outputs": [],
			"stateMutability": "pure",
			"type": "function"
		}
	]
}