{
	"data": {
		"bytecode": {
			"linkReferences": {},
			"object": "6080604052600a67ffffffffffffffff81111561001f5761001e61019e565b5b60405190808252806020026020018201604052801561004d5781602001602082028036833780820191505090505b505f90805190602001906100629291906100ac565b506040518060600160405280600160ff168152602001600260ff168152602001600360ff16815250600c90600361009a929190610133565b503480156100a6575f80fd5b506101cb565b828054828255905f5260205f20908101928215610122579160200282015b82811115610121578251825f6101000a81548173ffffffffffffffffffffffffffffffffffffffff021916908373ffffffffffffffffffffffffffffffffffffffff160217905550916020019190600101906100ca565b5b50905061012f9190610183565b5090565b828054828255905f5260205f20908101928215610172579160200282015b82811115610171578251829060ff16905591602001919060010190610151565b5b50905061017f9190610183565b5090565b5b8082111561019a575f815f905550600101610184565b5090565b7f4e487b71000000000000000000000000000000000000000000000000000000005f52604160045260245ffd5b610391806101d85f395ff3fe608060405234801561000f575f80fd5b5060043610610034575f3560e01c8063cc80f6f314610038578063edf0099b14610042575b5f80fd5b610040610072565b005b61005c600480360381019061005791906102ae565b610170565b60405161006991906102e8565b60405180910390f35b61007f5f80549050610190565b5f60098154811061009357610092610301565b5b905f5260205f20015f6101000a81549073ffffffffffffffffffffffffffffffffffffffff02191690556100cb600180549050610190565b60015f908060018154018082558091505060019003905f5260205f20015f9091909190916101000a81548173ffffffffffffffffffffffffffffffffffffffff021916908373ffffffffffffffffffffffffffffffffffffffff160217905550610139600180549050610190565b600c6002908060018154018082558091505060019003905f5260205f20015f909190919091505561016e600c80549050610190565b565b600c818154811061017f575f80fd5b905f5260205f20015f915090505481565b610226816040516024016101a491906102e8565b6040516020818303038152906040527ff82c50f1000000000000000000000000000000000000000000000000000000007bffffffffffffffffffffffffffffffffffffffffffffffffffffffff19166020820180517bffffffffffffffffffffffffffffffffffffffffffffffffffffffff8381831617835250505050610229565b50565b61024081610238610243610262565b63ffffffff16565b50565b5f6a636f6e736f6c652e6c6f6790505f80835160208501845afa505050565b61026d819050919050565b61027561032e565b565b5f80fd5b5f819050919050565b61028d8161027b565b8114610297575f80fd5b50565b5f813590506102a881610284565b92915050565b5f602082840312156102c3576102c2610277565b5b5f6102d08482850161029a565b91505092915050565b6102e28161027b565b82525050565b5f6020820190506102fb5f8301846102d9565b92915050565b7f4e487b71000000000000000000000000000000000000000000000000000000005f52603260045260245ffd5b7f4e487b71000000000000000000000000000000000000000000000000000000005f52605160045260245ffdfea264697066735822122031ecc5c74e3bc99447adcf22391b90d70e68cb80feaddd9ef14bfd45df919f1564736f6c634300081a0033",
			"opcodes": "PUSH1 0x80 PUSH1 0x40 MSTORE PUSH1 0xA PUSH8 0xFFFFFFFFFFFFFFFF DUP2 GT ISZERO PUSH2 0x1F JUMPI PUSH2 0x1E PUSH2 0x19E JUMP JUMPDEST JUMPDEST PUSH1 0x40 MLOAD SWAP1 DUP1 DUP3 MSTORE DUP1 PUSH1 0x20 MUL PUSH1 0x20 ADD DUP3 ADD PUSH1 0x40 MSTORE DUP1 ISZERO PUSH2 0x4D JUMPI DUP2 PUSH1 0x20 ADD PUSH1 0x20 DUP3 MUL DUP1 CALLDATASIZE DUP4 CALLDATACOPY DUP1 DUP3 ADD SWAP2 POP POP SWAP1 POP JUMPDEST POP PUSH0 SWAP1 DUP1 MLOAD SWAP1 PUSH1 0x20 ADD SWAP1 PUSH2 0x62 SWAP3 SWAP2 SWAP1 PUSH2 0xAC JUMP JUMPDEST POP PUSH1 0x40 MLOAD DUP1 PUSH1 0x60 ADD PUSH1 0x40 MSTORE DUP1 PUSH1 0x1 PUSH1 0xFF AND DUP2 MSTORE PUSH1 0x20 ADD PUSH1 0x2 PUSH1 0xFF AND DUP2 MSTORE PUSH1 0x20 ADD PUSH1 0x3 PUSH1 0xFF AND DUP2 MSTORE POP PUSH1 0xC SWAP1 PUSH1 0x3 PUSH2 0x9A SWAP3 SWAP2 SWAP1 PUSH2 0x133 JUMP JUMPDEST POP CALLVALUE DUP1 ISZERO PUSH2 0xA6 JUMPI PUSH0 DUP1 REVERT JUMPDEST POP PUSH2 0x1CB JUMP JUMPDEST DUP3 DUP1 SLOAD DUP3 DUP3 SSTORE SWAP1 PUSH0 MSTORE PUSH1 0x20 PUSH0 KECCAK256 SWAP1 DUP2 ADD SWAP3 DUP3 ISZERO PUSH2 0x122 JUMPI SWAP2 PUSH1 0x20 MUL DUP3 ADD JUMPDEST DUP3 DUP2 GT ISZERO PUSH2 0x121 JUMPI DUP3 MLOAD DUP3 PUSH0 PUSH2 0x100 EXP DUP2 SLOAD DUP2 PUSH20 0xFFFFFFFFFFFFFFFFFFFFFFFFFFFFFFFFFFFFFFFF MUL NOT AND SWAP1 DUP4 PUSH20 0xFFFFFFFFFFFFFFFFFFFFFFFFFFFFFFFFFFFFFFFF AND MUL OR SWAP1 SSTORE POP SWAP2 PUSH1 0x20 ADD SWAP2 SWAP1 PUSH1 0x1 ADD SWAP1 PUSH2 0xCA JUMP JUMPDEST JUMPDEST POP SWAP1 POP PUSH2 0x12F SWAP2 SWAP1 PUSH2 0x183 JUMP JUMPDEST POP SWAP1 JUMP JUMPDEST DUP3 DUP1 SLOAD DUP3 DUP3 SSTORE SWAP1 PUSH0 MSTORE PUSH1 0x20 PUSH0 KECCAK256 SWAP1 DUP2 ADD SWAP3 DUP3 ISZERO PUSH2 0x172 JUMPI SWAP2 PUSH1 0x20 MUL DUP3 ADD JUMPDEST DUP3 DUP2 GT ISZERO PUSH2 0x171 JUMPI DUP3 MLOAD DUP3 SWAP1 PUSH1 0xFF AND SWAP1 SSTORE SWAP2 PUSH1 0x20 ADD SWAP2 SWAP1 PUSH1 0x1 ADD SWAP1 PUSH2 0x151 JUMP JUMPDEST JUMPDEST POP SWAP1 POP PUSH2 0x17F SWAP2 SWAP1 PUSH2 0x183 JUMP JUMPDEST POP SWAP1 JUMP JUMPDEST JUMPDEST DUP1 DUP3 GT ISZERO PUSH2 0x19A JUMPI PUSH0 DUP2 PUSH0 SWAP1 SSTORE POP PUSH1 0x1 ADD PUSH2 0x184 JUMP JUMPDEST POP SWAP1 JUMP JUMPDEST PUSH32 0x4E487B7100000000000000000000000000000000000000000000000000000000 PUSH0 MSTORE PUSH1 0x41 PUSH1 0x4 MSTORE PUSH1 0x24 PUSH0 REVERT JUMPDEST PUSH2 0x391 DUP1 PUSH2 0x1D8 PUSH0 CODECOPY PUSH0 RETURN INVALID PUSH1 0x80 PUSH1 0x40 MSTORE CALLVALUE DUP1 ISZERO PUSH2 0xF JUMPI PUSH0 DUP1 REVERT JUMPDEST POP PUSH1 0x4 CALLDATASIZE LT PUSH2 0x34 JUMPI PUSH0 CALLDATALOAD PUSH1 0xE0 SHR DUP1 PUSH4 0xCC80F6F3 EQ PUSH2 0x38 JUMPI DUP1 PUSH4 0xEDF0099B EQ PUSH2 0x42 JUMPI JUMPDEST PUSH0 DUP1 REVERT JUMPDEST PUSH2 0x40 PUSH2 0x72 JUMP JUMPDEST STOP JUMPDEST PUSH2 0x5C PUSH1 0x4 DUP1 CALLDATASIZE SUB DUP2 ADD SWAP1 PUSH2 0x57 SWAP2 SWAP1 PUSH2 0x2AE JUMP JUMPDEST PUSH2 0x170 JUMP JUMPDEST PUSH1 0x40 MLOAD PUSH2 0x69 SWAP2 SWAP1 PUSH2 0x2E8 JUMP JUMPDEST PUSH1 0x40 MLOAD DUP1 SWAP2 SUB SWAP1 RETURN JUMPDEST PUSH2 0x7F PUSH0 DUP1 SLOAD SWAP1 POP PUSH2 0x190 JUMP JUMPDEST PUSH0 PUSH1 0x9 DUP2 SLOAD DUP2 LT PUSH2 0x93 JUMPI PUSH2 0x92 PUSH2 0x301 JUMP JUMPDEST JUMPDEST SWAP1 PUSH0 MSTORE PUSH1 0x20 PUSH0 KECCAK256 ADD PUSH0 PUSH2 0x100 EXP DUP2 SLOAD SWAP1 PUSH20 0xFFFFFFFFFFFFFFFFFFFFFFFFFFFFFFFFFFFFFFFF MUL NOT AND SWAP1 SSTORE PUSH2 0xCB PUSH1 0x1 DUP1 SLOAD SWAP1 POP PUSH2 0x190 JUMP JUMPDEST PUSH1 0x1 PUSH0 SWAP1 DUP1 PUSH1 0x1 DUP2 SLOAD ADD DUP1 DUP3 SSTORE DUP1 SWAP2 POP POP PUSH1 0x1 SWAP1 SUB SWAP1 PUSH0 MSTORE PUSH1 0x20 PUSH0 KECCAK256 ADD PUSH0 SWAP1 SWAP2 SWAP1 SWAP2 SWAP1 SWAP2 PUSH2 0x100 EXP DUP2 SLOAD DUP2 PUSH20 0xFFFFFFFFFFFFFFFFFFFFFFFFFFFFFFFFFFFFFFFF MUL NOT AND SWAP1 DUP4 PUSH20 0xFFFFFFFFFFFFFFFFFFFFFFFFFFFFFFFFFFFFFFFF AND MUL OR SWAP1 SSTORE POP PUSH2 0x139 PUSH1 0x1 DUP1 SLOAD SWAP1 POP PUSH2 0x190 JUMP JUMPDEST PUSH1 0xC PUSH1 0x2 SWAP1 DUP1 PUSH1 0x1 DUP2 SLOAD ADD DUP1 DUP3 SSTORE DUP1 SWAP2 POP POP PUSH1 0x1 SWAP1 SUB SWAP1 PUSH0 MSTORE PUSH1 0x20 PUSH0 KECCAK256 ADD PUSH0 SWAP1 SWAP2 SWAP1 SWAP2 SWAP1 SWAP2 POP SSTORE PUSH2 0x16E PUSH1 0xC DUP1 SLOAD SWAP1 POP PUSH2 0x190 JUMP JUMPDEST JUMP JUMPDEST PUSH1 0xC DUP2 DUP2 SLOAD DUP2 LT PUSH2 0x17F JUMPI PUSH0 DUP1 REVERT JUMPDEST SWAP1 PUSH0 MSTORE PUSH1 0x20 PUSH0 KECCAK256 ADD PUSH0 SWAP2 POP SWAP1 POP SLOAD DUP2 JUMP JUMPDEST PUSH2 0x226 DUP2 PUSH1 0x40 MLOAD PUSH1 0x24 ADD PUSH2 0x1A4 SWAP2 SWAP1 PUSH2 0x2E8 JUMP JUMPDEST PUSH1 0x40 MLOAD PUSH1 0x20 DUP2 DUP4 SUB SUB DUP2 MSTORE SWAP1 PUSH1 0x40 MSTORE PUSH32 0xF82C50F100000000000000000000000000000000000000000000000000000000 PUSH28 0xFFFFFFFFFFFFFFFFFFFFFFFFFFFFFFFFFFFFFFFFFFFFFFFFFFFFFFFF NOT AND PUSH1 0x20 DUP3 ADD DUP1 MLOAD PUSH28 0xFFFFFFFFFFFFFFFFFFFFFFFFFFFFFFFFFFFFFFFFFFFFFFFFFFFFFFFF DUP4 DUP2 DUP4 AND OR DUP4 MSTORE POP POP POP POP PUSH2 0x229 JUMP JUMPDEST POP JUMP JUMPDEST PUSH2 0x240 DUP2 PUSH2 0x238 PUSH2 0x243 PUSH2 0x262 JUMP JUMPDEST PUSH4 0xFFFFFFFF AND JUMP JUMPDEST POP JUMP JUMPDEST PUSH0 PUSH11 0x636F6E736F6C652E6C6F67 SWAP1 POP PUSH0 DUP1 DUP4 MLOAD PUSH1 0x20 DUP6 ADD DUP5 GAS STATICCALL POP POP POP JUMP JUMPDEST PUSH2 0x26D DUP2 SWAP1 POP SWAP2 SWAP1 POP JUMP JUMPDEST PUSH2 0x275 PUSH2 0x32E JUMP JUMPDEST JUMP JUMPDEST PUSH0 DUP1 REVERT JUMPDEST PUSH0 DUP2 SWAP1 POP SWAP2 SWAP1 POP JUMP JUMPDEST PUSH2 0x28D DUP2 PUSH2 0x27B JUMP JUMPDEST DUP2 EQ PUSH2 0x297 JUMPI PUSH0 DUP1 REVERT JUMPDEST POP JUMP JUMPDEST PUSH0 DUP2 CALLDATALOAD SWAP1 POP PUSH2 0x2A8 DUP2 PUSH2 0x284 JUMP JUMPDEST SWAP3 SWAP2 POP POP JUMP JUMPDEST PUSH0 PUSH1 0x20 DUP3 DUP5 SUB SLT ISZERO PUSH2 0x2C3 JUMPI PUSH2 0x2C2 PUSH2 0x277 JUMP JUMPDEST JUMPDEST PUSH0 PUSH2 0x2D0 DUP5 DUP3 DUP6 ADD PUSH2 0x29A JUMP JUMPDEST SWAP2 POP POP SWAP3 SWAP2 POP POP JUMP JUMPDEST PUSH2 0x2E2 DUP2 PUSH2 0x27B JUMP JUMPDEST DUP3 MSTORE POP POP JUMP JUMPDEST PUSH0 PUSH1 0x20 DUP3 ADD SWAP1 POP PUSH2 0x2FB PUSH0 DUP4 ADD DUP5 PUSH2 0x2D9 JUMP JUMPDEST SWAP3 SWAP2 POP POP JUMP JUMPDEST PUSH32 0x4E487B7100000000000000000000000000000000000000000000000000000000 PUSH0 MSTORE PUSH1 0x32 PUSH1 0x4 MSTORE PUSH1 0x24 PUSH0 REVERT JUMPDEST PUSH32 0x4E487B7100000000000000000000000000000000000000000000000000000000 PUSH0 MSTORE PUSH1 0x51 PUSH1 0x4 MSTORE PUSH1 0x24 PUSH0 REVERT INVALID LOG2 PUSH5 0x6970667358 0x22 SLT KECCAK256 BALANCE 0xEC 0xC5 0xC7 0x4E EXTCODESIZE 0xC9 SWAP5 SELFBALANCE 0xAD 0xCF 0x22 CODECOPY SHL SWAP1 0xD7 0xE PUSH9 0xCB80FEADDD9EF14BFD GASLIMIT 0xDF SWAP2 SWAP16 ISZERO PUSH5 0x736F6C6343 STOP ADDMOD BYTE STOP CALLER "
		},
		"gasEstimates": {
			"creation": {
				"codeDepositCost": "182600",
				"executionCost": "infinite",
				"totalCost": "infinite"
			},
			"external": {
				"arr2(uint256)": "infinite",
				"show()": "infinite"
			}
		},
		"methodIdentifiers": {
			"arr2(uint256)": "edf0099b",
			"show()": "cc80f6f3"
		}
	},
	"abi": [
		{
			"inputs": [
				{
					"internalType": "uint256",
					"name": "",
					"type": "uint256"
				}
			],
			"name": "arr2",
			"outputs": [
				{
					"internalType": "uint256",
					"name": "",
					"type": "uint256"
				}
			],
			"stateMutability": "view",
			"type": "function"
		},
		{
			"inputs": [],
			"name": "show",
			"outputs": [],
			"stateMutability": "nonpayable",
			"type": "function"
		}
	]
}