{
	"data": {
		"bytecode": {
			"linkReferences": {},
			"object": "60806040526040518060400160405280600381526020017f1234560000000000000000000000000000000000000000000000000000000000815250600190816100489190610294565b50348015610054575f80fd5b50610363565b5f81519050919050565b7f4e487b71000000000000000000000000000000000000000000000000000000005f52604160045260245ffd5b7f4e487b71000000000000000000000000000000000000000000000000000000005f52602260045260245ffd5b5f60028204905060018216806100d557607f821691505b6020821081036100e8576100e7610091565b5b50919050565b5f819050815f5260205f209050919050565b5f6020601f8301049050919050565b5f82821b905092915050565b5f6008830261014a7fffffffffffffffffffffffffffffffffffffffffffffffffffffffffffffffff8261010f565b610154868361010f565b95508019841693508086168417925050509392505050565b5f819050919050565b5f819050919050565b5f61019861019361018e8461016c565b610175565b61016c565b9050919050565b5f819050919050565b6101b18361017e565b6101c56101bd8261019f565b84845461011b565b825550505050565b5f90565b6101d96101cd565b6101e48184846101a8565b505050565b5b81811015610207576101fc5f826101d1565b6001810190506101ea565b5050565b601f82111561024c5761021d816100ee565b61022684610100565b81016020851015610235578190505b61024961024185610100565b8301826101e9565b50505b505050565b5f82821c905092915050565b5f61026c5f1984600802610251565b1980831691505092915050565b5f610284838361025d565b9150826002028217905092915050565b61029d8261005a565b67ffffffffffffffff8111156102b6576102b5610064565b5b6102c082546100be565b6102cb82828561020b565b5f60209050601f8311600181146102fc575f84156102ea578287015190505b6102f48582610279565b86555061035b565b601f19841661030a866100ee565b5f5b828110156103315784890151825560018201915060208501945060208101905061030c565b8683101561034e578489015161034a601f89168261025d565b8355505b6001600288020188555050505b505050505050565b610608806103705f395ff3fe608060405234801561000f575f80fd5b5060043610610029575f3560e01c8063cc80f6f31461002d575b5f80fd5b610035610037565b005b61004e6001805461004790610487565b90506102da565b60016012908080548061006090610487565b80601f810361007d57835f5260205f2060ff1984168155603f9350505b506002820183556001810192505050600190038154600116156100ad57905f5260205f2090602091828204019190065b909160f81b90919091601f036101000a81548160ff021916907f010000000000000000000000000000000000000000000000000000000000000084040217905550610105600180546100fe90610487565b90506102da565b6101955f805461011490610487565b80601f016020809104026020016040519081016040528092919081815260200182805461014090610487565b801561018b5780601f106101625761010080835404028352916020019161018b565b820191905f5260205f20905b81548152906001019060200180831161016e57829003601f168201915b5050505050610373565b60018054806101a390610487565b806101d5577f4e487b71000000000000000000000000000000000000000000000000000000005f52603160045260245ffd5b601f81115f81146101ed576001811461020f5761026c565b6001826021036101000a0360018303925060028302848219161793505061026c565b835f5260205f20826020811461025557601f6001850316602060018603048301925082546001826020036101000a03818119169150818555600288039750505050610269565b81545f835560ff1981169050603e81179550505b50505b5081835550505061028a6001805461028390610487565b90506102da565b606060015f815461029a90610487565b81106102a9576102a86104b7565b5b8154600116156102c657905f5260205f2090602091828204019190065b601f036101000a81549060ff021916905550565b610370816040516024016102ee91906104fc565b6040516020818303038152906040527ff82c50f1000000000000000000000000000000000000000000000000000000007bffffffffffffffffffffffffffffffffffffffffffffffffffffffff19166020820180517bffffffffffffffffffffffffffffffffffffffffffffffffffffffff838183161783525050505061040c565b50565b610409816040516024016103879190610585565b6040516020818303038152906040527f0be77f56000000000000000000000000000000000000000000000000000000007bffffffffffffffffffffffffffffffffffffffffffffffffffffffff19166020820180517bffffffffffffffffffffffffffffffffffffffffffffffffffffffff838183161783525050505061040c565b50565b6104238161041b610426610445565b63ffffffff16565b50565b5f6a636f6e736f6c652e6c6f6790505f80835160208501845afa505050565b610450819050919050565b6104586105a5565b565b7f4e487b71000000000000000000000000000000000000000000000000000000005f52602260045260245ffd5b5f600282049050600182168061049e57607f821691505b6020821081036104b1576104b061045a565b5b50919050565b7f4e487b71000000000000000000000000000000000000000000000000000000005f52603260045260245ffd5b5f819050919050565b6104f6816104e4565b82525050565b5f60208201905061050f5f8301846104ed565b92915050565b5f81519050919050565b5f82825260208201905092915050565b8281835e5f83830152505050565b5f601f19601f8301169050919050565b5f61055782610515565b610561818561051f565b935061057181856020860161052f565b61057a8161053d565b840191505092915050565b5f6020820190508181035f83015261059d818461054d565b905092915050565b7f4e487b71000000000000000000000000000000000000000000000000000000005f52605160045260245ffdfea26469706673582212200b94d3867a74c44f00f9781bd0b4882ec34d5b37b67d9de9eb68dde1c44d43b664736f6c634300081a0033",
			"opcodes": "PUSH1 0x80 PUSH1 0x40 MSTORE PUSH1 0x40 MLOAD DUP1 PUSH1 0x40 ADD PUSH1 0x40 MSTORE DUP1 PUSH1 0x3 DUP2 MSTORE PUSH1 0x20 ADD PUSH32 0x1234560000000000000000000000000000000000000000000000000000000000 DUP2 MSTORE POP PUSH1 0x1 SWAP1 DUP2 PUSH2 0x48 SWAP2 SWAP1 PUSH2 0x294 JUMP JUMPDEST POP CALLVALUE DUP1 ISZERO PUSH2 0x54 JUMPI PUSH0 DUP1 REVERT JUMPDEST POP PUSH2 0x363 JUMP JUMPDEST PUSH0 DUP2 MLOAD SWAP1 POP SWAP2 SWAP1 POP JUMP JUMPDEST PUSH32 0x4E487B7100000000000000000000000000000000000000000000000000000000 PUSH0 MSTORE PUSH1 0x41 PUSH1 0x4 MSTORE PUSH1 0x24 PUSH0 REVERT JUMPDEST PUSH32 0x4E487B7100000000000000000000000000000000000000000000000000000000 PUSH0 MSTORE PUSH1 0x22 PUSH1 0x4 MSTORE PUSH1 0x24 PUSH0 REVERT JUMPDEST PUSH0 PUSH1 0x2 DUP3 DIV SWAP1 POP PUSH1 0x1 DUP3 AND DUP1 PUSH2 0xD5 JUMPI PUSH1 0x7F DUP3 AND SWAP2 POP JUMPDEST PUSH1 0x20 DUP3 LT DUP2 SUB PUSH2 0xE8 JUMPI PUSH2 0xE7 PUSH2 0x91 JUMP JUMPDEST JUMPDEST POP SWAP2 SWAP1 POP JUMP JUMPDEST PUSH0 DUP2 SWAP1 POP DUP2 PUSH0 MSTORE PUSH1 0x20 PUSH0 KECCAK256 SWAP1 POP SWAP2 SWAP1 POP JUMP JUMPDEST PUSH0 PUSH1 0x20 PUSH1 0x1F DUP4 ADD DIV SWAP1 POP SWAP2 SWAP1 POP JUMP JUMPDEST PUSH0 DUP3 DUP3 SHL SWAP1 POP SWAP3 SWAP2 POP POP JUMP JUMPDEST PUSH0 PUSH1 0x8 DUP4 MUL PUSH2 0x14A PUSH32 0xFFFFFFFFFFFFFFFFFFFFFFFFFFFFFFFFFFFFFFFFFFFFFFFFFFFFFFFFFFFFFFFF DUP3 PUSH2 0x10F JUMP JUMPDEST PUSH2 0x154 DUP7 DUP4 PUSH2 0x10F JUMP JUMPDEST SWAP6 POP DUP1 NOT DUP5 AND SWAP4 POP DUP1 DUP7 AND DUP5 OR SWAP3 POP POP POP SWAP4 SWAP3 POP POP POP JUMP JUMPDEST PUSH0 DUP2 SWAP1 POP SWAP2 SWAP1 POP JUMP JUMPDEST PUSH0 DUP2 SWAP1 POP SWAP2 SWAP1 POP JUMP JUMPDEST PUSH0 PUSH2 0x198 PUSH2 0x193 PUSH2 0x18E DUP5 PUSH2 0x16C JUMP JUMPDEST PUSH2 0x175 JUMP JUMPDEST PUSH2 0x16C JUMP JUMPDEST SWAP1 POP SWAP2 SWAP1 POP JUMP JUMPDEST PUSH0 DUP2 SWAP1 POP SWAP2 SWAP1 POP JUMP JUMPDEST PUSH2 0x1B1 DUP4 PUSH2 0x17E JUMP JUMPDEST PUSH2 0x1C5 PUSH2 0x1BD DUP3 PUSH2 0x19F JUMP JUMPDEST DUP5 DUP5 SLOAD PUSH2 0x11B JUMP JUMPDEST DUP3 SSTORE POP POP POP POP JUMP JUMPDEST PUSH0 SWAP1 JUMP JUMPDEST PUSH2 0x1D9 PUSH2 0x1CD JUMP JUMPDEST PUSH2 0x1E4 DUP2 DUP5 DUP5 PUSH2 0x1A8 JUMP JUMPDEST POP POP POP JUMP JUMPDEST JUMPDEST DUP2 DUP2 LT ISZERO PUSH2 0x207 JUMPI PUSH2 0x1FC PUSH0 DUP3 PUSH2 0x1D1 JUMP JUMPDEST PUSH1 0x1 DUP2 ADD SWAP1 POP PUSH2 0x1EA JUMP JUMPDEST POP POP JUMP JUMPDEST PUSH1 0x1F DUP3 GT ISZERO PUSH2 0x24C JUMPI PUSH2 0x21D DUP2 PUSH2 0xEE JUMP JUMPDEST PUSH2 0x226 DUP5 PUSH2 0x100 JUMP JUMPDEST DUP2 ADD PUSH1 0x20 DUP6 LT ISZERO PUSH2 0x235 JUMPI DUP2 SWAP1 POP JUMPDEST PUSH2 0x249 PUSH2 0x241 DUP6 PUSH2 0x100 JUMP JUMPDEST DUP4 ADD DUP3 PUSH2 0x1E9 JUMP JUMPDEST POP POP JUMPDEST POP POP POP JUMP JUMPDEST PUSH0 DUP3 DUP3 SHR SWAP1 POP SWAP3 SWAP2 POP POP JUMP JUMPDEST PUSH0 PUSH2 0x26C PUSH0 NOT DUP5 PUSH1 0x8 MUL PUSH2 0x251 JUMP JUMPDEST NOT DUP1 DUP4 AND SWAP2 POP POP SWAP3 SWAP2 POP POP JUMP JUMPDEST PUSH0 PUSH2 0x284 DUP4 DUP4 PUSH2 0x25D JUMP JUMPDEST SWAP2 POP DUP3 PUSH1 0x2 MUL DUP3 OR SWAP1 POP SWAP3 SWAP2 POP POP JUMP JUMPDEST PUSH2 0x29D DUP3 PUSH2 0x5A JUMP JUMPDEST PUSH8 0xFFFFFFFFFFFFFFFF DUP2 GT ISZERO PUSH2 0x2B6 JUMPI PUSH2 0x2B5 PUSH2 0x64 JUMP JUMPDEST JUMPDEST PUSH2 0x2C0 DUP3 SLOAD PUSH2 0xBE JUMP JUMPDEST PUSH2 0x2CB DUP3 DUP3 DUP6 PUSH2 0x20B JUMP JUMPDEST PUSH0 PUSH1 0x20 SWAP1 POP PUSH1 0x1F DUP4 GT PUSH1 0x1 DUP2 EQ PUSH2 0x2FC JUMPI PUSH0 DUP5 ISZERO PUSH2 0x2EA JUMPI DUP3 DUP8 ADD MLOAD SWAP1 POP JUMPDEST PUSH2 0x2F4 DUP6 DUP3 PUSH2 0x279 JUMP JUMPDEST DUP7 SSTORE POP PUSH2 0x35B JUMP JUMPDEST PUSH1 0x1F NOT DUP5 AND PUSH2 0x30A DUP7 PUSH2 0xEE JUMP JUMPDEST PUSH0 JUMPDEST DUP3 DUP2 LT ISZERO PUSH2 0x331 JUMPI DUP5 DUP10 ADD MLOAD DUP3 SSTORE PUSH1 0x1 DUP3 ADD SWAP2 POP PUSH1 0x20 DUP6 ADD SWAP5 POP PUSH1 0x20 DUP2 ADD SWAP1 POP PUSH2 0x30C JUMP JUMPDEST DUP7 DUP4 LT ISZERO PUSH2 0x34E JUMPI DUP5 DUP10 ADD MLOAD PUSH2 0x34A PUSH1 0x1F DUP10 AND DUP3 PUSH2 0x25D JUMP JUMPDEST DUP4 SSTORE POP JUMPDEST PUSH1 0x1 PUSH1 0x2 DUP9 MUL ADD DUP9 SSTORE POP POP POP JUMPDEST POP POP POP POP POP POP JUMP JUMPDEST PUSH2 0x608 DUP1 PUSH2 0x370 PUSH0 CODECOPY PUSH0 RETURN INVALID PUSH1 0x80 PUSH1 0x40 MSTORE CALLVALUE DUP1 ISZERO PUSH2 0xF JUMPI PUSH0 DUP1 REVERT JUMPDEST POP PUSH1 0x4 CALLDATASIZE LT PUSH2 0x29 JUMPI PUSH0 CALLDATALOAD PUSH1 0xE0 SHR DUP1 PUSH4 0xCC80F6F3 EQ PUSH2 0x2D JUMPI JUMPDEST PUSH0 DUP1 REVERT JUMPDEST PUSH2 0x35 PUSH2 0x37 JUMP JUMPDEST STOP JUMPDEST PUSH2 0x4E PUSH1 0x1 DUP1 SLOAD PUSH2 0x47 SWAP1 PUSH2 0x487 JUMP JUMPDEST SWAP1 POP PUSH2 0x2DA JUMP JUMPDEST PUSH1 0x1 PUSH1 0x12 SWAP1 DUP1 DUP1 SLOAD DUP1 PUSH2 0x60 SWAP1 PUSH2 0x487 JUMP JUMPDEST DUP1 PUSH1 0x1F DUP2 SUB PUSH2 0x7D JUMPI DUP4 PUSH0 MSTORE PUSH1 0x20 PUSH0 KECCAK256 PUSH1 0xFF NOT DUP5 AND DUP2 SSTORE PUSH1 0x3F SWAP4 POP POP JUMPDEST POP PUSH1 0x2 DUP3 ADD DUP4 SSTORE PUSH1 0x1 DUP2 ADD SWAP3 POP POP POP PUSH1 0x1 SWAP1 SUB DUP2 SLOAD PUSH1 0x1 AND ISZERO PUSH2 0xAD JUMPI SWAP1 PUSH0 MSTORE PUSH1 0x20 PUSH0 KECCAK256 SWAP1 PUSH1 0x20 SWAP2 DUP3 DUP3 DIV ADD SWAP2 SWAP1 MOD JUMPDEST SWAP1 SWAP2 PUSH1 0xF8 SHL SWAP1 SWAP2 SWAP1 SWAP2 PUSH1 0x1F SUB PUSH2 0x100 EXP DUP2 SLOAD DUP2 PUSH1 0xFF MUL NOT AND SWAP1 PUSH32 0x100000000000000000000000000000000000000000000000000000000000000 DUP5 DIV MUL OR SWAP1 SSTORE POP PUSH2 0x105 PUSH1 0x1 DUP1 SLOAD PUSH2 0xFE SWAP1 PUSH2 0x487 JUMP JUMPDEST SWAP1 POP PUSH2 0x2DA JUMP JUMPDEST PUSH2 0x195 PUSH0 DUP1 SLOAD PUSH2 0x114 SWAP1 PUSH2 0x487 JUMP JUMPDEST DUP1 PUSH1 0x1F ADD PUSH1 0x20 DUP1 SWAP2 DIV MUL PUSH1 0x20 ADD PUSH1 0x40 MLOAD SWAP1 DUP2 ADD PUSH1 0x40 MSTORE DUP1 SWAP3 SWAP2 SWAP1 DUP2 DUP2 MSTORE PUSH1 0x20 ADD DUP3 DUP1 SLOAD PUSH2 0x140 SWAP1 PUSH2 0x487 JUMP JUMPDEST DUP1 ISZERO PUSH2 0x18B JUMPI DUP1 PUSH1 0x1F LT PUSH2 0x162 JUMPI PUSH2 0x100 DUP1 DUP4 SLOAD DIV MUL DUP4 MSTORE SWAP2 PUSH1 0x20 ADD SWAP2 PUSH2 0x18B JUMP JUMPDEST DUP3 ADD SWAP2 SWAP1 PUSH0 MSTORE PUSH1 0x20 PUSH0 KECCAK256 SWAP1 JUMPDEST DUP2 SLOAD DUP2 MSTORE SWAP1 PUSH1 0x1 ADD SWAP1 PUSH1 0x20 ADD DUP1 DUP4 GT PUSH2 0x16E JUMPI DUP3 SWAP1 SUB PUSH1 0x1F AND DUP3 ADD SWAP2 JUMPDEST POP POP POP POP POP PUSH2 0x373 JUMP JUMPDEST PUSH1 0x1 DUP1 SLOAD DUP1 PUSH2 0x1A3 SWAP1 PUSH2 0x487 JUMP JUMPDEST DUP1 PUSH2 0x1D5 JUMPI PUSH32 0x4E487B7100000000000000000000000000000000000000000000000000000000 PUSH0 MSTORE PUSH1 0x31 PUSH1 0x4 MSTORE PUSH1 0x24 PUSH0 REVERT JUMPDEST PUSH1 0x1F DUP2 GT PUSH0 DUP2 EQ PUSH2 0x1ED JUMPI PUSH1 0x1 DUP2 EQ PUSH2 0x20F JUMPI PUSH2 0x26C JUMP JUMPDEST PUSH1 0x1 DUP3 PUSH1 0x21 SUB PUSH2 0x100 EXP SUB PUSH1 0x1 DUP4 SUB SWAP3 POP PUSH1 0x2 DUP4 MUL DUP5 DUP3 NOT AND OR SWAP4 POP POP PUSH2 0x26C JUMP JUMPDEST DUP4 PUSH0 MSTORE PUSH1 0x20 PUSH0 KECCAK256 DUP3 PUSH1 0x20 DUP2 EQ PUSH2 0x255 JUMPI PUSH1 0x1F PUSH1 0x1 DUP6 SUB AND PUSH1 0x20 PUSH1 0x1 DUP7 SUB DIV DUP4 ADD SWAP3 POP DUP3 SLOAD PUSH1 0x1 DUP3 PUSH1 0x20 SUB PUSH2 0x100 EXP SUB DUP2 DUP2 NOT AND SWAP2 POP DUP2 DUP6 SSTORE PUSH1 0x2 DUP9 SUB SWAP8 POP POP POP POP PUSH2 0x269 JUMP JUMPDEST DUP2 SLOAD PUSH0 DUP4 SSTORE PUSH1 0xFF NOT DUP2 AND SWAP1 POP PUSH1 0x3E DUP2 OR SWAP6 POP POP JUMPDEST POP POP JUMPDEST POP DUP2 DUP4 SSTORE POP POP POP PUSH2 0x28A PUSH1 0x1 DUP1 SLOAD PUSH2 0x283 SWAP1 PUSH2 0x487 JUMP JUMPDEST SWAP1 POP PUSH2 0x2DA JUMP JUMPDEST PUSH1 0x60 PUSH1 0x1 PUSH0 DUP2 SLOAD PUSH2 0x29A SWAP1 PUSH2 0x487 JUMP JUMPDEST DUP2 LT PUSH2 0x2A9 JUMPI PUSH2 0x2A8 PUSH2 0x4B7 JUMP JUMPDEST JUMPDEST DUP2 SLOAD PUSH1 0x1 AND ISZERO PUSH2 0x2C6 JUMPI SWAP1 PUSH0 MSTORE PUSH1 0x20 PUSH0 KECCAK256 SWAP1 PUSH1 0x20 SWAP2 DUP3 DUP3 DIV ADD SWAP2 SWAP1 MOD JUMPDEST PUSH1 0x1F SUB PUSH2 0x100 EXP DUP2 SLOAD SWAP1 PUSH1 0xFF MUL NOT AND SWAP1 SSTORE POP JUMP JUMPDEST PUSH2 0x370 DUP2 PUSH1 0x40 MLOAD PUSH1 0x24 ADD PUSH2 0x2EE SWAP2 SWAP1 PUSH2 0x4FC JUMP JUMPDEST PUSH1 0x40 MLOAD PUSH1 0x20 DUP2 DUP4 SUB SUB DUP2 MSTORE SWAP1 PUSH1 0x40 MSTORE PUSH32 0xF82C50F100000000000000000000000000000000000000000000000000000000 PUSH28 0xFFFFFFFFFFFFFFFFFFFFFFFFFFFFFFFFFFFFFFFFFFFFFFFFFFFFFFFF NOT AND PUSH1 0x20 DUP3 ADD DUP1 MLOAD PUSH28 0xFFFFFFFFFFFFFFFFFFFFFFFFFFFFFFFFFFFFFFFFFFFFFFFFFFFFFFFF DUP4 DUP2 DUP4 AND OR DUP4 MSTORE POP POP POP POP PUSH2 0x40C JUMP JUMPDEST POP JUMP JUMPDEST PUSH2 0x409 DUP2 PUSH1 0x40 MLOAD PUSH1 0x24 ADD PUSH2 0x387 SWAP2 SWAP1 PUSH2 0x585 JUMP JUMPDEST PUSH1 0x40 MLOAD PUSH1 0x20 DUP2 DUP4 SUB SUB DUP2 MSTORE SWAP1 PUSH1 0x40 MSTORE PUSH32 0xBE77F5600000000000000000000000000000000000000000000000000000000 PUSH28 0xFFFFFFFFFFFFFFFFFFFFFFFFFFFFFFFFFFFFFFFFFFFFFFFFFFFFFFFF NOT AND PUSH1 0x20 DUP3 ADD DUP1 MLOAD PUSH28 0xFFFFFFFFFFFFFFFFFFFFFFFFFFFFFFFFFFFFFFFFFFFFFFFFFFFFFFFF DUP4 DUP2 DUP4 AND OR DUP4 MSTORE POP POP POP POP PUSH2 0x40C JUMP JUMPDEST POP JUMP JUMPDEST PUSH2 0x423 DUP2 PUSH2 0x41B PUSH2 0x426 PUSH2 0x445 JUMP JUMPDEST PUSH4 0xFFFFFFFF AND JUMP JUMPDEST POP JUMP JUMPDEST PUSH0 PUSH11 0x636F6E736F6C652E6C6F67 SWAP1 POP PUSH0 DUP1 DUP4 MLOAD PUSH1 0x20 DUP6 ADD DUP5 GAS STATICCALL POP POP POP JUMP JUMPDEST PUSH2 0x450 DUP2 SWAP1 POP SWAP2 SWAP1 POP JUMP JUMPDEST PUSH2 0x458 PUSH2 0x5A5 JUMP JUMPDEST JUMP JUMPDEST PUSH32 0x4E487B7100000000000000000000000000000000000000000000000000000000 PUSH0 MSTORE PUSH1 0x22 PUSH1 0x4 MSTORE PUSH1 0x24 PUSH0 REVERT JUMPDEST PUSH0 PUSH1 0x2 DUP3 DIV SWAP1 POP PUSH1 0x1 DUP3 AND DUP1 PUSH2 0x49E JUMPI PUSH1 0x7F DUP3 AND SWAP2 POP JUMPDEST PUSH1 0x20 DUP3 LT DUP2 SUB PUSH2 0x4B1 JUMPI PUSH2 0x4B0 PUSH2 0x45A JUMP JUMPDEST JUMPDEST POP SWAP2 SWAP1 POP JUMP JUMPDEST PUSH32 0x4E487B7100000000000000000000000000000000000000000000000000000000 PUSH0 MSTORE PUSH1 0x32 PUSH1 0x4 MSTORE PUSH1 0x24 PUSH0 REVERT JUMPDEST PUSH0 DUP2 SWAP1 POP SWAP2 SWAP1 POP JUMP JUMPDEST PUSH2 0x4F6 DUP2 PUSH2 0x4E4 JUMP JUMPDEST DUP3 MSTORE POP POP JUMP JUMPDEST PUSH0 PUSH1 0x20 DUP3 ADD SWAP1 POP PUSH2 0x50F PUSH0 DUP4 ADD DUP5 PUSH2 0x4ED JUMP JUMPDEST SWAP3 SWAP2 POP POP JUMP JUMPDEST PUSH0 DUP2 MLOAD SWAP1 POP SWAP2 SWAP1 POP JUMP JUMPDEST PUSH0 DUP3 DUP3 MSTORE PUSH1 0x20 DUP3 ADD SWAP1 POP SWAP3 SWAP2 POP POP JUMP JUMPDEST DUP3 DUP2 DUP4 MCOPY PUSH0 DUP4 DUP4 ADD MSTORE POP POP POP JUMP JUMPDEST PUSH0 PUSH1 0x1F NOT PUSH1 0x1F DUP4 ADD AND SWAP1 POP SWAP2 SWAP1 POP JUMP JUMPDEST PUSH0 PUSH2 0x557 DUP3 PUSH2 0x515 JUMP JUMPDEST PUSH2 0x561 DUP2 DUP6 PUSH2 0x51F JUMP JUMPDEST SWAP4 POP PUSH2 0x571 DUP2 DUP6 PUSH1 0x20 DUP7 ADD PUSH2 0x52F JUMP JUMPDEST PUSH2 0x57A DUP2 PUSH2 0x53D JUMP JUMPDEST DUP5 ADD SWAP2 POP POP SWAP3 SWAP2 POP POP JUMP JUMPDEST PUSH0 PUSH1 0x20 DUP3 ADD SWAP1 POP DUP2 DUP2 SUB PUSH0 DUP4 ADD MSTORE PUSH2 0x59D DUP2 DUP5 PUSH2 0x54D JUMP JUMPDEST SWAP1 POP SWAP3 SWAP2 POP POP JUMP JUMPDEST PUSH32 0x4E487B7100000000000000000000000000000000000000000000000000000000 PUSH0 MSTORE PUSH1 0x51 PUSH1 0x4 MSTORE PUSH1 0x24 PUSH0 REVERT INVALID LOG2 PUSH5 0x6970667358 0x22 SLT KECCAK256 SIGNEXTEND SWAP5 0xD3 DUP7 PUSH27 0x74C44F00F9781BD0B4882EC34D5B37B67D9DE9EB68DDE1C44D43B6 PUSH5 0x736F6C6343 STOP ADDMOD BYTE STOP CALLER "
		},
		"gasEstimates": {
			"creation": {
				"codeDepositCost": "308800",
				"executionCost": "infinite",
				"totalCost": "infinite"
			},
			"external": {
				"show()": "infinite"
			}
		},
		"methodIdentifiers": {
			"show()": "cc80f6f3"
		}
	},
	"abi": [
		{
			"inputs": [],
			"name": "show",
			"outputs": [],
			"stateMutability": "nonpayable",
			"type": "function"
		}
	]
}