{
	"data": {
		"bytecode": {
			"linkReferences": {},
			"object": "60806040526040516102fa3803806102fa833981810160405281019061002591906100c9565b8060015f6101000a81548173ffffffffffffffffffffffffffffffffffffffff021916908373ffffffffffffffffffffffffffffffffffffffff160217905550506100f4565b5f80fd5b5f73ffffffffffffffffffffffffffffffffffffffff82169050919050565b5f6100988261006f565b9050919050565b6100a88161008e565b81146100b2575f80fd5b50565b5f815190506100c38161009f565b92915050565b5f602082840312156100de576100dd61006b565b5b5f6100eb848285016100b5565b91505092915050565b6101f9806101015f395ff3fe60806040526004361061002c575f3560e01c80638a4068dd14610037578063b46300ec1461004d57610033565b3661003357005b5f80fd5b348015610042575f80fd5b5061004b610063565b005b348015610058575f80fd5b506100616100cb565b005b60015f9054906101000a900473ffffffffffffffffffffffffffffffffffffffff1673ffffffffffffffffffffffffffffffffffffffff166108fc60c890811502906040515f60405180830381858888f193505050501580156100c8573d5f803e3d5ffd5b50565b5f60015f9054906101000a900473ffffffffffffffffffffffffffffffffffffffff1673ffffffffffffffffffffffffffffffffffffffff166108fc60c890811502906040515f60405180830381858888f1935050505090505f808154809291906101359061017c565b919050555080610143575f80fd5b50565b7f4e487b71000000000000000000000000000000000000000000000000000000005f52601160045260245ffd5b5f819050919050565b5f61018682610173565b91507fffffffffffffffffffffffffffffffffffffffffffffffffffffffffffffffff82036101b8576101b7610146565b5b60018201905091905056fea26469706673582212203af49dafe81d1022fd19fd64baa1212c57df824e7f564279da2371b8bc60708964736f6c634300081a0033",
			"opcodes": "PUSH1 0x80 PUSH1 0x40 MSTORE PUSH1 0x40 MLOAD PUSH2 0x2FA CODESIZE SUB DUP1 PUSH2 0x2FA DUP4 CODECOPY DUP2 DUP2 ADD PUSH1 0x40 MSTORE DUP2 ADD SWAP1 PUSH2 0x25 SWAP2 SWAP1 PUSH2 0xC9 JUMP JUMPDEST DUP1 PUSH1 0x1 PUSH0 PUSH2 0x100 EXP DUP2 SLOAD DUP2 PUSH20 0xFFFFFFFFFFFFFFFFFFFFFFFFFFFFFFFFFFFFFFFF MUL NOT AND SWAP1 DUP4 PUSH20 0xFFFFFFFFFFFFFFFFFFFFFFFFFFFFFFFFFFFFFFFF AND MUL OR SWAP1 SSTORE POP POP PUSH2 0xF4 JUMP JUMPDEST PUSH0 DUP1 REVERT JUMPDEST PUSH0 PUSH20 0xFFFFFFFFFFFFFFFFFFFFFFFFFFFFFFFFFFFFFFFF DUP3 AND SWAP1 POP SWAP2 SWAP1 POP JUMP JUMPDEST PUSH0 PUSH2 0x98 DUP3 PUSH2 0x6F JUMP JUMPDEST SWAP1 POP SWAP2 SWAP1 POP JUMP JUMPDEST PUSH2 0xA8 DUP2 PUSH2 0x8E JUMP JUMPDEST DUP2 EQ PUSH2 0xB2 JUMPI PUSH0 DUP1 REVERT JUMPDEST POP JUMP JUMPDEST PUSH0 DUP2 MLOAD SWAP1 POP PUSH2 0xC3 DUP2 PUSH2 0x9F JUMP JUMPDEST SWAP3 SWAP2 POP POP JUMP JUMPDEST PUSH0 PUSH1 0x20 DUP3 DUP5 SUB SLT ISZERO PUSH2 0xDE JUMPI PUSH2 0xDD PUSH2 0x6B JUMP JUMPDEST JUMPDEST PUSH0 PUSH2 0xEB DUP5 DUP3 DUP6 ADD PUSH2 0xB5 JUMP JUMPDEST SWAP2 POP POP SWAP3 SWAP2 POP POP JUMP JUMPDEST PUSH2 0x1F9 DUP1 PUSH2 0x101 PUSH0 CODECOPY PUSH0 RETURN INVALID PUSH1 0x80 PUSH1 0x40 MSTORE PUSH1 0x4 CALLDATASIZE LT PUSH2 0x2C JUMPI PUSH0 CALLDATALOAD PUSH1 0xE0 SHR DUP1 PUSH4 0x8A4068DD EQ PUSH2 0x37 JUMPI DUP1 PUSH4 0xB46300EC EQ PUSH2 0x4D JUMPI PUSH2 0x33 JUMP JUMPDEST CALLDATASIZE PUSH2 0x33 JUMPI STOP JUMPDEST PUSH0 DUP1 REVERT JUMPDEST CALLVALUE DUP1 ISZERO PUSH2 0x42 JUMPI PUSH0 DUP1 REVERT JUMPDEST POP PUSH2 0x4B PUSH2 0x63 JUMP JUMPDEST STOP JUMPDEST CALLVALUE DUP1 ISZERO PUSH2 0x58 JUMPI PUSH0 DUP1 REVERT JUMPDEST POP PUSH2 0x61 PUSH2 0xCB JUMP JUMPDEST STOP JUMPDEST PUSH1 0x1 PUSH0 SWAP1 SLOAD SWAP1 PUSH2 0x100 EXP SWAP1 DIV PUSH20 0xFFFFFFFFFFFFFFFFFFFFFFFFFFFFFFFFFFFFFFFF AND PUSH20 0xFFFFFFFFFFFFFFFFFFFFFFFFFFFFFFFFFFFFFFFF AND PUSH2 0x8FC PUSH1 0xC8 SWAP1 DUP2 ISZERO MUL SWAP1 PUSH1 0x40 MLOAD PUSH0 PUSH1 0x40 MLOAD DUP1 DUP4 SUB DUP2 DUP6 DUP9 DUP9 CALL SWAP4 POP POP POP POP ISZERO DUP1 ISZERO PUSH2 0xC8 JUMPI RETURNDATASIZE PUSH0 DUP1 RETURNDATACOPY RETURNDATASIZE PUSH0 REVERT JUMPDEST POP JUMP JUMPDEST PUSH0 PUSH1 0x1 PUSH0 SWAP1 SLOAD SWAP1 PUSH2 0x100 EXP SWAP1 DIV PUSH20 0xFFFFFFFFFFFFFFFFFFFFFFFFFFFFFFFFFFFFFFFF AND PUSH20 0xFFFFFFFFFFFFFFFFFFFFFFFFFFFFFFFFFFFFFFFF AND PUSH2 0x8FC PUSH1 0xC8 SWAP1 DUP2 ISZERO MUL SWAP1 PUSH1 0x40 MLOAD PUSH0 PUSH1 0x40 MLOAD DUP1 DUP4 SUB DUP2 DUP6 DUP9 DUP9 CALL SWAP4 POP POP POP POP SWAP1 POP PUSH0 DUP1 DUP2 SLOAD DUP1 SWAP3 SWAP2 SWAP1 PUSH2 0x135 SWAP1 PUSH2 0x17C JUMP JUMPDEST SWAP2 SWAP1 POP SSTORE POP DUP1 PUSH2 0x143 JUMPI PUSH0 DUP1 REVERT JUMPDEST POP JUMP JUMPDEST PUSH32 0x4E487B7100000000000000000000000000000000000000000000000000000000 PUSH0 MSTORE PUSH1 0x11 PUSH1 0x4 MSTORE PUSH1 0x24 PUSH0 REVERT JUMPDEST PUSH0 DUP2 SWAP1 POP SWAP2 SWAP1 POP JUMP JUMPDEST PUSH0 PUSH2 0x186 DUP3 PUSH2 0x173 JUMP JUMPDEST SWAP2 POP PUSH32 0xFFFFFFFFFFFFFFFFFFFFFFFFFFFFFFFFFFFFFFFFFFFFFFFFFFFFFFFFFFFFFFFF DUP3 SUB PUSH2 0x1B8 JUMPI PUSH2 0x1B7 PUSH2 0x146 JUMP JUMPDEST JUMPDEST PUSH1 0x1 DUP3 ADD SWAP1 POP SWAP2 SWAP1 POP JUMP INVALID LOG2 PUSH5 0x6970667358 0x22 SLT KECCAK256 GASPRICE DELEGATECALL SWAP14 0xAF 0xE8 SAR LT 0x22 REVERT NOT REVERT PUSH5 0xBAA1212C57 0xDF DUP3 0x4E PUSH32 0x564279DA2371B8BC60708964736F6C634300081A003300000000000000000000 "
		},
		"gasEstimates": {
			"creation": {
				"codeDepositCost": "101000",
				"executionCost": "infinite",
				"totalCost": "infinite"
			},
			"external": {
				"send()": "infinite",
				"transfer()": "infinite"
			}
		},
		"methodIdentifiers": {
			"send()": "b46300ec",
			"transfer()": "8a4068dd"
		}
	},
	"abi": [
		{
			"inputs": [
				{
					"internalType": "address payable",
					"name": "to",
					"type": "address"
				}
			],
			"stateMutability": "payable",
			"type": "constructor"
		},
		{
			"inputs": [],
			"name": "send",
			"outputs": [],
			"stateMutability": "nonpayable",
			"type": "function"
		},
		{
			"inputs": [],
			"name": "transfer",
			"outputs": [],
			"stateMutability": "nonpayable",
			"type": "function"
		},
		{
			"stateMutability": "payable",
			"type": "receive"
		}
	]
}