{
	"data": {
		"bytecode": {
			"linkReferences": {},
			"object": "6080604052601260f81b5f806101000a81548160ff021916908360f81c021790555061123460f01b5f60016101000a81548161ffff021916908360f01c0217905550601260f01b5f60036101000a81548161ffff021916908360f01c0217905550348015606a575f80fd5b50610382806100785f395ff3fe608060405234801561000f575f80fd5b5060043610610029575f3560e01c8063cc80f6f31461002d575b5f80fd5b610035610037565b005b6100625f8054906101000a900460f81b5f600181106100595761005861026e565b5b1a60f81b6100ee565b61007c5f60019054906101000a905050600260ff16610187565b6100965f60039054906101000a905050600260ff16610187565b5f5b5f60019054906101000a905050600260ff168110156100eb576100de5f60039054906101000a900460f01b82600281106100d5576100d461026e565b5b1a60f81b6100ee565b8080600101915050610098565b50565b6101848160405160240161010291906102d5565b6040516020818303038152906040527f6e18a128000000000000000000000000000000000000000000000000000000007bffffffffffffffffffffffffffffffffffffffffffffffffffffffff19166020820180517bffffffffffffffffffffffffffffffffffffffffffffffffffffffff8381831617835250505050610220565b50565b61021d8160405160240161019b9190610306565b6040516020818303038152906040527ff82c50f1000000000000000000000000000000000000000000000000000000007bffffffffffffffffffffffffffffffffffffffffffffffffffffffff19166020820180517bffffffffffffffffffffffffffffffffffffffffffffffffffffffff8381831617835250505050610220565b50565b6102378161022f61023a610259565b63ffffffff16565b50565b5f6a636f6e736f6c652e6c6f6790505f80835160208501845afa505050565b610264819050919050565b61026c61031f565b565b7f4e487b71000000000000000000000000000000000000000000000000000000005f52603260045260245ffd5b5f7fff0000000000000000000000000000000000000000000000000000000000000082169050919050565b6102cf8161029b565b82525050565b5f6020820190506102e85f8301846102c6565b92915050565b5f819050919050565b610300816102ee565b82525050565b5f6020820190506103195f8301846102f7565b92915050565b7f4e487b71000000000000000000000000000000000000000000000000000000005f52605160045260245ffdfea2646970667358221220496c346200ba293b2e8d65366cb3a77f81ecb69b349be910e3dced81bd0c01aa64736f6c634300081a0033",
			"opcodes": "PUSH1 0x80 PUSH1 0x40 MSTORE PUSH1 0x12 PUSH1 0xF8 SHL PUSH0 DUP1 PUSH2 0x100 EXP DUP2 SLOAD DUP2 PUSH1 0xFF MUL NOT AND SWAP1 DUP4 PUSH1 0xF8 SHR MUL OR SWAP1 SSTORE POP PUSH2 0x1234 PUSH1 0xF0 SHL PUSH0 PUSH1 0x1 PUSH2 0x100 EXP DUP2 SLOAD DUP2 PUSH2 0xFFFF MUL NOT AND SWAP1 DUP4 PUSH1 0xF0 SHR MUL OR SWAP1 SSTORE POP PUSH1 0x12 PUSH1 0xF0 SHL PUSH0 PUSH1 0x3 PUSH2 0x100 EXP DUP2 SLOAD DUP2 PUSH2 0xFFFF MUL NOT AND SWAP1 DUP4 PUSH1 0xF0 SHR MUL OR SWAP1 SSTORE POP CALLVALUE DUP1 ISZERO PUSH1 0x6A JUMPI PUSH0 DUP1 REVERT JUMPDEST POP PUSH2 0x382 DUP1 PUSH2 0x78 PUSH0 CODECOPY PUSH0 RETURN INVALID PUSH1 0x80 PUSH1 0x40 MSTORE CALLVALUE DUP1 ISZERO PUSH2 0xF JUMPI PUSH0 DUP1 REVERT JUMPDEST POP PUSH1 0x4 CALLDATASIZE LT PUSH2 0x29 JUMPI PUSH0 CALLDATALOAD PUSH1 0xE0 SHR DUP1 PUSH4 0xCC80F6F3 EQ PUSH2 0x2D JUMPI JUMPDEST PUSH0 DUP1 REVERT JUMPDEST PUSH2 0x35 PUSH2 0x37 JUMP JUMPDEST STOP JUMPDEST PUSH2 0x62 PUSH0 DUP1 SLOAD SWAP1 PUSH2 0x100 EXP SWAP1 DIV PUSH1 0xF8 SHL PUSH0 PUSH1 0x1 DUP2 LT PUSH2 0x59 JUMPI PUSH2 0x58 PUSH2 0x26E JUMP JUMPDEST JUMPDEST BYTE PUSH1 0xF8 SHL PUSH2 0xEE JUMP JUMPDEST PUSH2 0x7C PUSH0 PUSH1 0x1 SWAP1 SLOAD SWAP1 PUSH2 0x100 EXP SWAP1 POP POP PUSH1 0x2 PUSH1 0xFF AND PUSH2 0x187 JUMP JUMPDEST PUSH2 0x96 PUSH0 PUSH1 0x3 SWAP1 SLOAD SWAP1 PUSH2 0x100 EXP SWAP1 POP POP PUSH1 0x2 PUSH1 0xFF AND PUSH2 0x187 JUMP JUMPDEST PUSH0 JUMPDEST PUSH0 PUSH1 0x1 SWAP1 SLOAD SWAP1 PUSH2 0x100 EXP SWAP1 POP POP PUSH1 0x2 PUSH1 0xFF AND DUP2 LT ISZERO PUSH2 0xEB JUMPI PUSH2 0xDE PUSH0 PUSH1 0x3 SWAP1 SLOAD SWAP1 PUSH2 0x100 EXP SWAP1 DIV PUSH1 0xF0 SHL DUP3 PUSH1 0x2 DUP2 LT PUSH2 0xD5 JUMPI PUSH2 0xD4 PUSH2 0x26E JUMP JUMPDEST JUMPDEST BYTE PUSH1 0xF8 SHL PUSH2 0xEE JUMP JUMPDEST DUP1 DUP1 PUSH1 0x1 ADD SWAP2 POP POP PUSH2 0x98 JUMP JUMPDEST POP JUMP JUMPDEST PUSH2 0x184 DUP2 PUSH1 0x40 MLOAD PUSH1 0x24 ADD PUSH2 0x102 SWAP2 SWAP1 PUSH2 0x2D5 JUMP JUMPDEST PUSH1 0x40 MLOAD PUSH1 0x20 DUP2 DUP4 SUB SUB DUP2 MSTORE SWAP1 PUSH1 0x40 MSTORE PUSH32 0x6E18A12800000000000000000000000000000000000000000000000000000000 PUSH28 0xFFFFFFFFFFFFFFFFFFFFFFFFFFFFFFFFFFFFFFFFFFFFFFFFFFFFFFFF NOT AND PUSH1 0x20 DUP3 ADD DUP1 MLOAD PUSH28 0xFFFFFFFFFFFFFFFFFFFFFFFFFFFFFFFFFFFFFFFFFFFFFFFFFFFFFFFF DUP4 DUP2 DUP4 AND OR DUP4 MSTORE POP POP POP POP PUSH2 0x220 JUMP JUMPDEST POP JUMP JUMPDEST PUSH2 0x21D DUP2 PUSH1 0x40 MLOAD PUSH1 0x24 ADD PUSH2 0x19B SWAP2 SWAP1 PUSH2 0x306 JUMP JUMPDEST PUSH1 0x40 MLOAD PUSH1 0x20 DUP2 DUP4 SUB SUB DUP2 MSTORE SWAP1 PUSH1 0x40 MSTORE PUSH32 0xF82C50F100000000000000000000000000000000000000000000000000000000 PUSH28 0xFFFFFFFFFFFFFFFFFFFFFFFFFFFFFFFFFFFFFFFFFFFFFFFFFFFFFFFF NOT AND PUSH1 0x20 DUP3 ADD DUP1 MLOAD PUSH28 0xFFFFFFFFFFFFFFFFFFFFFFFFFFFFFFFFFFFFFFFFFFFFFFFFFFFFFFFF DUP4 DUP2 DUP4 AND OR DUP4 MSTORE POP POP POP POP PUSH2 0x220 JUMP JUMPDEST POP JUMP JUMPDEST PUSH2 0x237 DUP2 PUSH2 0x22F PUSH2 0x23A PUSH2 0x259 JUMP JUMPDEST PUSH4 0xFFFFFFFF AND JUMP JUMPDEST POP JUMP JUMPDEST PUSH0 PUSH11 0x636F6E736F6C652E6C6F67 SWAP1 POP PUSH0 DUP1 DUP4 MLOAD PUSH1 0x20 DUP6 ADD DUP5 GAS STATICCALL POP POP POP JUMP JUMPDEST PUSH2 0x264 DUP2 SWAP1 POP SWAP2 SWAP1 POP JUMP JUMPDEST PUSH2 0x26C PUSH2 0x31F JUMP JUMPDEST JUMP JUMPDEST PUSH32 0x4E487B7100000000000000000000000000000000000000000000000000000000 PUSH0 MSTORE PUSH1 0x32 PUSH1 0x4 MSTORE PUSH1 0x24 PUSH0 REVERT JUMPDEST PUSH0 PUSH32 0xFF00000000000000000000000000000000000000000000000000000000000000 DUP3 AND SWAP1 POP SWAP2 SWAP1 POP JUMP JUMPDEST PUSH2 0x2CF DUP2 PUSH2 0x29B JUMP JUMPDEST DUP3 MSTORE POP POP JUMP JUMPDEST PUSH0 PUSH1 0x20 DUP3 ADD SWAP1 POP PUSH2 0x2E8 PUSH0 DUP4 ADD DUP5 PUSH2 0x2C6 JUMP JUMPDEST SWAP3 SWAP2 POP POP JUMP JUMPDEST PUSH0 DUP2 SWAP1 POP SWAP2 SWAP1 POP JUMP JUMPDEST PUSH2 0x300 DUP2 PUSH2 0x2EE JUMP JUMPDEST DUP3 MSTORE POP POP JUMP JUMPDEST PUSH0 PUSH1 0x20 DUP3 ADD SWAP1 POP PUSH2 0x319 PUSH0 DUP4 ADD DUP5 PUSH2 0x2F7 JUMP JUMPDEST SWAP3 SWAP2 POP POP JUMP JUMPDEST PUSH32 0x4E487B7100000000000000000000000000000000000000000000000000000000 PUSH0 MSTORE PUSH1 0x51 PUSH1 0x4 MSTORE PUSH1 0x24 PUSH0 REVERT INVALID LOG2 PUSH5 0x6970667358 0x22 SLT KECCAK256 BLOBHASH PUSH13 0x346200BA293B2E8D65366CB3A7 PUSH32 0x81ECB69B349BE910E3DCED81BD0C01AA64736F6C634300081A00330000000000 "
		},
		"gasEstimates": {
			"creation": {
				"codeDepositCost": "179600",
				"executionCost": "73140",
				"totalCost": "252740"
			},
			"external": {
				"show()": "infinite"
			}
		},
		"methodIdentifiers": {
			"show()": "cc80f6f3"
		}
	},
	"abi": [
		{
			"inputs": [],
			"name": "show",
			"outputs": [],
			"stateMutability": "nonpayable",
			"type": "function"
		}
	]
}