{
	"data": {
		"bytecode": {
			"linkReferences": {},
			"object": "608060405234801561000f575f80fd5b506040516105cf3803806105cf833981810160405281019061003191906100e6565b8060015f6101000a81548173ffffffffffffffffffffffffffffffffffffffff021916908373ffffffffffffffffffffffffffffffffffffffff16021790555050610111565b5f80fd5b5f73ffffffffffffffffffffffffffffffffffffffff82169050919050565b5f6100a48261007b565b9050919050565b5f6100b58261009a565b9050919050565b6100c5816100ab565b81146100cf575f80fd5b50565b5f815190506100e0816100bc565b92915050565b5f602082840312156100fb576100fa610077565b5b5f610108848285016100d2565b91505092915050565b6104b18061011e5f395ff3fe60806040526004361061003e575f3560e01c80630e29df2214610042578063209652551461004c57806381b2d07b14610076578063cab7f521146100a0575b5f80fd5b61004a6100aa565b005b348015610057575f80fd5b50610060610112565b60405161006d919061034d565b60405180910390f35b348015610081575f80fd5b5061008a61019a565b604051610097919061034d565b60405180910390f35b6100a86101cc565b005b60015f9054906101000a900473ffffffffffffffffffffffffffffffffffffffff1673ffffffffffffffffffffffffffffffffffffffff166108fc600290811502906040515f60405180830381858888f1935050505015801561010f573d5f803e3d5ffd5b50565b5f805a90506101208161024e565b5f8081548092919061013190610393565b91905055505f5a90506101438161024e565b610157818361015291906103da565b61024e565b6101603a61024e565b61017f3a828461017091906103da565b61017a919061040d565b61024e565b6101884861024e565b6101914561024e565b5f549250505090565b5f73f39fd6e51aad88f6f4ce6ab8827279cfffb9226673ffffffffffffffffffffffffffffffffffffffff1631905090565b60015f9054906101000a900473ffffffffffffffffffffffffffffffffffffffff1673ffffffffffffffffffffffffffffffffffffffff1663b1aa8576611f406040518263ffffffff1660e01b81526004015f604051808303815f88803b158015610235575f80fd5b5087f1158015610247573d5f803e3d5ffd5b5050505050565b6102e481604051602401610262919061034d565b6040516020818303038152906040527ff82c50f1000000000000000000000000000000000000000000000000000000007bffffffffffffffffffffffffffffffffffffffffffffffffffffffff19166020820180517bffffffffffffffffffffffffffffffffffffffffffffffffffffffff83818316178352505050506102e7565b50565b6102fe816102f6610301610320565b63ffffffff16565b50565b5f6a636f6e736f6c652e6c6f6790505f80835160208501845afa505050565b61032b819050919050565b61033361044e565b565b5f819050919050565b61034781610335565b82525050565b5f6020820190506103605f83018461033e565b92915050565b7f4e487b71000000000000000000000000000000000000000000000000000000005f52601160045260245ffd5b5f61039d82610335565b91507fffffffffffffffffffffffffffffffffffffffffffffffffffffffffffffffff82036103cf576103ce610366565b5b600182019050919050565b5f6103e482610335565b91506103ef83610335565b925082820390508181111561040757610406610366565b5b92915050565b5f61041782610335565b915061042283610335565b925082820261043081610335565b9150828204841483151761044757610446610366565b5b5092915050565b7f4e487b71000000000000000000000000000000000000000000000000000000005f52605160045260245ffdfea2646970667358221220a151333ac8861c6191efe228ba14cb5e479b208495f352242827dd899f26879f64736f6c634300081a0033",
			"opcodes": "PUSH1 0x80 PUSH1 0x40 MSTORE CALLVALUE DUP1 ISZERO PUSH2 0xF JUMPI PUSH0 DUP1 REVERT JUMPDEST POP PUSH1 0x40 MLOAD PUSH2 0x5CF CODESIZE SUB DUP1 PUSH2 0x5CF DUP4 CODECOPY DUP2 DUP2 ADD PUSH1 0x40 MSTORE DUP2 ADD SWAP1 PUSH2 0x31 SWAP2 SWAP1 PUSH2 0xE6 JUMP JUMPDEST DUP1 PUSH1 0x1 PUSH0 PUSH2 0x100 EXP DUP2 SLOAD DUP2 PUSH20 0xFFFFFFFFFFFFFFFFFFFFFFFFFFFFFFFFFFFFFFFF MUL NOT AND SWAP1 DUP4 PUSH20 0xFFFFFFFFFFFFFFFFFFFFFFFFFFFFFFFFFFFFFFFF AND MUL OR SWAP1 SSTORE POP POP PUSH2 0x111 JUMP JUMPDEST PUSH0 DUP1 REVERT JUMPDEST PUSH0 PUSH20 0xFFFFFFFFFFFFFFFFFFFFFFFFFFFFFFFFFFFFFFFF DUP3 AND SWAP1 POP SWAP2 SWAP1 POP JUMP JUMPDEST PUSH0 PUSH2 0xA4 DUP3 PUSH2 0x7B JUMP JUMPDEST SWAP1 POP SWAP2 SWAP1 POP JUMP JUMPDEST PUSH0 PUSH2 0xB5 DUP3 PUSH2 0x9A JUMP JUMPDEST SWAP1 POP SWAP2 SWAP1 POP JUMP JUMPDEST PUSH2 0xC5 DUP2 PUSH2 0xAB JUMP JUMPDEST DUP2 EQ PUSH2 0xCF JUMPI PUSH0 DUP1 REVERT JUMPDEST POP JUMP JUMPDEST PUSH0 DUP2 MLOAD SWAP1 POP PUSH2 0xE0 DUP2 PUSH2 0xBC JUMP JUMPDEST SWAP3 SWAP2 POP POP JUMP JUMPDEST PUSH0 PUSH1 0x20 DUP3 DUP5 SUB SLT ISZERO PUSH2 0xFB JUMPI PUSH2 0xFA PUSH2 0x77 JUMP JUMPDEST JUMPDEST PUSH0 PUSH2 0x108 DUP5 DUP3 DUP6 ADD PUSH2 0xD2 JUMP JUMPDEST SWAP2 POP POP SWAP3 SWAP2 POP POP JUMP JUMPDEST PUSH2 0x4B1 DUP1 PUSH2 0x11E PUSH0 CODECOPY PUSH0 RETURN INVALID PUSH1 0x80 PUSH1 0x40 MSTORE PUSH1 0x4 CALLDATASIZE LT PUSH2 0x3E JUMPI PUSH0 CALLDATALOAD PUSH1 0xE0 SHR DUP1 PUSH4 0xE29DF22 EQ PUSH2 0x42 JUMPI DUP1 PUSH4 0x20965255 EQ PUSH2 0x4C JUMPI DUP1 PUSH4 0x81B2D07B EQ PUSH2 0x76 JUMPI DUP1 PUSH4 0xCAB7F521 EQ PUSH2 0xA0 JUMPI JUMPDEST PUSH0 DUP1 REVERT JUMPDEST PUSH2 0x4A PUSH2 0xAA JUMP JUMPDEST STOP JUMPDEST CALLVALUE DUP1 ISZERO PUSH2 0x57 JUMPI PUSH0 DUP1 REVERT JUMPDEST POP PUSH2 0x60 PUSH2 0x112 JUMP JUMPDEST PUSH1 0x40 MLOAD PUSH2 0x6D SWAP2 SWAP1 PUSH2 0x34D JUMP JUMPDEST PUSH1 0x40 MLOAD DUP1 SWAP2 SUB SWAP1 RETURN JUMPDEST CALLVALUE DUP1 ISZERO PUSH2 0x81 JUMPI PUSH0 DUP1 REVERT JUMPDEST POP PUSH2 0x8A PUSH2 0x19A JUMP JUMPDEST PUSH1 0x40 MLOAD PUSH2 0x97 SWAP2 SWAP1 PUSH2 0x34D JUMP JUMPDEST PUSH1 0x40 MLOAD DUP1 SWAP2 SUB SWAP1 RETURN JUMPDEST PUSH2 0xA8 PUSH2 0x1CC JUMP JUMPDEST STOP JUMPDEST PUSH1 0x1 PUSH0 SWAP1 SLOAD SWAP1 PUSH2 0x100 EXP SWAP1 DIV PUSH20 0xFFFFFFFFFFFFFFFFFFFFFFFFFFFFFFFFFFFFFFFF AND PUSH20 0xFFFFFFFFFFFFFFFFFFFFFFFFFFFFFFFFFFFFFFFF AND PUSH2 0x8FC PUSH1 0x2 SWAP1 DUP2 ISZERO MUL SWAP1 PUSH1 0x40 MLOAD PUSH0 PUSH1 0x40 MLOAD DUP1 DUP4 SUB DUP2 DUP6 DUP9 DUP9 CALL SWAP4 POP POP POP POP ISZERO DUP1 ISZERO PUSH2 0x10F JUMPI RETURNDATASIZE PUSH0 DUP1 RETURNDATACOPY RETURNDATASIZE PUSH0 REVERT JUMPDEST POP JUMP JUMPDEST PUSH0 DUP1 GAS SWAP1 POP PUSH2 0x120 DUP2 PUSH2 0x24E JUMP JUMPDEST PUSH0 DUP1 DUP2 SLOAD DUP1 SWAP3 SWAP2 SWAP1 PUSH2 0x131 SWAP1 PUSH2 0x393 JUMP JUMPDEST SWAP2 SWAP1 POP SSTORE POP PUSH0 GAS SWAP1 POP PUSH2 0x143 DUP2 PUSH2 0x24E JUMP JUMPDEST PUSH2 0x157 DUP2 DUP4 PUSH2 0x152 SWAP2 SWAP1 PUSH2 0x3DA JUMP JUMPDEST PUSH2 0x24E JUMP JUMPDEST PUSH2 0x160 GASPRICE PUSH2 0x24E JUMP JUMPDEST PUSH2 0x17F GASPRICE DUP3 DUP5 PUSH2 0x170 SWAP2 SWAP1 PUSH2 0x3DA JUMP JUMPDEST PUSH2 0x17A SWAP2 SWAP1 PUSH2 0x40D JUMP JUMPDEST PUSH2 0x24E JUMP JUMPDEST PUSH2 0x188 BASEFEE PUSH2 0x24E JUMP JUMPDEST PUSH2 0x191 GASLIMIT PUSH2 0x24E JUMP JUMPDEST PUSH0 SLOAD SWAP3 POP POP POP SWAP1 JUMP JUMPDEST PUSH0 PUSH20 0xF39FD6E51AAD88F6F4CE6AB8827279CFFFB92266 PUSH20 0xFFFFFFFFFFFFFFFFFFFFFFFFFFFFFFFFFFFFFFFF AND BALANCE SWAP1 POP SWAP1 JUMP JUMPDEST PUSH1 0x1 PUSH0 SWAP1 SLOAD SWAP1 PUSH2 0x100 EXP SWAP1 DIV PUSH20 0xFFFFFFFFFFFFFFFFFFFFFFFFFFFFFFFFFFFFFFFF AND PUSH20 0xFFFFFFFFFFFFFFFFFFFFFFFFFFFFFFFFFFFFFFFF AND PUSH4 0xB1AA8576 PUSH2 0x1F40 PUSH1 0x40 MLOAD DUP3 PUSH4 0xFFFFFFFF AND PUSH1 0xE0 SHL DUP2 MSTORE PUSH1 0x4 ADD PUSH0 PUSH1 0x40 MLOAD DUP1 DUP4 SUB DUP2 PUSH0 DUP9 DUP1 EXTCODESIZE ISZERO DUP1 ISZERO PUSH2 0x235 JUMPI PUSH0 DUP1 REVERT JUMPDEST POP DUP8 CALL ISZERO DUP1 ISZERO PUSH2 0x247 JUMPI RETURNDATASIZE PUSH0 DUP1 RETURNDATACOPY RETURNDATASIZE PUSH0 REVERT JUMPDEST POP POP POP POP POP JUMP JUMPDEST PUSH2 0x2E4 DUP2 PUSH1 0x40 MLOAD PUSH1 0x24 ADD PUSH2 0x262 SWAP2 SWAP1 PUSH2 0x34D JUMP JUMPDEST PUSH1 0x40 MLOAD PUSH1 0x20 DUP2 DUP4 SUB SUB DUP2 MSTORE SWAP1 PUSH1 0x40 MSTORE PUSH32 0xF82C50F100000000000000000000000000000000000000000000000000000000 PUSH28 0xFFFFFFFFFFFFFFFFFFFFFFFFFFFFFFFFFFFFFFFFFFFFFFFFFFFFFFFF NOT AND PUSH1 0x20 DUP3 ADD DUP1 MLOAD PUSH28 0xFFFFFFFFFFFFFFFFFFFFFFFFFFFFFFFFFFFFFFFFFFFFFFFFFFFFFFFF DUP4 DUP2 DUP4 AND OR DUP4 MSTORE POP POP POP POP PUSH2 0x2E7 JUMP JUMPDEST POP JUMP JUMPDEST PUSH2 0x2FE DUP2 PUSH2 0x2F6 PUSH2 0x301 PUSH2 0x320 JUMP JUMPDEST PUSH4 0xFFFFFFFF AND JUMP JUMPDEST POP JUMP JUMPDEST PUSH0 PUSH11 0x636F6E736F6C652E6C6F67 SWAP1 POP PUSH0 DUP1 DUP4 MLOAD PUSH1 0x20 DUP6 ADD DUP5 GAS STATICCALL POP POP POP JUMP JUMPDEST PUSH2 0x32B DUP2 SWAP1 POP SWAP2 SWAP1 POP JUMP JUMPDEST PUSH2 0x333 PUSH2 0x44E JUMP JUMPDEST JUMP JUMPDEST PUSH0 DUP2 SWAP1 POP SWAP2 SWAP1 POP JUMP JUMPDEST PUSH2 0x347 DUP2 PUSH2 0x335 JUMP JUMPDEST DUP3 MSTORE POP POP JUMP JUMPDEST PUSH0 PUSH1 0x20 DUP3 ADD SWAP1 POP PUSH2 0x360 PUSH0 DUP4 ADD DUP5 PUSH2 0x33E JUMP JUMPDEST SWAP3 SWAP2 POP POP JUMP JUMPDEST PUSH32 0x4E487B7100000000000000000000000000000000000000000000000000000000 PUSH0 MSTORE PUSH1 0x11 PUSH1 0x4 MSTORE PUSH1 0x24 PUSH0 REVERT JUMPDEST PUSH0 PUSH2 0x39D DUP3 PUSH2 0x335 JUMP JUMPDEST SWAP2 POP PUSH32 0xFFFFFFFFFFFFFFFFFFFFFFFFFFFFFFFFFFFFFFFFFFFFFFFFFFFFFFFFFFFFFFFF DUP3 SUB PUSH2 0x3CF JUMPI PUSH2 0x3CE PUSH2 0x366 JUMP JUMPDEST JUMPDEST PUSH1 0x1 DUP3 ADD SWAP1 POP SWAP2 SWAP1 POP JUMP JUMPDEST PUSH0 PUSH2 0x3E4 DUP3 PUSH2 0x335 JUMP JUMPDEST SWAP2 POP PUSH2 0x3EF DUP4 PUSH2 0x335 JUMP JUMPDEST SWAP3 POP DUP3 DUP3 SUB SWAP1 POP DUP2 DUP2 GT ISZERO PUSH2 0x407 JUMPI PUSH2 0x406 PUSH2 0x366 JUMP JUMPDEST JUMPDEST SWAP3 SWAP2 POP POP JUMP JUMPDEST PUSH0 PUSH2 0x417 DUP3 PUSH2 0x335 JUMP JUMPDEST SWAP2 POP PUSH2 0x422 DUP4 PUSH2 0x335 JUMP JUMPDEST SWAP3 POP DUP3 DUP3 MUL PUSH2 0x430 DUP2 PUSH2 0x335 JUMP JUMPDEST SWAP2 POP DUP3 DUP3 DIV DUP5 EQ DUP4 ISZERO OR PUSH2 0x447 JUMPI PUSH2 0x446 PUSH2 0x366 JUMP JUMPDEST JUMPDEST POP SWAP3 SWAP2 POP POP JUMP JUMPDEST PUSH32 0x4E487B7100000000000000000000000000000000000000000000000000000000 PUSH0 MSTORE PUSH1 0x51 PUSH1 0x4 MSTORE PUSH1 0x24 PUSH0 REVERT INVALID LOG2 PUSH5 0x6970667358 0x22 SLT KECCAK256 LOG1 MLOAD CALLER GASPRICE 0xC8 DUP7 SHR PUSH2 0x91EF 0xE2 0x28 0xBA EQ 0xCB MCOPY SELFBALANCE SWAP12 KECCAK256 DUP5 SWAP6 RETURN MSTORE 0x24 0x28 0x27 0xDD DUP10 SWAP16 0x26 DUP8 SWAP16 PUSH5 0x736F6C6343 STOP ADDMOD BYTE STOP CALLER "
		},
		"gasEstimates": {
			"creation": {
				"codeDepositCost": "240200",
				"executionCost": "infinite",
				"totalCost": "infinite"
			},
			"external": {
				"getValue()": "infinite",
				"invoke()": "infinite",
				"sendEther()": "infinite",
				"showBalance()": "2960"
			}
		},
		"methodIdentifiers": {
			"getValue()": "20965255",
			"invoke()": "cab7f521",
			"sendEther()": "0e29df22",
			"showBalance()": "81b2d07b"
		}
	},
	"abi": [
		{
			"inputs": [
				{
					"internalType": "contract Reciver",
					"name": "_r",
					"type": "address"
				}
			],
			"stateMutability": "nonpayable",
			"type": "constructor"
		},
		{
			"inputs": [],
			"name": "getValue",
			"outputs": [
				{
					"internalType": "uint256",
					"name": "",
					"type": "uint256"
				}
			],
			"stateMutability": "nonpayable",
			"type": "function"
		},
		{
			"inputs": [],
			"name": "invoke",
			"outputs": [],
			"stateMutability": "payable",
			"type": "function"
		},
		{
			"inputs": [],
			"name": "sendEther",
			"outputs": [],
			"stateMutability": "payable",
			"type": "function"
		},
		{
			"inputs": [],
			"name": "showBalance",
			"outputs": [
				{
					"internalType": "uint256",
					"name": "",
					"type": "uint256"
				}
			],
			"stateMutability": "view",
			"type": "function"
		}
	]
}