{
	"data": {
		"bytecode": {
			"linkReferences": {},
			"object": "6080604052348015600e575f80fd5b506104478061001c5f395ff3fe608060405260043610610037575f3560e01c8063409fdf351461004b57806381b2d07b14610055578063b1aa85761461007f57610047565b36610047576100455a610095565b005b5f80fd5b61005361012e565b005b348015610060575f80fd5b50610069610190565b604051610076919061029e565b60405180910390f35b34801561008a575f80fd5b506100936101c2565b005b61012b816040516024016100a9919061029e565b6040516020818303038152906040527ff82c50f1000000000000000000000000000000000000000000000000000000007bffffffffffffffffffffffffffffffffffffffffffffffffffffffff19166020820180517bffffffffffffffffffffffffffffffffffffffffffffffffffffffff8381831617835250505050610238565b50565b670de0b6b3a76400003411610178576040517f08c379a000000000000000000000000000000000000000000000000000000000815260040161016f90610311565b60405180910390fd5b5f808154809291906101899061035c565b9190505550565b5f735b38da6a701c568545dcfcb03fcb875f56beddc473ffffffffffffffffffffffffffffffffffffffff1631905090565b5f8073ffffffffffffffffffffffffffffffffffffffff166113886040516101e9906103d0565b5f604051808303815f8787f1925050503d805f8114610223576040519150601f19603f3d011682016040523d82523d5f602084013e610228565b606091505b5050905080610235575f80fd5b50565b61024f81610247610252610271565b63ffffffff16565b50565b5f6a636f6e736f6c652e6c6f6790505f80835160208501845afa505050565b61027c819050919050565b6102846103e4565b565b5f819050919050565b61029881610286565b82525050565b5f6020820190506102b15f83018461028f565b92915050565b5f82825260208201905092915050565b7f74726173616374696f6e206661696c00000000000000000000000000000000005f82015250565b5f6102fb600f836102b7565b9150610306826102c7565b602082019050919050565b5f6020820190508181035f830152610328816102ef565b9050919050565b7f4e487b71000000000000000000000000000000000000000000000000000000005f52601160045260245ffd5b5f61036682610286565b91507fffffffffffffffffffffffffffffffffffffffffffffffffffffffffffffffff82036103985761039761032f565b5b600182019050919050565b5f81905092915050565b50565b5f6103bb5f836103a3565b91506103c6826103ad565b5f82019050919050565b5f6103da826103b0565b9150819050919050565b7f4e487b71000000000000000000000000000000000000000000000000000000005f52605160045260245ffdfea2646970667358221220d424f971e873b568277e676ee1cc148f0da5ba708d5a9a2ae5025aed1ba1f88b64736f6c634300081a0033",
			"opcodes": "PUSH1 0x80 PUSH1 0x40 MSTORE CALLVALUE DUP1 ISZERO PUSH1 0xE JUMPI PUSH0 DUP1 REVERT JUMPDEST POP PUSH2 0x447 DUP1 PUSH2 0x1C PUSH0 CODECOPY PUSH0 RETURN INVALID PUSH1 0x80 PUSH1 0x40 MSTORE PUSH1 0x4 CALLDATASIZE LT PUSH2 0x37 JUMPI PUSH0 CALLDATALOAD PUSH1 0xE0 SHR DUP1 PUSH4 0x409FDF35 EQ PUSH2 0x4B JUMPI DUP1 PUSH4 0x81B2D07B EQ PUSH2 0x55 JUMPI DUP1 PUSH4 0xB1AA8576 EQ PUSH2 0x7F JUMPI PUSH2 0x47 JUMP JUMPDEST CALLDATASIZE PUSH2 0x47 JUMPI PUSH2 0x45 GAS PUSH2 0x95 JUMP JUMPDEST STOP JUMPDEST PUSH0 DUP1 REVERT JUMPDEST PUSH2 0x53 PUSH2 0x12E JUMP JUMPDEST STOP JUMPDEST CALLVALUE DUP1 ISZERO PUSH2 0x60 JUMPI PUSH0 DUP1 REVERT JUMPDEST POP PUSH2 0x69 PUSH2 0x190 JUMP JUMPDEST PUSH1 0x40 MLOAD PUSH2 0x76 SWAP2 SWAP1 PUSH2 0x29E JUMP JUMPDEST PUSH1 0x40 MLOAD DUP1 SWAP2 SUB SWAP1 RETURN JUMPDEST CALLVALUE DUP1 ISZERO PUSH2 0x8A JUMPI PUSH0 DUP1 REVERT JUMPDEST POP PUSH2 0x93 PUSH2 0x1C2 JUMP JUMPDEST STOP JUMPDEST PUSH2 0x12B DUP2 PUSH1 0x40 MLOAD PUSH1 0x24 ADD PUSH2 0xA9 SWAP2 SWAP1 PUSH2 0x29E JUMP JUMPDEST PUSH1 0x40 MLOAD PUSH1 0x20 DUP2 DUP4 SUB SUB DUP2 MSTORE SWAP1 PUSH1 0x40 MSTORE PUSH32 0xF82C50F100000000000000000000000000000000000000000000000000000000 PUSH28 0xFFFFFFFFFFFFFFFFFFFFFFFFFFFFFFFFFFFFFFFFFFFFFFFFFFFFFFFF NOT AND PUSH1 0x20 DUP3 ADD DUP1 MLOAD PUSH28 0xFFFFFFFFFFFFFFFFFFFFFFFFFFFFFFFFFFFFFFFFFFFFFFFFFFFFFFFF DUP4 DUP2 DUP4 AND OR DUP4 MSTORE POP POP POP POP PUSH2 0x238 JUMP JUMPDEST POP JUMP JUMPDEST PUSH8 0xDE0B6B3A7640000 CALLVALUE GT PUSH2 0x178 JUMPI PUSH1 0x40 MLOAD PUSH32 0x8C379A000000000000000000000000000000000000000000000000000000000 DUP2 MSTORE PUSH1 0x4 ADD PUSH2 0x16F SWAP1 PUSH2 0x311 JUMP JUMPDEST PUSH1 0x40 MLOAD DUP1 SWAP2 SUB SWAP1 REVERT JUMPDEST PUSH0 DUP1 DUP2 SLOAD DUP1 SWAP3 SWAP2 SWAP1 PUSH2 0x189 SWAP1 PUSH2 0x35C JUMP JUMPDEST SWAP2 SWAP1 POP SSTORE POP JUMP JUMPDEST PUSH0 PUSH20 0x5B38DA6A701C568545DCFCB03FCB875F56BEDDC4 PUSH20 0xFFFFFFFFFFFFFFFFFFFFFFFFFFFFFFFFFFFFFFFF AND BALANCE SWAP1 POP SWAP1 JUMP JUMPDEST PUSH0 DUP1 PUSH20 0xFFFFFFFFFFFFFFFFFFFFFFFFFFFFFFFFFFFFFFFF AND PUSH2 0x1388 PUSH1 0x40 MLOAD PUSH2 0x1E9 SWAP1 PUSH2 0x3D0 JUMP JUMPDEST PUSH0 PUSH1 0x40 MLOAD DUP1 DUP4 SUB DUP2 PUSH0 DUP8 DUP8 CALL SWAP3 POP POP POP RETURNDATASIZE DUP1 PUSH0 DUP2 EQ PUSH2 0x223 JUMPI PUSH1 0x40 MLOAD SWAP2 POP PUSH1 0x1F NOT PUSH1 0x3F RETURNDATASIZE ADD AND DUP3 ADD PUSH1 0x40 MSTORE RETURNDATASIZE DUP3 MSTORE RETURNDATASIZE PUSH0 PUSH1 0x20 DUP5 ADD RETURNDATACOPY PUSH2 0x228 JUMP JUMPDEST PUSH1 0x60 SWAP2 POP JUMPDEST POP POP SWAP1 POP DUP1 PUSH2 0x235 JUMPI PUSH0 DUP1 REVERT JUMPDEST POP JUMP JUMPDEST PUSH2 0x24F DUP2 PUSH2 0x247 PUSH2 0x252 PUSH2 0x271 JUMP JUMPDEST PUSH4 0xFFFFFFFF AND JUMP JUMPDEST POP JUMP JUMPDEST PUSH0 PUSH11 0x636F6E736F6C652E6C6F67 SWAP1 POP PUSH0 DUP1 DUP4 MLOAD PUSH1 0x20 DUP6 ADD DUP5 GAS STATICCALL POP POP POP JUMP JUMPDEST PUSH2 0x27C DUP2 SWAP1 POP SWAP2 SWAP1 POP JUMP JUMPDEST PUSH2 0x284 PUSH2 0x3E4 JUMP JUMPDEST JUMP JUMPDEST PUSH0 DUP2 SWAP1 POP SWAP2 SWAP1 POP JUMP JUMPDEST PUSH2 0x298 DUP2 PUSH2 0x286 JUMP JUMPDEST DUP3 MSTORE POP POP JUMP JUMPDEST PUSH0 PUSH1 0x20 DUP3 ADD SWAP1 POP PUSH2 0x2B1 PUSH0 DUP4 ADD DUP5 PUSH2 0x28F JUMP JUMPDEST SWAP3 SWAP2 POP POP JUMP JUMPDEST PUSH0 DUP3 DUP3 MSTORE PUSH1 0x20 DUP3 ADD SWAP1 POP SWAP3 SWAP2 POP POP JUMP JUMPDEST PUSH32 0x74726173616374696F6E206661696C0000000000000000000000000000000000 PUSH0 DUP3 ADD MSTORE POP JUMP JUMPDEST PUSH0 PUSH2 0x2FB PUSH1 0xF DUP4 PUSH2 0x2B7 JUMP JUMPDEST SWAP2 POP PUSH2 0x306 DUP3 PUSH2 0x2C7 JUMP JUMPDEST PUSH1 0x20 DUP3 ADD SWAP1 POP SWAP2 SWAP1 POP JUMP JUMPDEST PUSH0 PUSH1 0x20 DUP3 ADD SWAP1 POP DUP2 DUP2 SUB PUSH0 DUP4 ADD MSTORE PUSH2 0x328 DUP2 PUSH2 0x2EF JUMP JUMPDEST SWAP1 POP SWAP2 SWAP1 POP JUMP JUMPDEST PUSH32 0x4E487B7100000000000000000000000000000000000000000000000000000000 PUSH0 MSTORE PUSH1 0x11 PUSH1 0x4 MSTORE PUSH1 0x24 PUSH0 REVERT JUMPDEST PUSH0 PUSH2 0x366 DUP3 PUSH2 0x286 JUMP JUMPDEST SWAP2 POP PUSH32 0xFFFFFFFFFFFFFFFFFFFFFFFFFFFFFFFFFFFFFFFFFFFFFFFFFFFFFFFFFFFFFFFF DUP3 SUB PUSH2 0x398 JUMPI PUSH2 0x397 PUSH2 0x32F JUMP JUMPDEST JUMPDEST PUSH1 0x1 DUP3 ADD SWAP1 POP SWAP2 SWAP1 POP JUMP JUMPDEST PUSH0 DUP2 SWAP1 POP SWAP3 SWAP2 POP POP JUMP JUMPDEST POP JUMP JUMPDEST PUSH0 PUSH2 0x3BB PUSH0 DUP4 PUSH2 0x3A3 JUMP JUMPDEST SWAP2 POP PUSH2 0x3C6 DUP3 PUSH2 0x3AD JUMP JUMPDEST PUSH0 DUP3 ADD SWAP1 POP SWAP2 SWAP1 POP JUMP JUMPDEST PUSH0 PUSH2 0x3DA DUP3 PUSH2 0x3B0 JUMP JUMPDEST SWAP2 POP DUP2 SWAP1 POP SWAP2 SWAP1 POP JUMP JUMPDEST PUSH32 0x4E487B7100000000000000000000000000000000000000000000000000000000 PUSH0 MSTORE PUSH1 0x51 PUSH1 0x4 MSTORE PUSH1 0x24 PUSH0 REVERT INVALID LOG2 PUSH5 0x6970667358 0x22 SLT KECCAK256 0xD4 0x24 0xF9 PUSH18 0xE873B568277E676EE1CC148F0DA5BA708D5A SWAP11 0x2A 0xE5 MUL GAS 0xED SHL LOG1 0xF8 DUP12 PUSH5 0x736F6C6343 STOP ADDMOD BYTE STOP CALLER "
		},
		"gasEstimates": {
			"creation": {
				"codeDepositCost": "219000",
				"executionCost": "261",
				"totalCost": "219261"
			},
			"external": {
				"bizMethod()": "infinite",
				"invoke2()": "24473",
				"showBalance()": "2938"
			}
		},
		"methodIdentifiers": {
			"bizMethod()": "b1aa8576",
			"invoke2()": "409fdf35",
			"showBalance()": "81b2d07b"
		}
	},
	"abi": [
		{
			"inputs": [],
			"name": "bizMethod",
			"outputs": [],
			"stateMutability": "nonpayable",
			"type": "function"
		},
		{
			"inputs": [],
			"name": "invoke2",
			"outputs": [],
			"stateMutability": "payable",
			"type": "function"
		},
		{
			"inputs": [],
			"name": "showBalance",
			"outputs": [
				{
					"internalType": "uint256",
					"name": "",
					"type": "uint256"
				}
			],
			"stateMutability": "view",
			"type": "function"
		},
		{
			"stateMutability": "payable",
			"type": "receive"
		}
	]
}