{
	"20241011/StakingReward.sol": {
		"StakingRewards": {
			"abi": [
				{
					"inputs": [
						{
							"internalType": "address",
							"name": "_stakingToken",
							"type": "address"
						},
						{
							"internalType": "address",
							"name": "_rewardToken",
							"type": "address"
						}
					],
					"stateMutability": "nonpayable",
					"type": "constructor"
				},
				{
					"inputs": [
						{
							"internalType": "address",
							"name": "",
							"type": "address"
						}
					],
					"name": "balanceOf",
					"outputs": [
						{
							"internalType": "uint256",
							"name": "",
							"type": "uint256"
						}
					],
					"stateMutability": "view",
					"type": "function"
				},
				{
					"inputs": [],
					"name": "duration",
					"outputs": [
						{
							"internalType": "uint256",
							"name": "",
							"type": "uint256"
						}
					],
					"stateMutability": "view",
					"type": "function"
				},
				{
					"inputs": [
						{
							"internalType": "address",
							"name": "_account",
							"type": "address"
						}
					],
					"name": "earned",
					"outputs": [
						{
							"internalType": "uint256",
							"name": "",
							"type": "uint256"
						}
					],
					"stateMutability": "view",
					"type": "function"
				},
				{
					"inputs": [],
					"name": "finishAt",
					"outputs": [
						{
							"internalType": "uint256",
							"name": "",
							"type": "uint256"
						}
					],
					"stateMutability": "view",
					"type": "function"
				},
				{
					"inputs": [],
					"name": "getReward",
					"outputs": [],
					"stateMutability": "nonpayable",
					"type": "function"
				},
				{
					"inputs": [],
					"name": "lastTimeRewardApplicable",
					"outputs": [
						{
							"internalType": "uint256",
							"name": "",
							"type": "uint256"
						}
					],
					"stateMutability": "view",
					"type": "function"
				},
				{
					"inputs": [
						{
							"internalType": "uint256",
							"name": "_amount",
							"type": "uint256"
						}
					],
					"name": "notifyRewardAmount",
					"outputs": [],
					"stateMutability": "nonpayable",
					"type": "function"
				},
				{
					"inputs": [],
					"name": "owner",
					"outputs": [
						{
							"internalType": "address",
							"name": "",
							"type": "address"
						}
					],
					"stateMutability": "view",
					"type": "function"
				},
				{
					"inputs": [],
					"name": "rewardPerToken",
					"outputs": [
						{
							"internalType": "uint256",
							"name": "",
							"type": "uint256"
						}
					],
					"stateMutability": "view",
					"type": "function"
				},
				{
					"inputs": [],
					"name": "rewardPerTokenStored",
					"outputs": [
						{
							"internalType": "uint256",
							"name": "",
							"type": "uint256"
						}
					],
					"stateMutability": "view",
					"type": "function"
				},
				{
					"inputs": [],
					"name": "rewardRate",
					"outputs": [
						{
							"internalType": "uint256",
							"name": "",
							"type": "uint256"
						}
					],
					"stateMutability": "view",
					"type": "function"
				},
				{
					"inputs": [
						{
							"internalType": "address",
							"name": "",
							"type": "address"
						}
					],
					"name": "rewards",
					"outputs": [
						{
							"internalType": "uint256",
							"name": "",
							"type": "uint256"
						}
					],
					"stateMutability": "view",
					"type": "function"
				},
				{
					"inputs": [],
					"name": "rewardsToken",
					"outputs": [
						{
							"internalType": "contract IERC20",
							"name": "",
							"type": "address"
						}
					],
					"stateMutability": "view",
					"type": "function"
				},
				{
					"inputs": [
						{
							"internalType": "uint256",
							"name": "_duration",
							"type": "uint256"
						}
					],
					"name": "setRewardsDuration",
					"outputs": [],
					"stateMutability": "nonpayable",
					"type": "function"
				},
				{
					"inputs": [
						{
							"internalType": "uint256",
							"name": "_amount",
							"type": "uint256"
						}
					],
					"name": "stake",
					"outputs": [],
					"stateMutability": "nonpayable",
					"type": "function"
				},
				{
					"inputs": [],
					"name": "stakingToken",
					"outputs": [
						{
							"internalType": "contract IERC20",
							"name": "",
							"type": "address"
						}
					],
					"stateMutability": "view",
					"type": "function"
				},
				{
					"inputs": [],
					"name": "totalSupply",
					"outputs": [
						{
							"internalType": "uint256",
							"name": "",
							"type": "uint256"
						}
					],
					"stateMutability": "view",
					"type": "function"
				},
				{
					"inputs": [],
					"name": "updatedAt",
					"outputs": [
						{
							"internalType": "uint256",
							"name": "",
							"type": "uint256"
						}
					],
					"stateMutability": "view",
					"type": "function"
				},
				{
					"inputs": [
						{
							"internalType": "address",
							"name": "",
							"type": "address"
						}
					],
					"name": "userRewardPerTokenPaid",
					"outputs": [
						{
							"internalType": "uint256",
							"name": "",
							"type": "uint256"
						}
					],
					"stateMutability": "view",
					"type": "function"
				},
				{
					"inputs": [
						{
							"internalType": "uint256",
							"name": "_amount",
							"type": "uint256"
						}
					],
					"name": "withdraw",
					"outputs": [],
					"stateMutability": "nonpayable",
					"type": "function"
				}
			],
			"devdoc": {
				"kind": "dev",
				"methods": {},
				"version": 1
			},
			"evm": {
				"assembly": "    /* \"20241011/StakingReward.sol\":58:3998  contract StakingRewards {... */\n  mstore(0x40, 0xc0)\n    /* \"20241011/StakingReward.sol\":954:1137  constructor(address _stakingToken, address _rewardToken) {... */\n  callvalue\n  dup1\n  iszero\n  tag_1\n  jumpi\n  0x00\n  dup1\n  revert\ntag_1:\n  pop\n  mload(0x40)\n  sub(codesize, bytecodeSize)\n  dup1\n  bytecodeSize\n  dup4\n  codecopy\n  dup2\n  dup2\n  add\n  0x40\n  mstore\n  dup2\n  add\n  swap1\n  tag_2\n  swap2\n  swap1\n  tag_3\n  jump\t// in\ntag_2:\n    /* \"20241011/StakingReward.sol\":1029:1039  msg.sender */\n  caller\n    /* \"20241011/StakingReward.sol\":1021:1026  owner */\n  0x00\n  dup1\n    /* \"20241011/StakingReward.sol\":1021:1039  owner = msg.sender */\n  0x0100\n  exp\n  dup2\n  sload\n  dup2\n  0xffffffffffffffffffffffffffffffffffffffff\n  mul\n  not\n  and\n  swap1\n  dup4\n  0xffffffffffffffffffffffffffffffffffffffff\n  and\n  mul\n  or\n  swap1\n  sstore\n  pop\n    /* \"20241011/StakingReward.sol\":1071:1084  _stakingToken */\n  dup2\n    /* \"20241011/StakingReward.sol\":1049:1085  stakingToken = IERC20(_stakingToken) */\n  0xffffffffffffffffffffffffffffffffffffffff\n  and\n  0x80\n  dup2\n  0xffffffffffffffffffffffffffffffffffffffff\n  and\n  dup2\n  mstore\n  pop\n  pop\n    /* \"20241011/StakingReward.sol\":1117:1129  _rewardToken */\n  dup1\n    /* \"20241011/StakingReward.sol\":1095:1130  rewardsToken = IERC20(_rewardToken) */\n  0xffffffffffffffffffffffffffffffffffffffff\n  and\n  0xa0\n  dup2\n  0xffffffffffffffffffffffffffffffffffffffff\n  and\n  dup2\n  mstore\n  pop\n  pop\n    /* \"20241011/StakingReward.sol\":954:1137  constructor(address _stakingToken, address _rewardToken) {... */\n  pop\n  pop\n    /* \"20241011/StakingReward.sol\":58:3998  contract StakingRewards {... */\n  jump(tag_6)\n    /* \"#utility.yul\":88:205   */\ntag_8:\n    /* \"#utility.yul\":197:198   */\n  0x00\n    /* \"#utility.yul\":194:195   */\n  dup1\n    /* \"#utility.yul\":187:199   */\n  revert\n    /* \"#utility.yul\":334:460   */\ntag_10:\n    /* \"#utility.yul\":371:378   */\n  0x00\n    /* \"#utility.yul\":411:453   */\n  0xffffffffffffffffffffffffffffffffffffffff\n    /* \"#utility.yul\":404:409   */\n  dup3\n    /* \"#utility.yul\":400:454   */\n  and\n    /* \"#utility.yul\":389:454   */\n  swap1\n  pop\n    /* \"#utility.yul\":334:460   */\n  swap2\n  swap1\n  pop\n  jump\t// out\n    /* \"#utility.yul\":466:562   */\ntag_11:\n    /* \"#utility.yul\":503:510   */\n  0x00\n    /* \"#utility.yul\":532:556   */\n  tag_20\n    /* \"#utility.yul\":550:555   */\n  dup3\n    /* \"#utility.yul\":532:556   */\n  tag_10\n  jump\t// in\ntag_20:\n    /* \"#utility.yul\":521:556   */\n  swap1\n  pop\n    /* \"#utility.yul\":466:562   */\n  swap2\n  swap1\n  pop\n  jump\t// out\n    /* \"#utility.yul\":568:690   */\ntag_12:\n    /* \"#utility.yul\":641:665   */\n  tag_22\n    /* \"#utility.yul\":659:664   */\n  dup2\n    /* \"#utility.yul\":641:665   */\n  tag_11\n  jump\t// in\ntag_22:\n    /* \"#utility.yul\":634:639   */\n  dup2\n    /* \"#utility.yul\":631:666   */\n  eq\n    /* \"#utility.yul\":621:684   */\n  tag_23\n  jumpi\n    /* \"#utility.yul\":680:681   */\n  0x00\n    /* \"#utility.yul\":677:678   */\n  dup1\n    /* \"#utility.yul\":670:682   */\n  revert\n    /* \"#utility.yul\":621:684   */\ntag_23:\n    /* \"#utility.yul\":568:690   */\n  pop\n  jump\t// out\n    /* \"#utility.yul\":696:839   */\ntag_13:\n    /* \"#utility.yul\":753:758   */\n  0x00\n    /* \"#utility.yul\":784:790   */\n  dup2\n    /* \"#utility.yul\":778:791   */\n  mload\n    /* \"#utility.yul\":769:791   */\n  swap1\n  pop\n    /* \"#utility.yul\":800:833   */\n  tag_25\n    /* \"#utility.yul\":827:832   */\n  dup2\n    /* \"#utility.yul\":800:833   */\n  tag_12\n  jump\t// in\ntag_25:\n    /* \"#utility.yul\":696:839   */\n  swap3\n  swap2\n  pop\n  pop\n  jump\t// out\n    /* \"#utility.yul\":845:1352   */\ntag_3:\n    /* \"#utility.yul\":924:930   */\n  0x00\n    /* \"#utility.yul\":932:938   */\n  dup1\n    /* \"#utility.yul\":981:983   */\n  0x40\n    /* \"#utility.yul\":969:978   */\n  dup4\n    /* \"#utility.yul\":960:967   */\n  dup6\n    /* \"#utility.yul\":956:979   */\n  sub\n    /* \"#utility.yul\":952:984   */\n  slt\n    /* \"#utility.yul\":949:1068   */\n  iszero\n  tag_27\n  jumpi\n    /* \"#utility.yul\":987:1066   */\n  tag_28\n  tag_8\n  jump\t// in\ntag_28:\n    /* \"#utility.yul\":949:1068   */\ntag_27:\n    /* \"#utility.yul\":1107:1108   */\n  0x00\n    /* \"#utility.yul\":1132:1196   */\n  tag_29\n    /* \"#utility.yul\":1188:1195   */\n  dup6\n    /* \"#utility.yul\":1179:1185   */\n  dup3\n    /* \"#utility.yul\":1168:1177   */\n  dup7\n    /* \"#utility.yul\":1164:1186   */\n  add\n    /* \"#utility.yul\":1132:1196   */\n  tag_13\n  jump\t// in\ntag_29:\n    /* \"#utility.yul\":1122:1196   */\n  swap3\n  pop\n    /* \"#utility.yul\":1078:1206   */\n  pop\n    /* \"#utility.yul\":1245:1247   */\n  0x20\n    /* \"#utility.yul\":1271:1335   */\n  tag_30\n    /* \"#utility.yul\":1327:1334   */\n  dup6\n    /* \"#utility.yul\":1318:1324   */\n  dup3\n    /* \"#utility.yul\":1307:1316   */\n  dup7\n    /* \"#utility.yul\":1303:1325   */\n  add\n    /* \"#utility.yul\":1271:1335   */\n  tag_13\n  jump\t// in\ntag_30:\n    /* \"#utility.yul\":1261:1335   */\n  swap2\n  pop\n    /* \"#utility.yul\":1216:1345   */\n  pop\n    /* \"#utility.yul\":845:1352   */\n  swap3\n  pop\n  swap3\n  swap1\n  pop\n  jump\t// out\n    /* \"20241011/StakingReward.sol\":58:3998  contract StakingRewards {... */\ntag_6:\n  mload(0x80)\n  mload(0xa0)\n  codecopy(0x00, dataOffset(sub_0), dataSize(sub_0))\n  0x00\n  assignImmutable(\"0x52f1a9b320cab38e5da8a8f97989383aab0a49165fc91c737310e4f7e9821021\")\n  0x00\n  assignImmutable(\"0x13600b294191fc92924bb3ce4b969c1e7e2bab8f4c93c3fc6d0a51733df3c060\")\n  return(0x00, dataSize(sub_0))\nstop\n\nsub_0: assembly {\n        /* \"20241011/StakingReward.sol\":58:3998  contract StakingRewards {... */\n      mstore(0x40, 0x80)\n      callvalue\n      dup1\n      iszero\n      tag_1\n      jumpi\n      0x00\n      dup1\n      revert\n    tag_1:\n      pop\n      jumpi(tag_2, lt(calldatasize, 0x04))\n      shr(0xe0, calldataload(0x00))\n      dup1\n      0x7519ab50\n      gt\n      tag_23\n      jumpi\n      dup1\n      0xa694fc3a\n      gt\n      tag_24\n      jumpi\n      dup1\n      0xa694fc3a\n      eq\n      tag_18\n      jumpi\n      dup1\n      0xcc1a378f\n      eq\n      tag_19\n      jumpi\n      dup1\n      0xcd3daf9d\n      eq\n      tag_20\n      jumpi\n      dup1\n      0xd1af0c7d\n      eq\n      tag_21\n      jumpi\n      dup1\n      0xdf136d65\n      eq\n      tag_22\n      jumpi\n      jump(tag_2)\n    tag_24:\n      dup1\n      0x7519ab50\n      eq\n      tag_13\n      jumpi\n      dup1\n      0x7b0a47ee\n      eq\n      tag_14\n      jumpi\n      dup1\n      0x80faa57d\n      eq\n      tag_15\n      jumpi\n      dup1\n      0x8b876347\n      eq\n      tag_16\n      jumpi\n      dup1\n      0x8da5cb5b\n      eq\n      tag_17\n      jumpi\n      jump(tag_2)\n    tag_23:\n      dup1\n      0x3c6b16ab\n      gt\n      tag_25\n      jumpi\n      dup1\n      0x3c6b16ab\n      eq\n      tag_8\n      jumpi\n      dup1\n      0x3d18b912\n      eq\n      tag_9\n      jumpi\n      dup1\n      0x67d3b488\n      eq\n      tag_10\n      jumpi\n      dup1\n      0x70a08231\n      eq\n      tag_11\n      jumpi\n      dup1\n      0x72f702f3\n      eq\n      tag_12\n      jumpi\n      jump(tag_2)\n    tag_25:\n      dup1\n      0x8cc262\n      eq\n      tag_3\n      jumpi\n      dup1\n      0x0700037d\n      eq\n      tag_4\n      jumpi\n      dup1\n      0x0fb5a6b4\n      eq\n      tag_5\n      jumpi\n      dup1\n      0x18160ddd\n      eq\n      tag_6\n      jumpi\n      dup1\n      0x2e1a7d4d\n      eq\n      tag_7\n      jumpi\n    tag_2:\n      0x00\n      dup1\n      revert\n        /* \"20241011/StakingReward.sol\":2518:2784  function earned(address _account) public view returns (uint256) {... */\n    tag_3:\n      tag_26\n      0x04\n      dup1\n      calldatasize\n      sub\n      dup2\n      add\n      swap1\n      tag_27\n      swap2\n      swap1\n      tag_28\n      jump\t// in\n    tag_27:\n      tag_29\n      jump\t// in\n    tag_26:\n      mload(0x40)\n      tag_30\n      swap2\n      swap1\n      tag_31\n      jump\t// in\n    tag_30:\n      mload(0x40)\n      dup1\n      swap2\n      sub\n      swap1\n      return\n        /* \"20241011/StakingReward.sol\":765:807  mapping(address => uint256) public rewards */\n    tag_4:\n      tag_32\n      0x04\n      dup1\n      calldatasize\n      sub\n      dup2\n      add\n      swap1\n      tag_33\n      swap2\n      swap1\n      tag_28\n      jump\t// in\n    tag_33:\n      tag_34\n      jump\t// in\n    tag_32:\n      mload(0x40)\n      tag_35\n      swap2\n      swap1\n      tag_31\n      jump\t// in\n    tag_35:\n      mload(0x40)\n      dup1\n      swap2\n      sub\n      swap1\n      return\n        /* \"20241011/StakingReward.sol\":255:278  uint256 public duration */\n    tag_5:\n      tag_36\n      tag_37\n      jump\t// in\n    tag_36:\n      mload(0x40)\n      tag_38\n      swap2\n      swap1\n      tag_31\n      jump\t// in\n    tag_38:\n      mload(0x40)\n      dup1\n      swap2\n      sub\n      swap1\n      return\n        /* \"20241011/StakingReward.sol\":834:860  uint256 public totalSupply */\n    tag_6:\n      tag_39\n      tag_40\n      jump\t// in\n    tag_39:\n      mload(0x40)\n      tag_41\n      swap2\n      swap1\n      tag_31\n      jump\t// in\n    tag_41:\n      mload(0x40)\n      dup1\n      swap2\n      sub\n      swap1\n      return\n        /* \"20241011/StakingReward.sol\":2266:2512  function withdraw(uint256 _amount) external updateReward(msg.sender) {... */\n    tag_7:\n      tag_42\n      0x04\n      dup1\n      calldatasize\n      sub\n      dup2\n      add\n      swap1\n      tag_43\n      swap2\n      swap1\n      tag_44\n      jump\t// in\n    tag_43:\n      tag_45\n      jump\t// in\n    tag_42:\n      stop\n        /* \"20241011/StakingReward.sol\":3218:3885  function notifyRewardAmount(uint256 _amount)... */\n    tag_8:\n      tag_46\n      0x04\n      dup1\n      calldatasize\n      sub\n      dup2\n      add\n      swap1\n      tag_47\n      swap2\n      swap1\n      tag_44\n      jump\t// in\n    tag_47:\n      tag_48\n      jump\t// in\n    tag_46:\n      stop\n        /* \"20241011/StakingReward.sol\":2790:3026  function getReward() external updateReward(msg.sender) {... */\n    tag_9:\n      tag_49\n      tag_50\n      jump\t// in\n    tag_49:\n      stop\n        /* \"20241011/StakingReward.sol\":328:351  uint256 public finishAt */\n    tag_10:\n      tag_51\n      tag_52\n      jump\t// in\n    tag_51:\n      mload(0x40)\n      tag_53\n      swap2\n      swap1\n      tag_31\n      jump\t// in\n    tag_53:\n      mload(0x40)\n      dup1\n      swap2\n      sub\n      swap1\n      return\n        /* \"20241011/StakingReward.sol\":903:947  mapping(address => uint256) public balanceOf */\n    tag_11:\n      tag_54\n      0x04\n      dup1\n      calldatasize\n      sub\n      dup2\n      add\n      swap1\n      tag_55\n      swap2\n      swap1\n      tag_28\n      jump\t// in\n    tag_55:\n      tag_56\n      jump\t// in\n    tag_54:\n      mload(0x40)\n      tag_57\n      swap2\n      swap1\n      tag_31\n      jump\t// in\n    tag_57:\n      mload(0x40)\n      dup1\n      swap2\n      sub\n      swap1\n      return\n        /* \"20241011/StakingReward.sol\":88:124  IERC20 public immutable stakingToken */\n    tag_12:\n      tag_58\n      tag_59\n      jump\t// in\n    tag_58:\n      mload(0x40)\n      tag_60\n      swap2\n      swap1\n      tag_61\n      jump\t// in\n    tag_60:\n      mload(0x40)\n      dup1\n      swap2\n      sub\n      swap1\n      return\n        /* \"20241011/StakingReward.sol\":416:440  uint256 public updatedAt */\n    tag_13:\n      tag_62\n      tag_63\n      jump\t// in\n    tag_62:\n      mload(0x40)\n      tag_64\n      swap2\n      swap1\n      tag_31\n      jump\t// in\n    tag_64:\n      mload(0x40)\n      dup1\n      swap2\n      sub\n      swap1\n      return\n        /* \"20241011/StakingReward.sol\":486:511  uint256 public rewardRate */\n    tag_14:\n      tag_65\n      tag_66\n      jump\t// in\n    tag_65:\n      mload(0x40)\n      tag_67\n      swap2\n      swap1\n      tag_31\n      jump\t// in\n    tag_67:\n      mload(0x40)\n      dup1\n      swap2\n      sub\n      swap1\n      return\n        /* \"20241011/StakingReward.sol\":1574:1695  function lastTimeRewardApplicable() public view returns (uint256) {... */\n    tag_15:\n      tag_68\n      tag_69\n      jump\t// in\n    tag_68:\n      mload(0x40)\n      tag_70\n      swap2\n      swap1\n      tag_31\n      jump\t// in\n    tag_70:\n      mload(0x40)\n      dup1\n      swap2\n      sub\n      swap1\n      return\n        /* \"20241011/StakingReward.sol\":657:714  mapping(address => uint256) public userRewardPerTokenPaid */\n    tag_16:\n      tag_71\n      0x04\n      dup1\n      calldatasize\n      sub\n      dup2\n      add\n      swap1\n      tag_72\n      swap2\n      swap1\n      tag_28\n      jump\t// in\n    tag_72:\n      tag_73\n      jump\t// in\n    tag_71:\n      mload(0x40)\n      tag_74\n      swap2\n      swap1\n      tag_31\n      jump\t// in\n    tag_74:\n      mload(0x40)\n      dup1\n      swap2\n      sub\n      swap1\n      return\n        /* \"20241011/StakingReward.sol\":173:193  address public owner */\n    tag_17:\n      tag_75\n      tag_76\n      jump\t// in\n    tag_75:\n      mload(0x40)\n      tag_77\n      swap2\n      swap1\n      tag_78\n      jump\t// in\n    tag_77:\n      mload(0x40)\n      dup1\n      swap2\n      sub\n      swap1\n      return\n        /* \"20241011/StakingReward.sol\":1998:2260  function stake(uint256 _amount) external updateReward(msg.sender) {... */\n    tag_18:\n      tag_79\n      0x04\n      dup1\n      calldatasize\n      sub\n      dup2\n      add\n      swap1\n      tag_80\n      swap2\n      swap1\n      tag_44\n      jump\t// in\n    tag_80:\n      tag_81\n      jump\t// in\n    tag_79:\n      stop\n        /* \"20241011/StakingReward.sol\":3032:3212  function setRewardsDuration(uint256 _duration) external onlyOwner {... */\n    tag_19:\n      tag_82\n      0x04\n      dup1\n      calldatasize\n      sub\n      dup2\n      add\n      swap1\n      tag_83\n      swap2\n      swap1\n      tag_44\n      jump\t// in\n    tag_83:\n      tag_84\n      jump\t// in\n    tag_82:\n      stop\n        /* \"20241011/StakingReward.sol\":1701:1992  function rewardPerToken() public view returns (uint256) {... */\n    tag_20:\n      tag_85\n      tag_86\n      jump\t// in\n    tag_85:\n      mload(0x40)\n      tag_87\n      swap2\n      swap1\n      tag_31\n      jump\t// in\n    tag_87:\n      mload(0x40)\n      dup1\n      swap2\n      sub\n      swap1\n      return\n        /* \"20241011/StakingReward.sol\":130:166  IERC20 public immutable rewardsToken */\n    tag_21:\n      tag_88\n      tag_89\n      jump\t// in\n    tag_88:\n      mload(0x40)\n      tag_90\n      swap2\n      swap1\n      tag_61\n      jump\t// in\n    tag_90:\n      mload(0x40)\n      dup1\n      swap2\n      sub\n      swap1\n      return\n        /* \"20241011/StakingReward.sol\":572:607  uint256 public rewardPerTokenStored */\n    tag_22:\n      tag_91\n      tag_92\n      jump\t// in\n    tag_91:\n      mload(0x40)\n      tag_93\n      swap2\n      swap1\n      tag_31\n      jump\t// in\n    tag_93:\n      mload(0x40)\n      dup1\n      swap2\n      sub\n      swap1\n      return\n        /* \"20241011/StakingReward.sol\":2518:2784  function earned(address _account) public view returns (uint256) {... */\n    tag_29:\n        /* \"20241011/StakingReward.sol\":2573:2580  uint256 */\n      0x00\n        /* \"20241011/StakingReward.sol\":2760:2767  rewards */\n      0x07\n        /* \"20241011/StakingReward.sol\":2760:2777  rewards[_account] */\n      0x00\n        /* \"20241011/StakingReward.sol\":2768:2776  _account */\n      dup4\n        /* \"20241011/StakingReward.sol\":2760:2777  rewards[_account] */\n      0xffffffffffffffffffffffffffffffffffffffff\n      and\n      0xffffffffffffffffffffffffffffffffffffffff\n      and\n      dup2\n      mstore\n      0x20\n      add\n      swap1\n      dup2\n      mstore\n      0x20\n      add\n      0x00\n      keccak256\n      sload\n        /* \"20241011/StakingReward.sol\":2743:2747  1e18 */\n      0x0de0b6b3a7640000\n        /* \"20241011/StakingReward.sol\":2693:2715  userRewardPerTokenPaid */\n      0x06\n        /* \"20241011/StakingReward.sol\":2693:2725  userRewardPerTokenPaid[_account] */\n      0x00\n        /* \"20241011/StakingReward.sol\":2716:2724  _account */\n      dup6\n        /* \"20241011/StakingReward.sol\":2693:2725  userRewardPerTokenPaid[_account] */\n      0xffffffffffffffffffffffffffffffffffffffff\n      and\n      0xffffffffffffffffffffffffffffffffffffffff\n      and\n      dup2\n      mstore\n      0x20\n      add\n      swap1\n      dup2\n      mstore\n      0x20\n      add\n      0x00\n      keccak256\n      sload\n        /* \"20241011/StakingReward.sol\":2674:2690  rewardPerToken() */\n      tag_95\n        /* \"20241011/StakingReward.sol\":2674:2688  rewardPerToken */\n      tag_86\n        /* \"20241011/StakingReward.sol\":2674:2690  rewardPerToken() */\n      jump\t// in\n    tag_95:\n        /* \"20241011/StakingReward.sol\":2674:2725  rewardPerToken() - userRewardPerTokenPaid[_account] */\n      tag_96\n      swap2\n      swap1\n      tag_97\n      jump\t// in\n    tag_96:\n        /* \"20241011/StakingReward.sol\":2631:2640  balanceOf */\n      0x09\n        /* \"20241011/StakingReward.sol\":2631:2650  balanceOf[_account] */\n      0x00\n        /* \"20241011/StakingReward.sol\":2641:2649  _account */\n      dup7\n        /* \"20241011/StakingReward.sol\":2631:2650  balanceOf[_account] */\n      0xffffffffffffffffffffffffffffffffffffffff\n      and\n      0xffffffffffffffffffffffffffffffffffffffff\n      and\n      dup2\n      mstore\n      0x20\n      add\n      swap1\n      dup2\n      mstore\n      0x20\n      add\n      0x00\n      keccak256\n      sload\n        /* \"20241011/StakingReward.sol\":2631:2726  balanceOf[_account]... */\n      tag_98\n      swap2\n      swap1\n      tag_99\n      jump\t// in\n    tag_98:\n        /* \"20241011/StakingReward.sol\":2613:2747  (... */\n      tag_100\n      swap2\n      swap1\n      tag_101\n      jump\t// in\n    tag_100:\n        /* \"20241011/StakingReward.sol\":2599:2777  (... */\n      tag_102\n      swap2\n      swap1\n      tag_103\n      jump\t// in\n    tag_102:\n        /* \"20241011/StakingReward.sol\":2592:2777  return (... */\n      swap1\n      pop\n        /* \"20241011/StakingReward.sol\":2518:2784  function earned(address _account) public view returns (uint256) {... */\n      swap2\n      swap1\n      pop\n      jump\t// out\n        /* \"20241011/StakingReward.sol\":765:807  mapping(address => uint256) public rewards */\n    tag_34:\n      mstore(0x20, 0x07)\n      dup1\n      0x00\n      mstore\n      keccak256(0x00, 0x40)\n      0x00\n      swap2\n      pop\n      swap1\n      pop\n      sload\n      dup2\n      jump\t// out\n        /* \"20241011/StakingReward.sol\":255:278  uint256 public duration */\n    tag_37:\n      sload(0x01)\n      dup2\n      jump\t// out\n        /* \"20241011/StakingReward.sol\":834:860  uint256 public totalSupply */\n    tag_40:\n      sload(0x08)\n      dup2\n      jump\t// out\n        /* \"20241011/StakingReward.sol\":2266:2512  function withdraw(uint256 _amount) external updateReward(msg.sender) {... */\n    tag_45:\n        /* \"20241011/StakingReward.sol\":2323:2333  msg.sender */\n      caller\n        /* \"20241011/StakingReward.sol\":1317:1333  rewardPerToken() */\n      tag_105\n        /* \"20241011/StakingReward.sol\":1317:1331  rewardPerToken */\n      tag_86\n        /* \"20241011/StakingReward.sol\":1317:1333  rewardPerToken() */\n      jump\t// in\n    tag_105:\n        /* \"20241011/StakingReward.sol\":1294:1314  rewardPerTokenStored */\n      0x05\n        /* \"20241011/StakingReward.sol\":1294:1333  rewardPerTokenStored = rewardPerToken() */\n      dup2\n      swap1\n      sstore\n      pop\n        /* \"20241011/StakingReward.sol\":1355:1381  lastTimeRewardApplicable() */\n      tag_106\n        /* \"20241011/StakingReward.sol\":1355:1379  lastTimeRewardApplicable */\n      tag_69\n        /* \"20241011/StakingReward.sol\":1355:1381  lastTimeRewardApplicable() */\n      jump\t// in\n    tag_106:\n        /* \"20241011/StakingReward.sol\":1343:1352  updatedAt */\n      0x03\n        /* \"20241011/StakingReward.sol\":1343:1381  updatedAt = lastTimeRewardApplicable() */\n      dup2\n      swap1\n      sstore\n      pop\n        /* \"20241011/StakingReward.sol\":1416:1417  0 */\n      0x00\n        /* \"20241011/StakingReward.sol\":1396:1418  _account != address(0) */\n      0xffffffffffffffffffffffffffffffffffffffff\n      and\n        /* \"20241011/StakingReward.sol\":1396:1404  _account */\n      dup2\n        /* \"20241011/StakingReward.sol\":1396:1418  _account != address(0) */\n      0xffffffffffffffffffffffffffffffffffffffff\n      and\n      eq\n        /* \"20241011/StakingReward.sol\":1392:1550  if (_account != address(0)) {... */\n      tag_107\n      jumpi\n        /* \"20241011/StakingReward.sol\":1454:1470  earned(_account) */\n      tag_108\n        /* \"20241011/StakingReward.sol\":1461:1469  _account */\n      dup2\n        /* \"20241011/StakingReward.sol\":1454:1460  earned */\n      tag_29\n        /* \"20241011/StakingReward.sol\":1454:1470  earned(_account) */\n      jump\t// in\n    tag_108:\n        /* \"20241011/StakingReward.sol\":1434:1441  rewards */\n      0x07\n        /* \"20241011/StakingReward.sol\":1434:1451  rewards[_account] */\n      0x00\n        /* \"20241011/StakingReward.sol\":1442:1450  _account */\n      dup4\n        /* \"20241011/StakingReward.sol\":1434:1451  rewards[_account] */\n      0xffffffffffffffffffffffffffffffffffffffff\n      and\n      0xffffffffffffffffffffffffffffffffffffffff\n      and\n      dup2\n      mstore\n      0x20\n      add\n      swap1\n      dup2\n      mstore\n      0x20\n      add\n      0x00\n      keccak256\n        /* \"20241011/StakingReward.sol\":1434:1470  rewards[_account] = earned(_account) */\n      dup2\n      swap1\n      sstore\n      pop\n        /* \"20241011/StakingReward.sol\":1519:1539  rewardPerTokenStored */\n      sload(0x05)\n        /* \"20241011/StakingReward.sol\":1484:1506  userRewardPerTokenPaid */\n      0x06\n        /* \"20241011/StakingReward.sol\":1484:1516  userRewardPerTokenPaid[_account] */\n      0x00\n        /* \"20241011/StakingReward.sol\":1507:1515  _account */\n      dup4\n        /* \"20241011/StakingReward.sol\":1484:1516  userRewardPerTokenPaid[_account] */\n      0xffffffffffffffffffffffffffffffffffffffff\n      and\n      0xffffffffffffffffffffffffffffffffffffffff\n      and\n      dup2\n      mstore\n      0x20\n      add\n      swap1\n      dup2\n      mstore\n      0x20\n      add\n      0x00\n      keccak256\n        /* \"20241011/StakingReward.sol\":1484:1539  userRewardPerTokenPaid[_account] = rewardPerTokenStored */\n      dup2\n      swap1\n      sstore\n      pop\n        /* \"20241011/StakingReward.sol\":1392:1550  if (_account != address(0)) {... */\n    tag_107:\n        /* \"20241011/StakingReward.sol\":2363:2364  0 */\n      0x00\n        /* \"20241011/StakingReward.sol\":2353:2360  _amount */\n      dup3\n        /* \"20241011/StakingReward.sol\":2353:2364  _amount > 0 */\n      gt\n        /* \"20241011/StakingReward.sol\":2345:2379  require(_amount > 0, \"amount = 0\") */\n      tag_110\n      jumpi\n      mload(0x40)\n      0x08c379a000000000000000000000000000000000000000000000000000000000\n      dup2\n      mstore\n      0x04\n      add\n      tag_111\n      swap1\n      tag_112\n      jump\t// in\n    tag_111:\n      mload(0x40)\n      dup1\n      swap2\n      sub\n      swap1\n      revert\n    tag_110:\n        /* \"20241011/StakingReward.sol\":2414:2421  _amount */\n      dup2\n        /* \"20241011/StakingReward.sol\":2389:2398  balanceOf */\n      0x09\n        /* \"20241011/StakingReward.sol\":2389:2410  balanceOf[msg.sender] */\n      0x00\n        /* \"20241011/StakingReward.sol\":2399:2409  msg.sender */\n      caller\n        /* \"20241011/StakingReward.sol\":2389:2410  balanceOf[msg.sender] */\n      0xffffffffffffffffffffffffffffffffffffffff\n      and\n      0xffffffffffffffffffffffffffffffffffffffff\n      and\n      dup2\n      mstore\n      0x20\n      add\n      swap1\n      dup2\n      mstore\n      0x20\n      add\n      0x00\n      keccak256\n      0x00\n        /* \"20241011/StakingReward.sol\":2389:2421  balanceOf[msg.sender] -= _amount */\n      dup3\n      dup3\n      sload\n      tag_113\n      swap2\n      swap1\n      tag_97\n      jump\t// in\n    tag_113:\n      swap3\n      pop\n      pop\n      dup2\n      swap1\n      sstore\n      pop\n        /* \"20241011/StakingReward.sol\":2446:2453  _amount */\n      dup2\n        /* \"20241011/StakingReward.sol\":2431:2442  totalSupply */\n      0x08\n      0x00\n        /* \"20241011/StakingReward.sol\":2431:2453  totalSupply -= _amount */\n      dup3\n      dup3\n      sload\n      tag_114\n      swap2\n      swap1\n      tag_97\n      jump\t// in\n    tag_114:\n      swap3\n      pop\n      pop\n      dup2\n      swap1\n      sstore\n      pop\n        /* \"20241011/StakingReward.sol\":2463:2475  stakingToken */\n      immutable(\"0x13600b294191fc92924bb3ce4b969c1e7e2bab8f4c93c3fc6d0a51733df3c060\")\n        /* \"20241011/StakingReward.sol\":2463:2484  stakingToken.transfer */\n      0xffffffffffffffffffffffffffffffffffffffff\n      and\n      0xa9059cbb\n        /* \"20241011/StakingReward.sol\":2485:2495  msg.sender */\n      caller\n        /* \"20241011/StakingReward.sol\":2497:2504  _amount */\n      dup5\n        /* \"20241011/StakingReward.sol\":2463:2505  stakingToken.transfer(msg.sender, _amount) */\n      mload(0x40)\n      dup4\n      0xffffffff\n      and\n      0xe0\n      shl\n      dup2\n      mstore\n      0x04\n      add\n      tag_115\n      swap3\n      swap2\n      swap1\n      tag_116\n      jump\t// in\n    tag_115:\n      0x20\n      mload(0x40)\n      dup1\n      dup4\n      sub\n      dup2\n      0x00\n      dup8\n      gas\n      call\n      iszero\n      dup1\n      iszero\n      tag_118\n      jumpi\n      returndatasize\n      0x00\n      dup1\n      returndatacopy\n      revert(0x00, returndatasize)\n    tag_118:\n      pop\n      pop\n      pop\n      pop\n      mload(0x40)\n      returndatasize\n      not(0x1f)\n      0x1f\n      dup3\n      add\n      and\n      dup3\n      add\n      dup1\n      0x40\n      mstore\n      pop\n      dup2\n      add\n      swap1\n      tag_119\n      swap2\n      swap1\n      tag_120\n      jump\t// in\n    tag_119:\n      pop\n        /* \"20241011/StakingReward.sol\":2266:2512  function withdraw(uint256 _amount) external updateReward(msg.sender) {... */\n      pop\n      pop\n      jump\t// out\n        /* \"20241011/StakingReward.sol\":3218:3885  function notifyRewardAmount(uint256 _amount)... */\n    tag_48:\n        /* \"20241011/StakingReward.sol\":1196:1201  owner */\n      0x00\n      dup1\n      sload\n      swap1\n      0x0100\n      exp\n      swap1\n      div\n      0xffffffffffffffffffffffffffffffffffffffff\n      and\n        /* \"20241011/StakingReward.sol\":1182:1201  msg.sender == owner */\n      0xffffffffffffffffffffffffffffffffffffffff\n      and\n        /* \"20241011/StakingReward.sol\":1182:1192  msg.sender */\n      caller\n        /* \"20241011/StakingReward.sol\":1182:1201  msg.sender == owner */\n      0xffffffffffffffffffffffffffffffffffffffff\n      and\n      eq\n        /* \"20241011/StakingReward.sol\":1174:1220  require(msg.sender == owner, \"not authorized\") */\n      tag_122\n      jumpi\n      mload(0x40)\n      0x08c379a000000000000000000000000000000000000000000000000000000000\n      dup2\n      mstore\n      0x04\n      add\n      tag_123\n      swap1\n      tag_124\n      jump\t// in\n    tag_123:\n      mload(0x40)\n      dup1\n      swap2\n      sub\n      swap1\n      revert\n    tag_122:\n        /* \"20241011/StakingReward.sol\":3327:3328  0 */\n      0x00\n        /* \"20241011/StakingReward.sol\":1317:1333  rewardPerToken() */\n      tag_126\n        /* \"20241011/StakingReward.sol\":1317:1331  rewardPerToken */\n      tag_86\n        /* \"20241011/StakingReward.sol\":1317:1333  rewardPerToken() */\n      jump\t// in\n    tag_126:\n        /* \"20241011/StakingReward.sol\":1294:1314  rewardPerTokenStored */\n      0x05\n        /* \"20241011/StakingReward.sol\":1294:1333  rewardPerTokenStored = rewardPerToken() */\n      dup2\n      swap1\n      sstore\n      pop\n        /* \"20241011/StakingReward.sol\":1355:1381  lastTimeRewardApplicable() */\n      tag_127\n        /* \"20241011/StakingReward.sol\":1355:1379  lastTimeRewardApplicable */\n      tag_69\n        /* \"20241011/StakingReward.sol\":1355:1381  lastTimeRewardApplicable() */\n      jump\t// in\n    tag_127:\n        /* \"20241011/StakingReward.sol\":1343:1352  updatedAt */\n      0x03\n        /* \"20241011/StakingReward.sol\":1343:1381  updatedAt = lastTimeRewardApplicable() */\n      dup2\n      swap1\n      sstore\n      pop\n        /* \"20241011/StakingReward.sol\":1416:1417  0 */\n      0x00\n        /* \"20241011/StakingReward.sol\":1396:1418  _account != address(0) */\n      0xffffffffffffffffffffffffffffffffffffffff\n      and\n        /* \"20241011/StakingReward.sol\":1396:1404  _account */\n      dup2\n        /* \"20241011/StakingReward.sol\":1396:1418  _account != address(0) */\n      0xffffffffffffffffffffffffffffffffffffffff\n      and\n      eq\n        /* \"20241011/StakingReward.sol\":1392:1550  if (_account != address(0)) {... */\n      tag_128\n      jumpi\n        /* \"20241011/StakingReward.sol\":1454:1470  earned(_account) */\n      tag_129\n        /* \"20241011/StakingReward.sol\":1461:1469  _account */\n      dup2\n        /* \"20241011/StakingReward.sol\":1454:1460  earned */\n      tag_29\n        /* \"20241011/StakingReward.sol\":1454:1470  earned(_account) */\n      jump\t// in\n    tag_129:\n        /* \"20241011/StakingReward.sol\":1434:1441  rewards */\n      0x07\n        /* \"20241011/StakingReward.sol\":1434:1451  rewards[_account] */\n      0x00\n        /* \"20241011/StakingReward.sol\":1442:1450  _account */\n      dup4\n        /* \"20241011/StakingReward.sol\":1434:1451  rewards[_account] */\n      0xffffffffffffffffffffffffffffffffffffffff\n      and\n      0xffffffffffffffffffffffffffffffffffffffff\n      and\n      dup2\n      mstore\n      0x20\n      add\n      swap1\n      dup2\n      mstore\n      0x20\n      add\n      0x00\n      keccak256\n        /* \"20241011/StakingReward.sol\":1434:1470  rewards[_account] = earned(_account) */\n      dup2\n      swap1\n      sstore\n      pop\n        /* \"20241011/StakingReward.sol\":1519:1539  rewardPerTokenStored */\n      sload(0x05)\n        /* \"20241011/StakingReward.sol\":1484:1506  userRewardPerTokenPaid */\n      0x06\n        /* \"20241011/StakingReward.sol\":1484:1516  userRewardPerTokenPaid[_account] */\n      0x00\n        /* \"20241011/StakingReward.sol\":1507:1515  _account */\n      dup4\n        /* \"20241011/StakingReward.sol\":1484:1516  userRewardPerTokenPaid[_account] */\n      0xffffffffffffffffffffffffffffffffffffffff\n      and\n      0xffffffffffffffffffffffffffffffffffffffff\n      and\n      dup2\n      mstore\n      0x20\n      add\n      swap1\n      dup2\n      mstore\n      0x20\n      add\n      0x00\n      keccak256\n        /* \"20241011/StakingReward.sol\":1484:1539  userRewardPerTokenPaid[_account] = rewardPerTokenStored */\n      dup2\n      swap1\n      sstore\n      pop\n        /* \"20241011/StakingReward.sol\":1392:1550  if (_account != address(0)) {... */\n    tag_128:\n        /* \"20241011/StakingReward.sol\":3368:3376  finishAt */\n      sload(0x02)\n        /* \"20241011/StakingReward.sol\":3349:3364  block.timestamp */\n      timestamp\n        /* \"20241011/StakingReward.sol\":3349:3376  block.timestamp >= finishAt */\n      lt\n        /* \"20241011/StakingReward.sol\":3345:3599  if (block.timestamp >= finishAt) {... */\n      tag_131\n      jumpi\n        /* \"20241011/StakingReward.sol\":3415:3423  duration */\n      sload(0x01)\n        /* \"20241011/StakingReward.sol\":3405:3412  _amount */\n      dup3\n        /* \"20241011/StakingReward.sol\":3405:3423  _amount / duration */\n      tag_132\n      swap2\n      swap1\n      tag_101\n      jump\t// in\n    tag_132:\n        /* \"20241011/StakingReward.sol\":3392:3402  rewardRate */\n      0x04\n        /* \"20241011/StakingReward.sol\":3392:3423  rewardRate = _amount / duration */\n      dup2\n      swap1\n      sstore\n      pop\n        /* \"20241011/StakingReward.sol\":3345:3599  if (block.timestamp >= finishAt) {... */\n      jump(tag_133)\n    tag_131:\n        /* \"20241011/StakingReward.sol\":3454:3478  uint256 remainingRewards */\n      0x00\n        /* \"20241011/StakingReward.sol\":3512:3522  rewardRate */\n      sload(0x04)\n        /* \"20241011/StakingReward.sol\":3493:3508  block.timestamp */\n      timestamp\n        /* \"20241011/StakingReward.sol\":3482:3490  finishAt */\n      sload(0x02)\n        /* \"20241011/StakingReward.sol\":3482:3508  finishAt - block.timestamp */\n      tag_134\n      swap2\n      swap1\n      tag_97\n      jump\t// in\n    tag_134:\n        /* \"20241011/StakingReward.sol\":3481:3522  (finishAt - block.timestamp) * rewardRate */\n      tag_135\n      swap2\n      swap1\n      tag_99\n      jump\t// in\n    tag_135:\n        /* \"20241011/StakingReward.sol\":3454:3522  uint256 remainingRewards = (finishAt - block.timestamp) * rewardRate */\n      swap1\n      pop\n        /* \"20241011/StakingReward.sol\":3580:3588  duration */\n      sload(0x01)\n        /* \"20241011/StakingReward.sol\":3560:3576  remainingRewards */\n      dup2\n        /* \"20241011/StakingReward.sol\":3550:3557  _amount */\n      dup5\n        /* \"20241011/StakingReward.sol\":3550:3576  _amount + remainingRewards */\n      tag_136\n      swap2\n      swap1\n      tag_103\n      jump\t// in\n    tag_136:\n        /* \"20241011/StakingReward.sol\":3549:3588  (_amount + remainingRewards) / duration */\n      tag_137\n      swap2\n      swap1\n      tag_101\n      jump\t// in\n    tag_137:\n        /* \"20241011/StakingReward.sol\":3536:3546  rewardRate */\n      0x04\n        /* \"20241011/StakingReward.sol\":3536:3588  rewardRate = (_amount + remainingRewards) / duration */\n      dup2\n      swap1\n      sstore\n      pop\n        /* \"20241011/StakingReward.sol\":3440:3599  {... */\n      pop\n        /* \"20241011/StakingReward.sol\":3345:3599  if (block.timestamp >= finishAt) {... */\n    tag_133:\n        /* \"20241011/StakingReward.sol\":3630:3631  0 */\n      0x00\n        /* \"20241011/StakingReward.sol\":3617:3627  rewardRate */\n      sload(0x04)\n        /* \"20241011/StakingReward.sol\":3617:3631  rewardRate > 0 */\n      gt\n        /* \"20241011/StakingReward.sol\":3609:3651  require(rewardRate > 0, \"reward rate = 0\") */\n      tag_138\n      jumpi\n      mload(0x40)\n      0x08c379a000000000000000000000000000000000000000000000000000000000\n      dup2\n      mstore\n      0x04\n      add\n      tag_139\n      swap1\n      tag_140\n      jump\t// in\n    tag_139:\n      mload(0x40)\n      dup1\n      swap2\n      sub\n      swap1\n      revert\n    tag_138:\n        /* \"20241011/StakingReward.sol\":3707:3719  rewardsToken */\n      immutable(\"0x52f1a9b320cab38e5da8a8f97989383aab0a49165fc91c737310e4f7e9821021\")\n        /* \"20241011/StakingReward.sol\":3707:3729  rewardsToken.balanceOf */\n      0xffffffffffffffffffffffffffffffffffffffff\n      and\n      0x70a08231\n        /* \"20241011/StakingReward.sol\":3738:3742  this */\n      address\n        /* \"20241011/StakingReward.sol\":3707:3744  rewardsToken.balanceOf(address(this)) */\n      mload(0x40)\n      dup3\n      0xffffffff\n      and\n      0xe0\n      shl\n      dup2\n      mstore\n      0x04\n      add\n      tag_141\n      swap2\n      swap1\n      tag_78\n      jump\t// in\n    tag_141:\n      0x20\n      mload(0x40)\n      dup1\n      dup4\n      sub\n      dup2\n      dup7\n      gas\n      staticcall\n      iszero\n      dup1\n      iszero\n      tag_143\n      jumpi\n      returndatasize\n      0x00\n      dup1\n      returndatacopy\n      revert(0x00, returndatasize)\n    tag_143:\n      pop\n      pop\n      pop\n      pop\n      mload(0x40)\n      returndatasize\n      not(0x1f)\n      0x1f\n      dup3\n      add\n      and\n      dup3\n      add\n      dup1\n      0x40\n      mstore\n      pop\n      dup2\n      add\n      swap1\n      tag_144\n      swap2\n      swap1\n      tag_145\n      jump\t// in\n    tag_144:\n        /* \"20241011/StakingReward.sol\":3695:3703  duration */\n      sload(0x01)\n        /* \"20241011/StakingReward.sol\":3682:3692  rewardRate */\n      sload(0x04)\n        /* \"20241011/StakingReward.sol\":3682:3703  rewardRate * duration */\n      tag_146\n      swap2\n      swap1\n      tag_99\n      jump\t// in\n    tag_146:\n        /* \"20241011/StakingReward.sol\":3682:3744  rewardRate * duration <= rewardsToken.balanceOf(address(this)) */\n      gt\n      iszero\n        /* \"20241011/StakingReward.sol\":3661:3793  require(... */\n      tag_147\n      jumpi\n      mload(0x40)\n      0x08c379a000000000000000000000000000000000000000000000000000000000\n      dup2\n      mstore\n      0x04\n      add\n      tag_148\n      swap1\n      tag_149\n      jump\t// in\n    tag_148:\n      mload(0x40)\n      dup1\n      swap2\n      sub\n      swap1\n      revert\n    tag_147:\n        /* \"20241011/StakingReward.sol\":3833:3841  duration */\n      sload(0x01)\n        /* \"20241011/StakingReward.sol\":3815:3830  block.timestamp */\n      timestamp\n        /* \"20241011/StakingReward.sol\":3815:3841  block.timestamp + duration */\n      tag_150\n      swap2\n      swap1\n      tag_103\n      jump\t// in\n    tag_150:\n        /* \"20241011/StakingReward.sol\":3804:3812  finishAt */\n      0x02\n        /* \"20241011/StakingReward.sol\":3804:3841  finishAt = block.timestamp + duration */\n      dup2\n      swap1\n      sstore\n      pop\n        /* \"20241011/StakingReward.sol\":3863:3878  block.timestamp */\n      timestamp\n        /* \"20241011/StakingReward.sol\":3851:3860  updatedAt */\n      0x03\n        /* \"20241011/StakingReward.sol\":3851:3878  updatedAt = block.timestamp */\n      dup2\n      swap1\n      sstore\n      pop\n        /* \"20241011/StakingReward.sol\":1230:1231  _ */\n      pop\n        /* \"20241011/StakingReward.sol\":3218:3885  function notifyRewardAmount(uint256 _amount)... */\n      pop\n      jump\t// out\n        /* \"20241011/StakingReward.sol\":2790:3026  function getReward() external updateReward(msg.sender) {... */\n    tag_50:\n        /* \"20241011/StakingReward.sol\":2833:2843  msg.sender */\n      caller\n        /* \"20241011/StakingReward.sol\":1317:1333  rewardPerToken() */\n      tag_152\n        /* \"20241011/StakingReward.sol\":1317:1331  rewardPerToken */\n      tag_86\n        /* \"20241011/StakingReward.sol\":1317:1333  rewardPerToken() */\n      jump\t// in\n    tag_152:\n        /* \"20241011/StakingReward.sol\":1294:1314  rewardPerTokenStored */\n      0x05\n        /* \"20241011/StakingReward.sol\":1294:1333  rewardPerTokenStored = rewardPerToken() */\n      dup2\n      swap1\n      sstore\n      pop\n        /* \"20241011/StakingReward.sol\":1355:1381  lastTimeRewardApplicable() */\n      tag_153\n        /* \"20241011/StakingReward.sol\":1355:1379  lastTimeRewardApplicable */\n      tag_69\n        /* \"20241011/StakingReward.sol\":1355:1381  lastTimeRewardApplicable() */\n      jump\t// in\n    tag_153:\n        /* \"20241011/StakingReward.sol\":1343:1352  updatedAt */\n      0x03\n        /* \"20241011/StakingReward.sol\":1343:1381  updatedAt = lastTimeRewardApplicable() */\n      dup2\n      swap1\n      sstore\n      pop\n        /* \"20241011/StakingReward.sol\":1416:1417  0 */\n      0x00\n        /* \"20241011/StakingReward.sol\":1396:1418  _account != address(0) */\n      0xffffffffffffffffffffffffffffffffffffffff\n      and\n        /* \"20241011/StakingReward.sol\":1396:1404  _account */\n      dup2\n        /* \"20241011/StakingReward.sol\":1396:1418  _account != address(0) */\n      0xffffffffffffffffffffffffffffffffffffffff\n      and\n      eq\n        /* \"20241011/StakingReward.sol\":1392:1550  if (_account != address(0)) {... */\n      tag_154\n      jumpi\n        /* \"20241011/StakingReward.sol\":1454:1470  earned(_account) */\n      tag_155\n        /* \"20241011/StakingReward.sol\":1461:1469  _account */\n      dup2\n        /* \"20241011/StakingReward.sol\":1454:1460  earned */\n      tag_29\n        /* \"20241011/StakingReward.sol\":1454:1470  earned(_account) */\n      jump\t// in\n    tag_155:\n        /* \"20241011/StakingReward.sol\":1434:1441  rewards */\n      0x07\n        /* \"20241011/StakingReward.sol\":1434:1451  rewards[_account] */\n      0x00\n        /* \"20241011/StakingReward.sol\":1442:1450  _account */\n      dup4\n        /* \"20241011/StakingReward.sol\":1434:1451  rewards[_account] */\n      0xffffffffffffffffffffffffffffffffffffffff\n      and\n      0xffffffffffffffffffffffffffffffffffffffff\n      and\n      dup2\n      mstore\n      0x20\n      add\n      swap1\n      dup2\n      mstore\n      0x20\n      add\n      0x00\n      keccak256\n        /* \"20241011/StakingReward.sol\":1434:1470  rewards[_account] = earned(_account) */\n      dup2\n      swap1\n      sstore\n      pop\n        /* \"20241011/StakingReward.sol\":1519:1539  rewardPerTokenStored */\n      sload(0x05)\n        /* \"20241011/StakingReward.sol\":1484:1506  userRewardPerTokenPaid */\n      0x06\n        /* \"20241011/StakingReward.sol\":1484:1516  userRewardPerTokenPaid[_account] */\n      0x00\n        /* \"20241011/StakingReward.sol\":1507:1515  _account */\n      dup4\n        /* \"20241011/StakingReward.sol\":1484:1516  userRewardPerTokenPaid[_account] */\n      0xffffffffffffffffffffffffffffffffffffffff\n      and\n      0xffffffffffffffffffffffffffffffffffffffff\n      and\n      dup2\n      mstore\n      0x20\n      add\n      swap1\n      dup2\n      mstore\n      0x20\n      add\n      0x00\n      keccak256\n        /* \"20241011/StakingReward.sol\":1484:1539  userRewardPerTokenPaid[_account] = rewardPerTokenStored */\n      dup2\n      swap1\n      sstore\n      pop\n        /* \"20241011/StakingReward.sol\":1392:1550  if (_account != address(0)) {... */\n    tag_154:\n        /* \"20241011/StakingReward.sol\":2855:2869  uint256 reward */\n      0x00\n        /* \"20241011/StakingReward.sol\":2872:2879  rewards */\n      0x07\n        /* \"20241011/StakingReward.sol\":2872:2891  rewards[msg.sender] */\n      0x00\n        /* \"20241011/StakingReward.sol\":2880:2890  msg.sender */\n      caller\n        /* \"20241011/StakingReward.sol\":2872:2891  rewards[msg.sender] */\n      0xffffffffffffffffffffffffffffffffffffffff\n      and\n      0xffffffffffffffffffffffffffffffffffffffff\n      and\n      dup2\n      mstore\n      0x20\n      add\n      swap1\n      dup2\n      mstore\n      0x20\n      add\n      0x00\n      keccak256\n      sload\n        /* \"20241011/StakingReward.sol\":2855:2891  uint256 reward = rewards[msg.sender] */\n      swap1\n      pop\n        /* \"20241011/StakingReward.sol\":2914:2915  0 */\n      0x00\n        /* \"20241011/StakingReward.sol\":2905:2911  reward */\n      dup2\n        /* \"20241011/StakingReward.sol\":2905:2915  reward > 0 */\n      gt\n        /* \"20241011/StakingReward.sol\":2901:3020  if (reward > 0) {... */\n      iszero\n      tag_157\n      jumpi\n        /* \"20241011/StakingReward.sol\":2953:2954  0 */\n      0x00\n        /* \"20241011/StakingReward.sol\":2931:2938  rewards */\n      0x07\n        /* \"20241011/StakingReward.sol\":2931:2950  rewards[msg.sender] */\n      0x00\n        /* \"20241011/StakingReward.sol\":2939:2949  msg.sender */\n      caller\n        /* \"20241011/StakingReward.sol\":2931:2950  rewards[msg.sender] */\n      0xffffffffffffffffffffffffffffffffffffffff\n      and\n      0xffffffffffffffffffffffffffffffffffffffff\n      and\n      dup2\n      mstore\n      0x20\n      add\n      swap1\n      dup2\n      mstore\n      0x20\n      add\n      0x00\n      keccak256\n        /* \"20241011/StakingReward.sol\":2931:2954  rewards[msg.sender] = 0 */\n      dup2\n      swap1\n      sstore\n      pop\n        /* \"20241011/StakingReward.sol\":2968:2980  rewardsToken */\n      immutable(\"0x52f1a9b320cab38e5da8a8f97989383aab0a49165fc91c737310e4f7e9821021\")\n        /* \"20241011/StakingReward.sol\":2968:2989  rewardsToken.transfer */\n      0xffffffffffffffffffffffffffffffffffffffff\n      and\n      0xa9059cbb\n        /* \"20241011/StakingReward.sol\":2990:3000  msg.sender */\n      caller\n        /* \"20241011/StakingReward.sol\":3002:3008  reward */\n      dup4\n        /* \"20241011/StakingReward.sol\":2968:3009  rewardsToken.transfer(msg.sender, reward) */\n      mload(0x40)\n      dup4\n      0xffffffff\n      and\n      0xe0\n      shl\n      dup2\n      mstore\n      0x04\n      add\n      tag_158\n      swap3\n      swap2\n      swap1\n      tag_116\n      jump\t// in\n    tag_158:\n      0x20\n      mload(0x40)\n      dup1\n      dup4\n      sub\n      dup2\n      0x00\n      dup8\n      gas\n      call\n      iszero\n      dup1\n      iszero\n      tag_160\n      jumpi\n      returndatasize\n      0x00\n      dup1\n      returndatacopy\n      revert(0x00, returndatasize)\n    tag_160:\n      pop\n      pop\n      pop\n      pop\n      mload(0x40)\n      returndatasize\n      not(0x1f)\n      0x1f\n      dup3\n      add\n      and\n      dup3\n      add\n      dup1\n      0x40\n      mstore\n      pop\n      dup2\n      add\n      swap1\n      tag_161\n      swap2\n      swap1\n      tag_120\n      jump\t// in\n    tag_161:\n      pop\n        /* \"20241011/StakingReward.sol\":2901:3020  if (reward > 0) {... */\n    tag_157:\n        /* \"20241011/StakingReward.sol\":2845:3026  {... */\n      pop\n        /* \"20241011/StakingReward.sol\":2790:3026  function getReward() external updateReward(msg.sender) {... */\n      pop\n      jump\t// out\n        /* \"20241011/StakingReward.sol\":328:351  uint256 public finishAt */\n    tag_52:\n      sload(0x02)\n      dup2\n      jump\t// out\n        /* \"20241011/StakingReward.sol\":903:947  mapping(address => uint256) public balanceOf */\n    tag_56:\n      mstore(0x20, 0x09)\n      dup1\n      0x00\n      mstore\n      keccak256(0x00, 0x40)\n      0x00\n      swap2\n      pop\n      swap1\n      pop\n      sload\n      dup2\n      jump\t// out\n        /* \"20241011/StakingReward.sol\":88:124  IERC20 public immutable stakingToken */\n    tag_59:\n      immutable(\"0x13600b294191fc92924bb3ce4b969c1e7e2bab8f4c93c3fc6d0a51733df3c060\")\n      dup2\n      jump\t// out\n        /* \"20241011/StakingReward.sol\":416:440  uint256 public updatedAt */\n    tag_63:\n      sload(0x03)\n      dup2\n      jump\t// out\n        /* \"20241011/StakingReward.sol\":486:511  uint256 public rewardRate */\n    tag_66:\n      sload(0x04)\n      dup2\n      jump\t// out\n        /* \"20241011/StakingReward.sol\":1574:1695  function lastTimeRewardApplicable() public view returns (uint256) {... */\n    tag_69:\n        /* \"20241011/StakingReward.sol\":1631:1638  uint256 */\n      0x00\n        /* \"20241011/StakingReward.sol\":1657:1688  _min(finishAt, block.timestamp) */\n      tag_163\n        /* \"20241011/StakingReward.sol\":1662:1670  finishAt */\n      sload(0x02)\n        /* \"20241011/StakingReward.sol\":1672:1687  block.timestamp */\n      timestamp\n        /* \"20241011/StakingReward.sol\":1657:1661  _min */\n      tag_164\n        /* \"20241011/StakingReward.sol\":1657:1688  _min(finishAt, block.timestamp) */\n      jump\t// in\n    tag_163:\n        /* \"20241011/StakingReward.sol\":1650:1688  return _min(finishAt, block.timestamp) */\n      swap1\n      pop\n        /* \"20241011/StakingReward.sol\":1574:1695  function lastTimeRewardApplicable() public view returns (uint256) {... */\n      swap1\n      jump\t// out\n        /* \"20241011/StakingReward.sol\":657:714  mapping(address => uint256) public userRewardPerTokenPaid */\n    tag_73:\n      mstore(0x20, 0x06)\n      dup1\n      0x00\n      mstore\n      keccak256(0x00, 0x40)\n      0x00\n      swap2\n      pop\n      swap1\n      pop\n      sload\n      dup2\n      jump\t// out\n        /* \"20241011/StakingReward.sol\":173:193  address public owner */\n    tag_76:\n      0x00\n      dup1\n      sload\n      swap1\n      0x0100\n      exp\n      swap1\n      div\n      0xffffffffffffffffffffffffffffffffffffffff\n      and\n      dup2\n      jump\t// out\n        /* \"20241011/StakingReward.sol\":1998:2260  function stake(uint256 _amount) external updateReward(msg.sender) {... */\n    tag_81:\n        /* \"20241011/StakingReward.sol\":2052:2062  msg.sender */\n      caller\n        /* \"20241011/StakingReward.sol\":1317:1333  rewardPerToken() */\n      tag_166\n        /* \"20241011/StakingReward.sol\":1317:1331  rewardPerToken */\n      tag_86\n        /* \"20241011/StakingReward.sol\":1317:1333  rewardPerToken() */\n      jump\t// in\n    tag_166:\n        /* \"20241011/StakingReward.sol\":1294:1314  rewardPerTokenStored */\n      0x05\n        /* \"20241011/StakingReward.sol\":1294:1333  rewardPerTokenStored = rewardPerToken() */\n      dup2\n      swap1\n      sstore\n      pop\n        /* \"20241011/StakingReward.sol\":1355:1381  lastTimeRewardApplicable() */\n      tag_167\n        /* \"20241011/StakingReward.sol\":1355:1379  lastTimeRewardApplicable */\n      tag_69\n        /* \"20241011/StakingReward.sol\":1355:1381  lastTimeRewardApplicable() */\n      jump\t// in\n    tag_167:\n        /* \"20241011/StakingReward.sol\":1343:1352  updatedAt */\n      0x03\n        /* \"20241011/StakingReward.sol\":1343:1381  updatedAt = lastTimeRewardApplicable() */\n      dup2\n      swap1\n      sstore\n      pop\n        /* \"20241011/StakingReward.sol\":1416:1417  0 */\n      0x00\n        /* \"20241011/StakingReward.sol\":1396:1418  _account != address(0) */\n      0xffffffffffffffffffffffffffffffffffffffff\n      and\n        /* \"20241011/StakingReward.sol\":1396:1404  _account */\n      dup2\n        /* \"20241011/StakingReward.sol\":1396:1418  _account != address(0) */\n      0xffffffffffffffffffffffffffffffffffffffff\n      and\n      eq\n        /* \"20241011/StakingReward.sol\":1392:1550  if (_account != address(0)) {... */\n      tag_168\n      jumpi\n        /* \"20241011/StakingReward.sol\":1454:1470  earned(_account) */\n      tag_169\n        /* \"20241011/StakingReward.sol\":1461:1469  _account */\n      dup2\n        /* \"20241011/StakingReward.sol\":1454:1460  earned */\n      tag_29\n        /* \"20241011/StakingReward.sol\":1454:1470  earned(_account) */\n      jump\t// in\n    tag_169:\n        /* \"20241011/StakingReward.sol\":1434:1441  rewards */\n      0x07\n        /* \"20241011/StakingReward.sol\":1434:1451  rewards[_account] */\n      0x00\n        /* \"20241011/StakingReward.sol\":1442:1450  _account */\n      dup4\n        /* \"20241011/StakingReward.sol\":1434:1451  rewards[_account] */\n      0xffffffffffffffffffffffffffffffffffffffff\n      and\n      0xffffffffffffffffffffffffffffffffffffffff\n      and\n      dup2\n      mstore\n      0x20\n      add\n      swap1\n      dup2\n      mstore\n      0x20\n      add\n      0x00\n      keccak256\n        /* \"20241011/StakingReward.sol\":1434:1470  rewards[_account] = earned(_account) */\n      dup2\n      swap1\n      sstore\n      pop\n        /* \"20241011/StakingReward.sol\":1519:1539  rewardPerTokenStored */\n      sload(0x05)\n        /* \"20241011/StakingReward.sol\":1484:1506  userRewardPerTokenPaid */\n      0x06\n        /* \"20241011/StakingReward.sol\":1484:1516  userRewardPerTokenPaid[_account] */\n      0x00\n        /* \"20241011/StakingReward.sol\":1507:1515  _account */\n      dup4\n        /* \"20241011/StakingReward.sol\":1484:1516  userRewardPerTokenPaid[_account] */\n      0xffffffffffffffffffffffffffffffffffffffff\n      and\n      0xffffffffffffffffffffffffffffffffffffffff\n      and\n      dup2\n      mstore\n      0x20\n      add\n      swap1\n      dup2\n      mstore\n      0x20\n      add\n      0x00\n      keccak256\n        /* \"20241011/StakingReward.sol\":1484:1539  userRewardPerTokenPaid[_account] = rewardPerTokenStored */\n      dup2\n      swap1\n      sstore\n      pop\n        /* \"20241011/StakingReward.sol\":1392:1550  if (_account != address(0)) {... */\n    tag_168:\n        /* \"20241011/StakingReward.sol\":2092:2093  0 */\n      0x00\n        /* \"20241011/StakingReward.sol\":2082:2089  _amount */\n      dup3\n        /* \"20241011/StakingReward.sol\":2082:2093  _amount > 0 */\n      gt\n        /* \"20241011/StakingReward.sol\":2074:2108  require(_amount > 0, \"amount = 0\") */\n      tag_171\n      jumpi\n      mload(0x40)\n      0x08c379a000000000000000000000000000000000000000000000000000000000\n      dup2\n      mstore\n      0x04\n      add\n      tag_172\n      swap1\n      tag_112\n      jump\t// in\n    tag_172:\n      mload(0x40)\n      dup1\n      swap2\n      sub\n      swap1\n      revert\n    tag_171:\n        /* \"20241011/StakingReward.sol\":2118:2130  stakingToken */\n      immutable(\"0x13600b294191fc92924bb3ce4b969c1e7e2bab8f4c93c3fc6d0a51733df3c060\")\n        /* \"20241011/StakingReward.sol\":2118:2143  stakingToken.transferFrom */\n      0xffffffffffffffffffffffffffffffffffffffff\n      and\n      0x23b872dd\n        /* \"20241011/StakingReward.sol\":2144:2154  msg.sender */\n      caller\n        /* \"20241011/StakingReward.sol\":2164:2168  this */\n      address\n        /* \"20241011/StakingReward.sol\":2171:2178  _amount */\n      dup6\n        /* \"20241011/StakingReward.sol\":2118:2179  stakingToken.transferFrom(msg.sender, address(this), _amount) */\n      mload(0x40)\n      dup5\n      0xffffffff\n      and\n      0xe0\n      shl\n      dup2\n      mstore\n      0x04\n      add\n      tag_173\n      swap4\n      swap3\n      swap2\n      swap1\n      tag_174\n      jump\t// in\n    tag_173:\n      0x20\n      mload(0x40)\n      dup1\n      dup4\n      sub\n      dup2\n      0x00\n      dup8\n      gas\n      call\n      iszero\n      dup1\n      iszero\n      tag_176\n      jumpi\n      returndatasize\n      0x00\n      dup1\n      returndatacopy\n      revert(0x00, returndatasize)\n    tag_176:\n      pop\n      pop\n      pop\n      pop\n      mload(0x40)\n      returndatasize\n      not(0x1f)\n      0x1f\n      dup3\n      add\n      and\n      dup3\n      add\n      dup1\n      0x40\n      mstore\n      pop\n      dup2\n      add\n      swap1\n      tag_177\n      swap2\n      swap1\n      tag_120\n      jump\t// in\n    tag_177:\n      pop\n        /* \"20241011/StakingReward.sol\":2214:2221  _amount */\n      dup2\n        /* \"20241011/StakingReward.sol\":2189:2198  balanceOf */\n      0x09\n        /* \"20241011/StakingReward.sol\":2189:2210  balanceOf[msg.sender] */\n      0x00\n        /* \"20241011/StakingReward.sol\":2199:2209  msg.sender */\n      caller\n        /* \"20241011/StakingReward.sol\":2189:2210  balanceOf[msg.sender] */\n      0xffffffffffffffffffffffffffffffffffffffff\n      and\n      0xffffffffffffffffffffffffffffffffffffffff\n      and\n      dup2\n      mstore\n      0x20\n      add\n      swap1\n      dup2\n      mstore\n      0x20\n      add\n      0x00\n      keccak256\n      0x00\n        /* \"20241011/StakingReward.sol\":2189:2221  balanceOf[msg.sender] += _amount */\n      dup3\n      dup3\n      sload\n      tag_178\n      swap2\n      swap1\n      tag_103\n      jump\t// in\n    tag_178:\n      swap3\n      pop\n      pop\n      dup2\n      swap1\n      sstore\n      pop\n        /* \"20241011/StakingReward.sol\":2246:2253  _amount */\n      dup2\n        /* \"20241011/StakingReward.sol\":2231:2242  totalSupply */\n      0x08\n      0x00\n        /* \"20241011/StakingReward.sol\":2231:2253  totalSupply += _amount */\n      dup3\n      dup3\n      sload\n      tag_179\n      swap2\n      swap1\n      tag_103\n      jump\t// in\n    tag_179:\n      swap3\n      pop\n      pop\n      dup2\n      swap1\n      sstore\n      pop\n        /* \"20241011/StakingReward.sol\":1998:2260  function stake(uint256 _amount) external updateReward(msg.sender) {... */\n      pop\n      pop\n      jump\t// out\n        /* \"20241011/StakingReward.sol\":3032:3212  function setRewardsDuration(uint256 _duration) external onlyOwner {... */\n    tag_84:\n        /* \"20241011/StakingReward.sol\":1196:1201  owner */\n      0x00\n      dup1\n      sload\n      swap1\n      0x0100\n      exp\n      swap1\n      div\n      0xffffffffffffffffffffffffffffffffffffffff\n      and\n        /* \"20241011/StakingReward.sol\":1182:1201  msg.sender == owner */\n      0xffffffffffffffffffffffffffffffffffffffff\n      and\n        /* \"20241011/StakingReward.sol\":1182:1192  msg.sender */\n      caller\n        /* \"20241011/StakingReward.sol\":1182:1201  msg.sender == owner */\n      0xffffffffffffffffffffffffffffffffffffffff\n      and\n      eq\n        /* \"20241011/StakingReward.sol\":1174:1220  require(msg.sender == owner, \"not authorized\") */\n      tag_181\n      jumpi\n      mload(0x40)\n      0x08c379a000000000000000000000000000000000000000000000000000000000\n      dup2\n      mstore\n      0x04\n      add\n      tag_182\n      swap1\n      tag_124\n      jump\t// in\n    tag_182:\n      mload(0x40)\n      dup1\n      swap2\n      sub\n      swap1\n      revert\n    tag_181:\n        /* \"20241011/StakingReward.sol\":3127:3142  block.timestamp */\n      timestamp\n        /* \"20241011/StakingReward.sol\":3116:3124  finishAt */\n      sload(0x02)\n        /* \"20241011/StakingReward.sol\":3116:3142  finishAt < block.timestamp */\n      lt\n        /* \"20241011/StakingReward.sol\":3108:3175  require(finishAt < block.timestamp, \"reward duration not finished\") */\n      tag_184\n      jumpi\n      mload(0x40)\n      0x08c379a000000000000000000000000000000000000000000000000000000000\n      dup2\n      mstore\n      0x04\n      add\n      tag_185\n      swap1\n      tag_186\n      jump\t// in\n    tag_185:\n      mload(0x40)\n      dup1\n      swap2\n      sub\n      swap1\n      revert\n    tag_184:\n        /* \"20241011/StakingReward.sol\":3196:3205  _duration */\n      dup1\n        /* \"20241011/StakingReward.sol\":3185:3193  duration */\n      0x01\n        /* \"20241011/StakingReward.sol\":3185:3205  duration = _duration */\n      dup2\n      swap1\n      sstore\n      pop\n        /* \"20241011/StakingReward.sol\":3032:3212  function setRewardsDuration(uint256 _duration) external onlyOwner {... */\n      pop\n      jump\t// out\n        /* \"20241011/StakingReward.sol\":1701:1992  function rewardPerToken() public view returns (uint256) {... */\n    tag_86:\n        /* \"20241011/StakingReward.sol\":1748:1755  uint256 */\n      0x00\n        /* \"20241011/StakingReward.sol\":1786:1787  0 */\n      dup1\n        /* \"20241011/StakingReward.sol\":1771:1782  totalSupply */\n      sload(0x08)\n        /* \"20241011/StakingReward.sol\":1771:1787  totalSupply == 0 */\n      sub\n        /* \"20241011/StakingReward.sol\":1767:1841  if (totalSupply == 0) {... */\n      tag_188\n      jumpi\n        /* \"20241011/StakingReward.sol\":1810:1830  rewardPerTokenStored */\n      sload(0x05)\n        /* \"20241011/StakingReward.sol\":1803:1830  return rewardPerTokenStored */\n      swap1\n      pop\n      jump(tag_187)\n        /* \"20241011/StakingReward.sol\":1767:1841  if (totalSupply == 0) {... */\n    tag_188:\n        /* \"20241011/StakingReward.sol\":1974:1985  totalSupply */\n      sload(0x08)\n        /* \"20241011/StakingReward.sol\":1950:1954  1e18 */\n      0x0de0b6b3a7640000\n        /* \"20241011/StakingReward.sol\":1937:1946  updatedAt */\n      sload(0x03)\n        /* \"20241011/StakingReward.sol\":1908:1934  lastTimeRewardApplicable() */\n      tag_189\n        /* \"20241011/StakingReward.sol\":1908:1932  lastTimeRewardApplicable */\n      tag_69\n        /* \"20241011/StakingReward.sol\":1908:1934  lastTimeRewardApplicable() */\n      jump\t// in\n    tag_189:\n        /* \"20241011/StakingReward.sol\":1908:1946  lastTimeRewardApplicable() - updatedAt */\n      tag_190\n      swap2\n      swap1\n      tag_97\n      jump\t// in\n    tag_190:\n        /* \"20241011/StakingReward.sol\":1894:1904  rewardRate */\n      sload(0x04)\n        /* \"20241011/StakingReward.sol\":1894:1947  rewardRate * (lastTimeRewardApplicable() - updatedAt) */\n      tag_191\n      swap2\n      swap1\n      tag_99\n      jump\t// in\n    tag_191:\n        /* \"20241011/StakingReward.sol\":1894:1954  rewardRate * (lastTimeRewardApplicable() - updatedAt) * 1e18 */\n      tag_192\n      swap2\n      swap1\n      tag_99\n      jump\t// in\n    tag_192:\n        /* \"20241011/StakingReward.sol\":1893:1985  (rewardRate * (lastTimeRewardApplicable() - updatedAt) * 1e18)... */\n      tag_193\n      swap2\n      swap1\n      tag_101\n      jump\t// in\n    tag_193:\n        /* \"20241011/StakingReward.sol\":1858:1878  rewardPerTokenStored */\n      sload(0x05)\n        /* \"20241011/StakingReward.sol\":1858:1985  rewardPerTokenStored... */\n      tag_194\n      swap2\n      swap1\n      tag_103\n      jump\t// in\n    tag_194:\n        /* \"20241011/StakingReward.sol\":1851:1985  return rewardPerTokenStored... */\n      swap1\n      pop\n        /* \"20241011/StakingReward.sol\":1701:1992  function rewardPerToken() public view returns (uint256) {... */\n    tag_187:\n      swap1\n      jump\t// out\n        /* \"20241011/StakingReward.sol\":130:166  IERC20 public immutable rewardsToken */\n    tag_89:\n      immutable(\"0x52f1a9b320cab38e5da8a8f97989383aab0a49165fc91c737310e4f7e9821021\")\n      dup2\n      jump\t// out\n        /* \"20241011/StakingReward.sol\":572:607  uint256 public rewardPerTokenStored */\n    tag_92:\n      sload(0x05)\n      dup2\n      jump\t// out\n        /* \"20241011/StakingReward.sol\":3891:3996  function _min(uint256 x, uint256 y) private pure returns (uint256) {... */\n    tag_164:\n        /* \"20241011/StakingReward.sol\":3949:3956  uint256 */\n      0x00\n        /* \"20241011/StakingReward.sol\":3980:3981  y */\n      dup2\n        /* \"20241011/StakingReward.sol\":3975:3976  x */\n      dup4\n        /* \"20241011/StakingReward.sol\":3975:3981  x <= y */\n      gt\n      iszero\n        /* \"20241011/StakingReward.sol\":3975:3989  x <= y ? x : y */\n      tag_196\n      jumpi\n        /* \"20241011/StakingReward.sol\":3988:3989  y */\n      dup2\n        /* \"20241011/StakingReward.sol\":3975:3989  x <= y ? x : y */\n      jump(tag_197)\n    tag_196:\n        /* \"20241011/StakingReward.sol\":3984:3985  x */\n      dup3\n        /* \"20241011/StakingReward.sol\":3975:3989  x <= y ? x : y */\n    tag_197:\n        /* \"20241011/StakingReward.sol\":3968:3989  return x <= y ? x : y */\n      swap1\n      pop\n        /* \"20241011/StakingReward.sol\":3891:3996  function _min(uint256 x, uint256 y) private pure returns (uint256) {... */\n      swap3\n      swap2\n      pop\n      pop\n      jump\t// out\n        /* \"#utility.yul\":88:205   */\n    tag_199:\n        /* \"#utility.yul\":197:198   */\n      0x00\n        /* \"#utility.yul\":194:195   */\n      dup1\n        /* \"#utility.yul\":187:199   */\n      revert\n        /* \"#utility.yul\":334:460   */\n    tag_201:\n        /* \"#utility.yul\":371:378   */\n      0x00\n        /* \"#utility.yul\":411:453   */\n      0xffffffffffffffffffffffffffffffffffffffff\n        /* \"#utility.yul\":404:409   */\n      dup3\n        /* \"#utility.yul\":400:454   */\n      and\n        /* \"#utility.yul\":389:454   */\n      swap1\n      pop\n        /* \"#utility.yul\":334:460   */\n      swap2\n      swap1\n      pop\n      jump\t// out\n        /* \"#utility.yul\":466:562   */\n    tag_202:\n        /* \"#utility.yul\":503:510   */\n      0x00\n        /* \"#utility.yul\":532:556   */\n      tag_238\n        /* \"#utility.yul\":550:555   */\n      dup3\n        /* \"#utility.yul\":532:556   */\n      tag_201\n      jump\t// in\n    tag_238:\n        /* \"#utility.yul\":521:556   */\n      swap1\n      pop\n        /* \"#utility.yul\":466:562   */\n      swap2\n      swap1\n      pop\n      jump\t// out\n        /* \"#utility.yul\":568:690   */\n    tag_203:\n        /* \"#utility.yul\":641:665   */\n      tag_240\n        /* \"#utility.yul\":659:664   */\n      dup2\n        /* \"#utility.yul\":641:665   */\n      tag_202\n      jump\t// in\n    tag_240:\n        /* \"#utility.yul\":634:639   */\n      dup2\n        /* \"#utility.yul\":631:666   */\n      eq\n        /* \"#utility.yul\":621:684   */\n      tag_241\n      jumpi\n        /* \"#utility.yul\":680:681   */\n      0x00\n        /* \"#utility.yul\":677:678   */\n      dup1\n        /* \"#utility.yul\":670:682   */\n      revert\n        /* \"#utility.yul\":621:684   */\n    tag_241:\n        /* \"#utility.yul\":568:690   */\n      pop\n      jump\t// out\n        /* \"#utility.yul\":696:835   */\n    tag_204:\n        /* \"#utility.yul\":742:747   */\n      0x00\n        /* \"#utility.yul\":780:786   */\n      dup2\n        /* \"#utility.yul\":767:787   */\n      calldataload\n        /* \"#utility.yul\":758:787   */\n      swap1\n      pop\n        /* \"#utility.yul\":796:829   */\n      tag_243\n        /* \"#utility.yul\":823:828   */\n      dup2\n        /* \"#utility.yul\":796:829   */\n      tag_203\n      jump\t// in\n    tag_243:\n        /* \"#utility.yul\":696:835   */\n      swap3\n      swap2\n      pop\n      pop\n      jump\t// out\n        /* \"#utility.yul\":841:1170   */\n    tag_28:\n        /* \"#utility.yul\":900:906   */\n      0x00\n        /* \"#utility.yul\":949:951   */\n      0x20\n        /* \"#utility.yul\":937:946   */\n      dup3\n        /* \"#utility.yul\":928:935   */\n      dup5\n        /* \"#utility.yul\":924:947   */\n      sub\n        /* \"#utility.yul\":920:952   */\n      slt\n        /* \"#utility.yul\":917:1036   */\n      iszero\n      tag_245\n      jumpi\n        /* \"#utility.yul\":955:1034   */\n      tag_246\n      tag_199\n      jump\t// in\n    tag_246:\n        /* \"#utility.yul\":917:1036   */\n    tag_245:\n        /* \"#utility.yul\":1075:1076   */\n      0x00\n        /* \"#utility.yul\":1100:1153   */\n      tag_247\n        /* \"#utility.yul\":1145:1152   */\n      dup5\n        /* \"#utility.yul\":1136:1142   */\n      dup3\n        /* \"#utility.yul\":1125:1134   */\n      dup6\n        /* \"#utility.yul\":1121:1143   */\n      add\n        /* \"#utility.yul\":1100:1153   */\n      tag_204\n      jump\t// in\n    tag_247:\n        /* \"#utility.yul\":1090:1153   */\n      swap2\n      pop\n        /* \"#utility.yul\":1046:1163   */\n      pop\n        /* \"#utility.yul\":841:1170   */\n      swap3\n      swap2\n      pop\n      pop\n      jump\t// out\n        /* \"#utility.yul\":1176:1253   */\n    tag_205:\n        /* \"#utility.yul\":1213:1220   */\n      0x00\n        /* \"#utility.yul\":1242:1247   */\n      dup2\n        /* \"#utility.yul\":1231:1247   */\n      swap1\n      pop\n        /* \"#utility.yul\":1176:1253   */\n      swap2\n      swap1\n      pop\n      jump\t// out\n        /* \"#utility.yul\":1259:1377   */\n    tag_206:\n        /* \"#utility.yul\":1346:1370   */\n      tag_250\n        /* \"#utility.yul\":1364:1369   */\n      dup2\n        /* \"#utility.yul\":1346:1370   */\n      tag_205\n      jump\t// in\n    tag_250:\n        /* \"#utility.yul\":1341:1344   */\n      dup3\n        /* \"#utility.yul\":1334:1371   */\n      mstore\n        /* \"#utility.yul\":1259:1377   */\n      pop\n      pop\n      jump\t// out\n        /* \"#utility.yul\":1383:1605   */\n    tag_31:\n        /* \"#utility.yul\":1476:1480   */\n      0x00\n        /* \"#utility.yul\":1514:1516   */\n      0x20\n        /* \"#utility.yul\":1503:1512   */\n      dup3\n        /* \"#utility.yul\":1499:1517   */\n      add\n        /* \"#utility.yul\":1491:1517   */\n      swap1\n      pop\n        /* \"#utility.yul\":1527:1598   */\n      tag_252\n        /* \"#utility.yul\":1595:1596   */\n      0x00\n        /* \"#utility.yul\":1584:1593   */\n      dup4\n        /* \"#utility.yul\":1580:1597   */\n      add\n        /* \"#utility.yul\":1571:1577   */\n      dup5\n        /* \"#utility.yul\":1527:1598   */\n      tag_206\n      jump\t// in\n    tag_252:\n        /* \"#utility.yul\":1383:1605   */\n      swap3\n      swap2\n      pop\n      pop\n      jump\t// out\n        /* \"#utility.yul\":1611:1733   */\n    tag_207:\n        /* \"#utility.yul\":1684:1708   */\n      tag_254\n        /* \"#utility.yul\":1702:1707   */\n      dup2\n        /* \"#utility.yul\":1684:1708   */\n      tag_205\n      jump\t// in\n    tag_254:\n        /* \"#utility.yul\":1677:1682   */\n      dup2\n        /* \"#utility.yul\":1674:1709   */\n      eq\n        /* \"#utility.yul\":1664:1727   */\n      tag_255\n      jumpi\n        /* \"#utility.yul\":1723:1724   */\n      0x00\n        /* \"#utility.yul\":1720:1721   */\n      dup1\n        /* \"#utility.yul\":1713:1725   */\n      revert\n        /* \"#utility.yul\":1664:1727   */\n    tag_255:\n        /* \"#utility.yul\":1611:1733   */\n      pop\n      jump\t// out\n        /* \"#utility.yul\":1739:1878   */\n    tag_208:\n        /* \"#utility.yul\":1785:1790   */\n      0x00\n        /* \"#utility.yul\":1823:1829   */\n      dup2\n        /* \"#utility.yul\":1810:1830   */\n      calldataload\n        /* \"#utility.yul\":1801:1830   */\n      swap1\n      pop\n        /* \"#utility.yul\":1839:1872   */\n      tag_257\n        /* \"#utility.yul\":1866:1871   */\n      dup2\n        /* \"#utility.yul\":1839:1872   */\n      tag_207\n      jump\t// in\n    tag_257:\n        /* \"#utility.yul\":1739:1878   */\n      swap3\n      swap2\n      pop\n      pop\n      jump\t// out\n        /* \"#utility.yul\":1884:2213   */\n    tag_44:\n        /* \"#utility.yul\":1943:1949   */\n      0x00\n        /* \"#utility.yul\":1992:1994   */\n      0x20\n        /* \"#utility.yul\":1980:1989   */\n      dup3\n        /* \"#utility.yul\":1971:1978   */\n      dup5\n        /* \"#utility.yul\":1967:1990   */\n      sub\n        /* \"#utility.yul\":1963:1995   */\n      slt\n        /* \"#utility.yul\":1960:2079   */\n      iszero\n      tag_259\n      jumpi\n        /* \"#utility.yul\":1998:2077   */\n      tag_260\n      tag_199\n      jump\t// in\n    tag_260:\n        /* \"#utility.yul\":1960:2079   */\n    tag_259:\n        /* \"#utility.yul\":2118:2119   */\n      0x00\n        /* \"#utility.yul\":2143:2196   */\n      tag_261\n        /* \"#utility.yul\":2188:2195   */\n      dup5\n        /* \"#utility.yul\":2179:2185   */\n      dup3\n        /* \"#utility.yul\":2168:2177   */\n      dup6\n        /* \"#utility.yul\":2164:2186   */\n      add\n        /* \"#utility.yul\":2143:2196   */\n      tag_208\n      jump\t// in\n    tag_261:\n        /* \"#utility.yul\":2133:2196   */\n      swap2\n      pop\n        /* \"#utility.yul\":2089:2206   */\n      pop\n        /* \"#utility.yul\":1884:2213   */\n      swap3\n      swap2\n      pop\n      pop\n      jump\t// out\n        /* \"#utility.yul\":2219:2279   */\n    tag_209:\n        /* \"#utility.yul\":2247:2250   */\n      0x00\n        /* \"#utility.yul\":2268:2273   */\n      dup2\n        /* \"#utility.yul\":2261:2273   */\n      swap1\n      pop\n        /* \"#utility.yul\":2219:2279   */\n      swap2\n      swap1\n      pop\n      jump\t// out\n        /* \"#utility.yul\":2285:2427   */\n    tag_210:\n        /* \"#utility.yul\":2335:2344   */\n      0x00\n        /* \"#utility.yul\":2368:2421   */\n      tag_264\n        /* \"#utility.yul\":2386:2420   */\n      tag_265\n        /* \"#utility.yul\":2395:2419   */\n      tag_266\n        /* \"#utility.yul\":2413:2418   */\n      dup5\n        /* \"#utility.yul\":2395:2419   */\n      tag_201\n      jump\t// in\n    tag_266:\n        /* \"#utility.yul\":2386:2420   */\n      tag_209\n      jump\t// in\n    tag_265:\n        /* \"#utility.yul\":2368:2421   */\n      tag_201\n      jump\t// in\n    tag_264:\n        /* \"#utility.yul\":2355:2421   */\n      swap1\n      pop\n        /* \"#utility.yul\":2285:2427   */\n      swap2\n      swap1\n      pop\n      jump\t// out\n        /* \"#utility.yul\":2433:2559   */\n    tag_211:\n        /* \"#utility.yul\":2483:2492   */\n      0x00\n        /* \"#utility.yul\":2516:2553   */\n      tag_268\n        /* \"#utility.yul\":2547:2552   */\n      dup3\n        /* \"#utility.yul\":2516:2553   */\n      tag_210\n      jump\t// in\n    tag_268:\n        /* \"#utility.yul\":2503:2553   */\n      swap1\n      pop\n        /* \"#utility.yul\":2433:2559   */\n      swap2\n      swap1\n      pop\n      jump\t// out\n        /* \"#utility.yul\":2565:2705   */\n    tag_212:\n        /* \"#utility.yul\":2629:2638   */\n      0x00\n        /* \"#utility.yul\":2662:2699   */\n      tag_270\n        /* \"#utility.yul\":2693:2698   */\n      dup3\n        /* \"#utility.yul\":2662:2699   */\n      tag_211\n      jump\t// in\n    tag_270:\n        /* \"#utility.yul\":2649:2699   */\n      swap1\n      pop\n        /* \"#utility.yul\":2565:2705   */\n      swap2\n      swap1\n      pop\n      jump\t// out\n        /* \"#utility.yul\":2711:2870   */\n    tag_213:\n        /* \"#utility.yul\":2812:2863   */\n      tag_272\n        /* \"#utility.yul\":2857:2862   */\n      dup2\n        /* \"#utility.yul\":2812:2863   */\n      tag_212\n      jump\t// in\n    tag_272:\n        /* \"#utility.yul\":2807:2810   */\n      dup3\n        /* \"#utility.yul\":2800:2864   */\n      mstore\n        /* \"#utility.yul\":2711:2870   */\n      pop\n      pop\n      jump\t// out\n        /* \"#utility.yul\":2876:3126   */\n    tag_61:\n        /* \"#utility.yul\":2983:2987   */\n      0x00\n        /* \"#utility.yul\":3021:3023   */\n      0x20\n        /* \"#utility.yul\":3010:3019   */\n      dup3\n        /* \"#utility.yul\":3006:3024   */\n      add\n        /* \"#utility.yul\":2998:3024   */\n      swap1\n      pop\n        /* \"#utility.yul\":3034:3119   */\n      tag_274\n        /* \"#utility.yul\":3116:3117   */\n      0x00\n        /* \"#utility.yul\":3105:3114   */\n      dup4\n        /* \"#utility.yul\":3101:3118   */\n      add\n        /* \"#utility.yul\":3092:3098   */\n      dup5\n        /* \"#utility.yul\":3034:3119   */\n      tag_213\n      jump\t// in\n    tag_274:\n        /* \"#utility.yul\":2876:3126   */\n      swap3\n      swap2\n      pop\n      pop\n      jump\t// out\n        /* \"#utility.yul\":3132:3250   */\n    tag_214:\n        /* \"#utility.yul\":3219:3243   */\n      tag_276\n        /* \"#utility.yul\":3237:3242   */\n      dup2\n        /* \"#utility.yul\":3219:3243   */\n      tag_202\n      jump\t// in\n    tag_276:\n        /* \"#utility.yul\":3214:3217   */\n      dup3\n        /* \"#utility.yul\":3207:3244   */\n      mstore\n        /* \"#utility.yul\":3132:3250   */\n      pop\n      pop\n      jump\t// out\n        /* \"#utility.yul\":3256:3478   */\n    tag_78:\n        /* \"#utility.yul\":3349:3353   */\n      0x00\n        /* \"#utility.yul\":3387:3389   */\n      0x20\n        /* \"#utility.yul\":3376:3385   */\n      dup3\n        /* \"#utility.yul\":3372:3390   */\n      add\n        /* \"#utility.yul\":3364:3390   */\n      swap1\n      pop\n        /* \"#utility.yul\":3400:3471   */\n      tag_278\n        /* \"#utility.yul\":3468:3469   */\n      0x00\n        /* \"#utility.yul\":3457:3466   */\n      dup4\n        /* \"#utility.yul\":3453:3470   */\n      add\n        /* \"#utility.yul\":3444:3450   */\n      dup5\n        /* \"#utility.yul\":3400:3471   */\n      tag_214\n      jump\t// in\n    tag_278:\n        /* \"#utility.yul\":3256:3478   */\n      swap3\n      swap2\n      pop\n      pop\n      jump\t// out\n        /* \"#utility.yul\":3484:3664   */\n    tag_215:\n        /* \"#utility.yul\":3532:3609   */\n      0x4e487b7100000000000000000000000000000000000000000000000000000000\n        /* \"#utility.yul\":3529:3530   */\n      0x00\n        /* \"#utility.yul\":3522:3610   */\n      mstore\n        /* \"#utility.yul\":3629:3633   */\n      0x11\n        /* \"#utility.yul\":3626:3627   */\n      0x04\n        /* \"#utility.yul\":3619:3634   */\n      mstore\n        /* \"#utility.yul\":3653:3657   */\n      0x24\n        /* \"#utility.yul\":3650:3651   */\n      0x00\n        /* \"#utility.yul\":3643:3658   */\n      revert\n        /* \"#utility.yul\":3670:3864   */\n    tag_97:\n        /* \"#utility.yul\":3710:3714   */\n      0x00\n        /* \"#utility.yul\":3730:3750   */\n      tag_281\n        /* \"#utility.yul\":3748:3749   */\n      dup3\n        /* \"#utility.yul\":3730:3750   */\n      tag_205\n      jump\t// in\n    tag_281:\n        /* \"#utility.yul\":3725:3750   */\n      swap2\n      pop\n        /* \"#utility.yul\":3764:3784   */\n      tag_282\n        /* \"#utility.yul\":3782:3783   */\n      dup4\n        /* \"#utility.yul\":3764:3784   */\n      tag_205\n      jump\t// in\n    tag_282:\n        /* \"#utility.yul\":3759:3784   */\n      swap3\n      pop\n        /* \"#utility.yul\":3808:3809   */\n      dup3\n        /* \"#utility.yul\":3805:3806   */\n      dup3\n        /* \"#utility.yul\":3801:3810   */\n      sub\n        /* \"#utility.yul\":3793:3810   */\n      swap1\n      pop\n        /* \"#utility.yul\":3832:3833   */\n      dup2\n        /* \"#utility.yul\":3826:3830   */\n      dup2\n        /* \"#utility.yul\":3823:3834   */\n      gt\n        /* \"#utility.yul\":3820:3857   */\n      iszero\n      tag_283\n      jumpi\n        /* \"#utility.yul\":3837:3855   */\n      tag_284\n      tag_215\n      jump\t// in\n    tag_284:\n        /* \"#utility.yul\":3820:3857   */\n    tag_283:\n        /* \"#utility.yul\":3670:3864   */\n      swap3\n      swap2\n      pop\n      pop\n      jump\t// out\n        /* \"#utility.yul\":3870:4280   */\n    tag_99:\n        /* \"#utility.yul\":3910:3917   */\n      0x00\n        /* \"#utility.yul\":3933:3953   */\n      tag_286\n        /* \"#utility.yul\":3951:3952   */\n      dup3\n        /* \"#utility.yul\":3933:3953   */\n      tag_205\n      jump\t// in\n    tag_286:\n        /* \"#utility.yul\":3928:3953   */\n      swap2\n      pop\n        /* \"#utility.yul\":3967:3987   */\n      tag_287\n        /* \"#utility.yul\":3985:3986   */\n      dup4\n        /* \"#utility.yul\":3967:3987   */\n      tag_205\n      jump\t// in\n    tag_287:\n        /* \"#utility.yul\":3962:3987   */\n      swap3\n      pop\n        /* \"#utility.yul\":4022:4023   */\n      dup3\n        /* \"#utility.yul\":4019:4020   */\n      dup3\n        /* \"#utility.yul\":4015:4024   */\n      mul\n        /* \"#utility.yul\":4044:4074   */\n      tag_288\n        /* \"#utility.yul\":4062:4073   */\n      dup2\n        /* \"#utility.yul\":4044:4074   */\n      tag_205\n      jump\t// in\n    tag_288:\n        /* \"#utility.yul\":4033:4074   */\n      swap2\n      pop\n        /* \"#utility.yul\":4223:4224   */\n      dup3\n        /* \"#utility.yul\":4214:4221   */\n      dup3\n        /* \"#utility.yul\":4210:4225   */\n      div\n        /* \"#utility.yul\":4207:4208   */\n      dup5\n        /* \"#utility.yul\":4204:4226   */\n      eq\n        /* \"#utility.yul\":4184:4185   */\n      dup4\n        /* \"#utility.yul\":4177:4186   */\n      iszero\n        /* \"#utility.yul\":4157:4240   */\n      or\n        /* \"#utility.yul\":4134:4273   */\n      tag_289\n      jumpi\n        /* \"#utility.yul\":4253:4271   */\n      tag_290\n      tag_215\n      jump\t// in\n    tag_290:\n        /* \"#utility.yul\":4134:4273   */\n    tag_289:\n        /* \"#utility.yul\":3918:4280   */\n      pop\n        /* \"#utility.yul\":3870:4280   */\n      swap3\n      swap2\n      pop\n      pop\n      jump\t// out\n        /* \"#utility.yul\":4286:4466   */\n    tag_216:\n        /* \"#utility.yul\":4334:4411   */\n      0x4e487b7100000000000000000000000000000000000000000000000000000000\n        /* \"#utility.yul\":4331:4332   */\n      0x00\n        /* \"#utility.yul\":4324:4412   */\n      mstore\n        /* \"#utility.yul\":4431:4435   */\n      0x12\n        /* \"#utility.yul\":4428:4429   */\n      0x04\n        /* \"#utility.yul\":4421:4436   */\n      mstore\n        /* \"#utility.yul\":4455:4459   */\n      0x24\n        /* \"#utility.yul\":4452:4453   */\n      0x00\n        /* \"#utility.yul\":4445:4460   */\n      revert\n        /* \"#utility.yul\":4472:4657   */\n    tag_101:\n        /* \"#utility.yul\":4512:4513   */\n      0x00\n        /* \"#utility.yul\":4529:4549   */\n      tag_293\n        /* \"#utility.yul\":4547:4548   */\n      dup3\n        /* \"#utility.yul\":4529:4549   */\n      tag_205\n      jump\t// in\n    tag_293:\n        /* \"#utility.yul\":4524:4549   */\n      swap2\n      pop\n        /* \"#utility.yul\":4563:4583   */\n      tag_294\n        /* \"#utility.yul\":4581:4582   */\n      dup4\n        /* \"#utility.yul\":4563:4583   */\n      tag_205\n      jump\t// in\n    tag_294:\n        /* \"#utility.yul\":4558:4583   */\n      swap3\n      pop\n        /* \"#utility.yul\":4602:4603   */\n      dup3\n        /* \"#utility.yul\":4592:4627   */\n      tag_295\n      jumpi\n        /* \"#utility.yul\":4607:4625   */\n      tag_296\n      tag_216\n      jump\t// in\n    tag_296:\n        /* \"#utility.yul\":4592:4627   */\n    tag_295:\n        /* \"#utility.yul\":4649:4650   */\n      dup3\n        /* \"#utility.yul\":4646:4647   */\n      dup3\n        /* \"#utility.yul\":4642:4651   */\n      div\n        /* \"#utility.yul\":4637:4651   */\n      swap1\n      pop\n        /* \"#utility.yul\":4472:4657   */\n      swap3\n      swap2\n      pop\n      pop\n      jump\t// out\n        /* \"#utility.yul\":4663:4854   */\n    tag_103:\n        /* \"#utility.yul\":4703:4706   */\n      0x00\n        /* \"#utility.yul\":4722:4742   */\n      tag_298\n        /* \"#utility.yul\":4740:4741   */\n      dup3\n        /* \"#utility.yul\":4722:4742   */\n      tag_205\n      jump\t// in\n    tag_298:\n        /* \"#utility.yul\":4717:4742   */\n      swap2\n      pop\n        /* \"#utility.yul\":4756:4776   */\n      tag_299\n        /* \"#utility.yul\":4774:4775   */\n      dup4\n        /* \"#utility.yul\":4756:4776   */\n      tag_205\n      jump\t// in\n    tag_299:\n        /* \"#utility.yul\":4751:4776   */\n      swap3\n      pop\n        /* \"#utility.yul\":4799:4800   */\n      dup3\n        /* \"#utility.yul\":4796:4797   */\n      dup3\n        /* \"#utility.yul\":4792:4801   */\n      add\n        /* \"#utility.yul\":4785:4801   */\n      swap1\n      pop\n        /* \"#utility.yul\":4820:4823   */\n      dup1\n        /* \"#utility.yul\":4817:4818   */\n      dup3\n        /* \"#utility.yul\":4814:4824   */\n      gt\n        /* \"#utility.yul\":4811:4847   */\n      iszero\n      tag_300\n      jumpi\n        /* \"#utility.yul\":4827:4845   */\n      tag_301\n      tag_215\n      jump\t// in\n    tag_301:\n        /* \"#utility.yul\":4811:4847   */\n    tag_300:\n        /* \"#utility.yul\":4663:4854   */\n      swap3\n      swap2\n      pop\n      pop\n      jump\t// out\n        /* \"#utility.yul\":4860:5029   */\n    tag_217:\n        /* \"#utility.yul\":4944:4955   */\n      0x00\n        /* \"#utility.yul\":4978:4984   */\n      dup3\n        /* \"#utility.yul\":4973:4976   */\n      dup3\n        /* \"#utility.yul\":4966:4985   */\n      mstore\n        /* \"#utility.yul\":5018:5022   */\n      0x20\n        /* \"#utility.yul\":5013:5016   */\n      dup3\n        /* \"#utility.yul\":5009:5023   */\n      add\n        /* \"#utility.yul\":4994:5023   */\n      swap1\n      pop\n        /* \"#utility.yul\":4860:5029   */\n      swap3\n      swap2\n      pop\n      pop\n      jump\t// out\n        /* \"#utility.yul\":5035:5195   */\n    tag_218:\n        /* \"#utility.yul\":5175:5187   */\n      0x616d6f756e74203d203000000000000000000000000000000000000000000000\n        /* \"#utility.yul\":5171:5172   */\n      0x00\n        /* \"#utility.yul\":5163:5169   */\n      dup3\n        /* \"#utility.yul\":5159:5173   */\n      add\n        /* \"#utility.yul\":5152:5188   */\n      mstore\n        /* \"#utility.yul\":5035:5195   */\n      pop\n      jump\t// out\n        /* \"#utility.yul\":5201:5567   */\n    tag_219:\n        /* \"#utility.yul\":5343:5346   */\n      0x00\n        /* \"#utility.yul\":5364:5431   */\n      tag_305\n        /* \"#utility.yul\":5428:5430   */\n      0x0a\n        /* \"#utility.yul\":5423:5426   */\n      dup4\n        /* \"#utility.yul\":5364:5431   */\n      tag_217\n      jump\t// in\n    tag_305:\n        /* \"#utility.yul\":5357:5431   */\n      swap2\n      pop\n        /* \"#utility.yul\":5440:5533   */\n      tag_306\n        /* \"#utility.yul\":5529:5532   */\n      dup3\n        /* \"#utility.yul\":5440:5533   */\n      tag_218\n      jump\t// in\n    tag_306:\n        /* \"#utility.yul\":5558:5560   */\n      0x20\n        /* \"#utility.yul\":5553:5556   */\n      dup3\n        /* \"#utility.yul\":5549:5561   */\n      add\n        /* \"#utility.yul\":5542:5561   */\n      swap1\n      pop\n        /* \"#utility.yul\":5201:5567   */\n      swap2\n      swap1\n      pop\n      jump\t// out\n        /* \"#utility.yul\":5573:5992   */\n    tag_112:\n        /* \"#utility.yul\":5739:5743   */\n      0x00\n        /* \"#utility.yul\":5777:5779   */\n      0x20\n        /* \"#utility.yul\":5766:5775   */\n      dup3\n        /* \"#utility.yul\":5762:5780   */\n      add\n        /* \"#utility.yul\":5754:5780   */\n      swap1\n      pop\n        /* \"#utility.yul\":5826:5835   */\n      dup2\n        /* \"#utility.yul\":5820:5824   */\n      dup2\n        /* \"#utility.yul\":5816:5836   */\n      sub\n        /* \"#utility.yul\":5812:5813   */\n      0x00\n        /* \"#utility.yul\":5801:5810   */\n      dup4\n        /* \"#utility.yul\":5797:5814   */\n      add\n        /* \"#utility.yul\":5790:5837   */\n      mstore\n        /* \"#utility.yul\":5854:5985   */\n      tag_308\n        /* \"#utility.yul\":5980:5984   */\n      dup2\n        /* \"#utility.yul\":5854:5985   */\n      tag_219\n      jump\t// in\n    tag_308:\n        /* \"#utility.yul\":5846:5985   */\n      swap1\n      pop\n        /* \"#utility.yul\":5573:5992   */\n      swap2\n      swap1\n      pop\n      jump\t// out\n        /* \"#utility.yul\":5998:6330   */\n    tag_116:\n        /* \"#utility.yul\":6119:6123   */\n      0x00\n        /* \"#utility.yul\":6157:6159   */\n      0x40\n        /* \"#utility.yul\":6146:6155   */\n      dup3\n        /* \"#utility.yul\":6142:6160   */\n      add\n        /* \"#utility.yul\":6134:6160   */\n      swap1\n      pop\n        /* \"#utility.yul\":6170:6241   */\n      tag_310\n        /* \"#utility.yul\":6238:6239   */\n      0x00\n        /* \"#utility.yul\":6227:6236   */\n      dup4\n        /* \"#utility.yul\":6223:6240   */\n      add\n        /* \"#utility.yul\":6214:6220   */\n      dup6\n        /* \"#utility.yul\":6170:6241   */\n      tag_214\n      jump\t// in\n    tag_310:\n        /* \"#utility.yul\":6251:6323   */\n      tag_311\n        /* \"#utility.yul\":6319:6321   */\n      0x20\n        /* \"#utility.yul\":6308:6317   */\n      dup4\n        /* \"#utility.yul\":6304:6322   */\n      add\n        /* \"#utility.yul\":6295:6301   */\n      dup5\n        /* \"#utility.yul\":6251:6323   */\n      tag_206\n      jump\t// in\n    tag_311:\n        /* \"#utility.yul\":5998:6330   */\n      swap4\n      swap3\n      pop\n      pop\n      pop\n      jump\t// out\n        /* \"#utility.yul\":6336:6426   */\n    tag_220:\n        /* \"#utility.yul\":6370:6377   */\n      0x00\n        /* \"#utility.yul\":6413:6418   */\n      dup2\n        /* \"#utility.yul\":6406:6419   */\n      iszero\n        /* \"#utility.yul\":6399:6420   */\n      iszero\n        /* \"#utility.yul\":6388:6420   */\n      swap1\n      pop\n        /* \"#utility.yul\":6336:6426   */\n      swap2\n      swap1\n      pop\n      jump\t// out\n        /* \"#utility.yul\":6432:6548   */\n    tag_221:\n        /* \"#utility.yul\":6502:6523   */\n      tag_314\n        /* \"#utility.yul\":6517:6522   */\n      dup2\n        /* \"#utility.yul\":6502:6523   */\n      tag_220\n      jump\t// in\n    tag_314:\n        /* \"#utility.yul\":6495:6500   */\n      dup2\n        /* \"#utility.yul\":6492:6524   */\n      eq\n        /* \"#utility.yul\":6482:6542   */\n      tag_315\n      jumpi\n        /* \"#utility.yul\":6538:6539   */\n      0x00\n        /* \"#utility.yul\":6535:6536   */\n      dup1\n        /* \"#utility.yul\":6528:6540   */\n      revert\n        /* \"#utility.yul\":6482:6542   */\n    tag_315:\n        /* \"#utility.yul\":6432:6548   */\n      pop\n      jump\t// out\n        /* \"#utility.yul\":6554:6691   */\n    tag_222:\n        /* \"#utility.yul\":6608:6613   */\n      0x00\n        /* \"#utility.yul\":6639:6645   */\n      dup2\n        /* \"#utility.yul\":6633:6646   */\n      mload\n        /* \"#utility.yul\":6624:6646   */\n      swap1\n      pop\n        /* \"#utility.yul\":6655:6685   */\n      tag_317\n        /* \"#utility.yul\":6679:6684   */\n      dup2\n        /* \"#utility.yul\":6655:6685   */\n      tag_221\n      jump\t// in\n    tag_317:\n        /* \"#utility.yul\":6554:6691   */\n      swap3\n      swap2\n      pop\n      pop\n      jump\t// out\n        /* \"#utility.yul\":6697:7042   */\n    tag_120:\n        /* \"#utility.yul\":6764:6770   */\n      0x00\n        /* \"#utility.yul\":6813:6815   */\n      0x20\n        /* \"#utility.yul\":6801:6810   */\n      dup3\n        /* \"#utility.yul\":6792:6799   */\n      dup5\n        /* \"#utility.yul\":6788:6811   */\n      sub\n        /* \"#utility.yul\":6784:6816   */\n      slt\n        /* \"#utility.yul\":6781:6900   */\n      iszero\n      tag_319\n      jumpi\n        /* \"#utility.yul\":6819:6898   */\n      tag_320\n      tag_199\n      jump\t// in\n    tag_320:\n        /* \"#utility.yul\":6781:6900   */\n    tag_319:\n        /* \"#utility.yul\":6939:6940   */\n      0x00\n        /* \"#utility.yul\":6964:7025   */\n      tag_321\n        /* \"#utility.yul\":7017:7024   */\n      dup5\n        /* \"#utility.yul\":7008:7014   */\n      dup3\n        /* \"#utility.yul\":6997:7006   */\n      dup6\n        /* \"#utility.yul\":6993:7015   */\n      add\n        /* \"#utility.yul\":6964:7025   */\n      tag_222\n      jump\t// in\n    tag_321:\n        /* \"#utility.yul\":6954:7025   */\n      swap2\n      pop\n        /* \"#utility.yul\":6910:7035   */\n      pop\n        /* \"#utility.yul\":6697:7042   */\n      swap3\n      swap2\n      pop\n      pop\n      jump\t// out\n        /* \"#utility.yul\":7048:7212   */\n    tag_223:\n        /* \"#utility.yul\":7188:7204   */\n      0x6e6f7420617574686f72697a6564000000000000000000000000000000000000\n        /* \"#utility.yul\":7184:7185   */\n      0x00\n        /* \"#utility.yul\":7176:7182   */\n      dup3\n        /* \"#utility.yul\":7172:7186   */\n      add\n        /* \"#utility.yul\":7165:7205   */\n      mstore\n        /* \"#utility.yul\":7048:7212   */\n      pop\n      jump\t// out\n        /* \"#utility.yul\":7218:7584   */\n    tag_224:\n        /* \"#utility.yul\":7360:7363   */\n      0x00\n        /* \"#utility.yul\":7381:7448   */\n      tag_324\n        /* \"#utility.yul\":7445:7447   */\n      0x0e\n        /* \"#utility.yul\":7440:7443   */\n      dup4\n        /* \"#utility.yul\":7381:7448   */\n      tag_217\n      jump\t// in\n    tag_324:\n        /* \"#utility.yul\":7374:7448   */\n      swap2\n      pop\n        /* \"#utility.yul\":7457:7550   */\n      tag_325\n        /* \"#utility.yul\":7546:7549   */\n      dup3\n        /* \"#utility.yul\":7457:7550   */\n      tag_223\n      jump\t// in\n    tag_325:\n        /* \"#utility.yul\":7575:7577   */\n      0x20\n        /* \"#utility.yul\":7570:7573   */\n      dup3\n        /* \"#utility.yul\":7566:7578   */\n      add\n        /* \"#utility.yul\":7559:7578   */\n      swap1\n      pop\n        /* \"#utility.yul\":7218:7584   */\n      swap2\n      swap1\n      pop\n      jump\t// out\n        /* \"#utility.yul\":7590:8009   */\n    tag_124:\n        /* \"#utility.yul\":7756:7760   */\n      0x00\n        /* \"#utility.yul\":7794:7796   */\n      0x20\n        /* \"#utility.yul\":7783:7792   */\n      dup3\n        /* \"#utility.yul\":7779:7797   */\n      add\n        /* \"#utility.yul\":7771:7797   */\n      swap1\n      pop\n        /* \"#utility.yul\":7843:7852   */\n      dup2\n        /* \"#utility.yul\":7837:7841   */\n      dup2\n        /* \"#utility.yul\":7833:7853   */\n      sub\n        /* \"#utility.yul\":7829:7830   */\n      0x00\n        /* \"#utility.yul\":7818:7827   */\n      dup4\n        /* \"#utility.yul\":7814:7831   */\n      add\n        /* \"#utility.yul\":7807:7854   */\n      mstore\n        /* \"#utility.yul\":7871:8002   */\n      tag_327\n        /* \"#utility.yul\":7997:8001   */\n      dup2\n        /* \"#utility.yul\":7871:8002   */\n      tag_224\n      jump\t// in\n    tag_327:\n        /* \"#utility.yul\":7863:8002   */\n      swap1\n      pop\n        /* \"#utility.yul\":7590:8009   */\n      swap2\n      swap1\n      pop\n      jump\t// out\n        /* \"#utility.yul\":8015:8180   */\n    tag_225:\n        /* \"#utility.yul\":8155:8172   */\n      0x7265776172642072617465203d20300000000000000000000000000000000000\n        /* \"#utility.yul\":8151:8152   */\n      0x00\n        /* \"#utility.yul\":8143:8149   */\n      dup3\n        /* \"#utility.yul\":8139:8153   */\n      add\n        /* \"#utility.yul\":8132:8173   */\n      mstore\n        /* \"#utility.yul\":8015:8180   */\n      pop\n      jump\t// out\n        /* \"#utility.yul\":8186:8552   */\n    tag_226:\n        /* \"#utility.yul\":8328:8331   */\n      0x00\n        /* \"#utility.yul\":8349:8416   */\n      tag_330\n        /* \"#utility.yul\":8413:8415   */\n      0x0f\n        /* \"#utility.yul\":8408:8411   */\n      dup4\n        /* \"#utility.yul\":8349:8416   */\n      tag_217\n      jump\t// in\n    tag_330:\n        /* \"#utility.yul\":8342:8416   */\n      swap2\n      pop\n        /* \"#utility.yul\":8425:8518   */\n      tag_331\n        /* \"#utility.yul\":8514:8517   */\n      dup3\n        /* \"#utility.yul\":8425:8518   */\n      tag_225\n      jump\t// in\n    tag_331:\n        /* \"#utility.yul\":8543:8545   */\n      0x20\n        /* \"#utility.yul\":8538:8541   */\n      dup3\n        /* \"#utility.yul\":8534:8546   */\n      add\n        /* \"#utility.yul\":8527:8546   */\n      swap1\n      pop\n        /* \"#utility.yul\":8186:8552   */\n      swap2\n      swap1\n      pop\n      jump\t// out\n        /* \"#utility.yul\":8558:8977   */\n    tag_140:\n        /* \"#utility.yul\":8724:8728   */\n      0x00\n        /* \"#utility.yul\":8762:8764   */\n      0x20\n        /* \"#utility.yul\":8751:8760   */\n      dup3\n        /* \"#utility.yul\":8747:8765   */\n      add\n        /* \"#utility.yul\":8739:8765   */\n      swap1\n      pop\n        /* \"#utility.yul\":8811:8820   */\n      dup2\n        /* \"#utility.yul\":8805:8809   */\n      dup2\n        /* \"#utility.yul\":8801:8821   */\n      sub\n        /* \"#utility.yul\":8797:8798   */\n      0x00\n        /* \"#utility.yul\":8786:8795   */\n      dup4\n        /* \"#utility.yul\":8782:8799   */\n      add\n        /* \"#utility.yul\":8775:8822   */\n      mstore\n        /* \"#utility.yul\":8839:8970   */\n      tag_333\n        /* \"#utility.yul\":8965:8969   */\n      dup2\n        /* \"#utility.yul\":8839:8970   */\n      tag_226\n      jump\t// in\n    tag_333:\n        /* \"#utility.yul\":8831:8970   */\n      swap1\n      pop\n        /* \"#utility.yul\":8558:8977   */\n      swap2\n      swap1\n      pop\n      jump\t// out\n        /* \"#utility.yul\":8983:9126   */\n    tag_227:\n        /* \"#utility.yul\":9040:9045   */\n      0x00\n        /* \"#utility.yul\":9071:9077   */\n      dup2\n        /* \"#utility.yul\":9065:9078   */\n      mload\n        /* \"#utility.yul\":9056:9078   */\n      swap1\n      pop\n        /* \"#utility.yul\":9087:9120   */\n      tag_335\n        /* \"#utility.yul\":9114:9119   */\n      dup2\n        /* \"#utility.yul\":9087:9120   */\n      tag_207\n      jump\t// in\n    tag_335:\n        /* \"#utility.yul\":8983:9126   */\n      swap3\n      swap2\n      pop\n      pop\n      jump\t// out\n        /* \"#utility.yul\":9132:9483   */\n    tag_145:\n        /* \"#utility.yul\":9202:9208   */\n      0x00\n        /* \"#utility.yul\":9251:9253   */\n      0x20\n        /* \"#utility.yul\":9239:9248   */\n      dup3\n        /* \"#utility.yul\":9230:9237   */\n      dup5\n        /* \"#utility.yul\":9226:9249   */\n      sub\n        /* \"#utility.yul\":9222:9254   */\n      slt\n        /* \"#utility.yul\":9219:9338   */\n      iszero\n      tag_337\n      jumpi\n        /* \"#utility.yul\":9257:9336   */\n      tag_338\n      tag_199\n      jump\t// in\n    tag_338:\n        /* \"#utility.yul\":9219:9338   */\n    tag_337:\n        /* \"#utility.yul\":9377:9378   */\n      0x00\n        /* \"#utility.yul\":9402:9466   */\n      tag_339\n        /* \"#utility.yul\":9458:9465   */\n      dup5\n        /* \"#utility.yul\":9449:9455   */\n      dup3\n        /* \"#utility.yul\":9438:9447   */\n      dup6\n        /* \"#utility.yul\":9434:9456   */\n      add\n        /* \"#utility.yul\":9402:9466   */\n      tag_227\n      jump\t// in\n    tag_339:\n        /* \"#utility.yul\":9392:9466   */\n      swap2\n      pop\n        /* \"#utility.yul\":9348:9476   */\n      pop\n        /* \"#utility.yul\":9132:9483   */\n      swap3\n      swap2\n      pop\n      pop\n      jump\t// out\n        /* \"#utility.yul\":9489:9662   */\n    tag_228:\n        /* \"#utility.yul\":9629:9654   */\n      0x72657761726420616d6f756e74203e2062616c616e6365000000000000000000\n        /* \"#utility.yul\":9625:9626   */\n      0x00\n        /* \"#utility.yul\":9617:9623   */\n      dup3\n        /* \"#utility.yul\":9613:9627   */\n      add\n        /* \"#utility.yul\":9606:9655   */\n      mstore\n        /* \"#utility.yul\":9489:9662   */\n      pop\n      jump\t// out\n        /* \"#utility.yul\":9668:10034   */\n    tag_229:\n        /* \"#utility.yul\":9810:9813   */\n      0x00\n        /* \"#utility.yul\":9831:9898   */\n      tag_342\n        /* \"#utility.yul\":9895:9897   */\n      0x17\n        /* \"#utility.yul\":9890:9893   */\n      dup4\n        /* \"#utility.yul\":9831:9898   */\n      tag_217\n      jump\t// in\n    tag_342:\n        /* \"#utility.yul\":9824:9898   */\n      swap2\n      pop\n        /* \"#utility.yul\":9907:10000   */\n      tag_343\n        /* \"#utility.yul\":9996:9999   */\n      dup3\n        /* \"#utility.yul\":9907:10000   */\n      tag_228\n      jump\t// in\n    tag_343:\n        /* \"#utility.yul\":10025:10027   */\n      0x20\n        /* \"#utility.yul\":10020:10023   */\n      dup3\n        /* \"#utility.yul\":10016:10028   */\n      add\n        /* \"#utility.yul\":10009:10028   */\n      swap1\n      pop\n        /* \"#utility.yul\":9668:10034   */\n      swap2\n      swap1\n      pop\n      jump\t// out\n        /* \"#utility.yul\":10040:10459   */\n    tag_149:\n        /* \"#utility.yul\":10206:10210   */\n      0x00\n        /* \"#utility.yul\":10244:10246   */\n      0x20\n        /* \"#utility.yul\":10233:10242   */\n      dup3\n        /* \"#utility.yul\":10229:10247   */\n      add\n        /* \"#utility.yul\":10221:10247   */\n      swap1\n      pop\n        /* \"#utility.yul\":10293:10302   */\n      dup2\n        /* \"#utility.yul\":10287:10291   */\n      dup2\n        /* \"#utility.yul\":10283:10303   */\n      sub\n        /* \"#utility.yul\":10279:10280   */\n      0x00\n        /* \"#utility.yul\":10268:10277   */\n      dup4\n        /* \"#utility.yul\":10264:10281   */\n      add\n        /* \"#utility.yul\":10257:10304   */\n      mstore\n        /* \"#utility.yul\":10321:10452   */\n      tag_345\n        /* \"#utility.yul\":10447:10451   */\n      dup2\n        /* \"#utility.yul\":10321:10452   */\n      tag_229\n      jump\t// in\n    tag_345:\n        /* \"#utility.yul\":10313:10452   */\n      swap1\n      pop\n        /* \"#utility.yul\":10040:10459   */\n      swap2\n      swap1\n      pop\n      jump\t// out\n        /* \"#utility.yul\":10465:10907   */\n    tag_174:\n        /* \"#utility.yul\":10614:10618   */\n      0x00\n        /* \"#utility.yul\":10652:10654   */\n      0x60\n        /* \"#utility.yul\":10641:10650   */\n      dup3\n        /* \"#utility.yul\":10637:10655   */\n      add\n        /* \"#utility.yul\":10629:10655   */\n      swap1\n      pop\n        /* \"#utility.yul\":10665:10736   */\n      tag_347\n        /* \"#utility.yul\":10733:10734   */\n      0x00\n        /* \"#utility.yul\":10722:10731   */\n      dup4\n        /* \"#utility.yul\":10718:10735   */\n      add\n        /* \"#utility.yul\":10709:10715   */\n      dup7\n        /* \"#utility.yul\":10665:10736   */\n      tag_214\n      jump\t// in\n    tag_347:\n        /* \"#utility.yul\":10746:10818   */\n      tag_348\n        /* \"#utility.yul\":10814:10816   */\n      0x20\n        /* \"#utility.yul\":10803:10812   */\n      dup4\n        /* \"#utility.yul\":10799:10817   */\n      add\n        /* \"#utility.yul\":10790:10796   */\n      dup6\n        /* \"#utility.yul\":10746:10818   */\n      tag_214\n      jump\t// in\n    tag_348:\n        /* \"#utility.yul\":10828:10900   */\n      tag_349\n        /* \"#utility.yul\":10896:10898   */\n      0x40\n        /* \"#utility.yul\":10885:10894   */\n      dup4\n        /* \"#utility.yul\":10881:10899   */\n      add\n        /* \"#utility.yul\":10872:10878   */\n      dup5\n        /* \"#utility.yul\":10828:10900   */\n      tag_206\n      jump\t// in\n    tag_349:\n        /* \"#utility.yul\":10465:10907   */\n      swap5\n      swap4\n      pop\n      pop\n      pop\n      pop\n      jump\t// out\n        /* \"#utility.yul\":10913:11091   */\n    tag_230:\n        /* \"#utility.yul\":11053:11083   */\n      0x726577617264206475726174696f6e206e6f742066696e697368656400000000\n        /* \"#utility.yul\":11049:11050   */\n      0x00\n        /* \"#utility.yul\":11041:11047   */\n      dup3\n        /* \"#utility.yul\":11037:11051   */\n      add\n        /* \"#utility.yul\":11030:11084   */\n      mstore\n        /* \"#utility.yul\":10913:11091   */\n      pop\n      jump\t// out\n        /* \"#utility.yul\":11097:11463   */\n    tag_231:\n        /* \"#utility.yul\":11239:11242   */\n      0x00\n        /* \"#utility.yul\":11260:11327   */\n      tag_352\n        /* \"#utility.yul\":11324:11326   */\n      0x1c\n        /* \"#utility.yul\":11319:11322   */\n      dup4\n        /* \"#utility.yul\":11260:11327   */\n      tag_217\n      jump\t// in\n    tag_352:\n        /* \"#utility.yul\":11253:11327   */\n      swap2\n      pop\n        /* \"#utility.yul\":11336:11429   */\n      tag_353\n        /* \"#utility.yul\":11425:11428   */\n      dup3\n        /* \"#utility.yul\":11336:11429   */\n      tag_230\n      jump\t// in\n    tag_353:\n        /* \"#utility.yul\":11454:11456   */\n      0x20\n        /* \"#utility.yul\":11449:11452   */\n      dup3\n        /* \"#utility.yul\":11445:11457   */\n      add\n        /* \"#utility.yul\":11438:11457   */\n      swap1\n      pop\n        /* \"#utility.yul\":11097:11463   */\n      swap2\n      swap1\n      pop\n      jump\t// out\n        /* \"#utility.yul\":11469:11888   */\n    tag_186:\n        /* \"#utility.yul\":11635:11639   */\n      0x00\n        /* \"#utility.yul\":11673:11675   */\n      0x20\n        /* \"#utility.yul\":11662:11671   */\n      dup3\n        /* \"#utility.yul\":11658:11676   */\n      add\n        /* \"#utility.yul\":11650:11676   */\n      swap1\n      pop\n        /* \"#utility.yul\":11722:11731   */\n      dup2\n        /* \"#utility.yul\":11716:11720   */\n      dup2\n        /* \"#utility.yul\":11712:11732   */\n      sub\n        /* \"#utility.yul\":11708:11709   */\n      0x00\n        /* \"#utility.yul\":11697:11706   */\n      dup4\n        /* \"#utility.yul\":11693:11710   */\n      add\n        /* \"#utility.yul\":11686:11733   */\n      mstore\n        /* \"#utility.yul\":11750:11881   */\n      tag_355\n        /* \"#utility.yul\":11876:11880   */\n      dup2\n        /* \"#utility.yul\":11750:11881   */\n      tag_231\n      jump\t// in\n    tag_355:\n        /* \"#utility.yul\":11742:11881   */\n      swap1\n      pop\n        /* \"#utility.yul\":11469:11888   */\n      swap2\n      swap1\n      pop\n      jump\t// out\n\n    auxdata: 0xa264697066735822122001879f054998bff08b38fd2b494bd6e278c947157e8af86385335a1a6d8e7d7f64736f6c634300081a0033\n}\n",
				"bytecode": {
					"linkReferences": {},
					"object": "60c060405234801561000f575f80fd5b506040516118443803806118448339818101604052810190610031919061013d565b335f806101000a81548173ffffffffffffffffffffffffffffffffffffffff021916908373ffffffffffffffffffffffffffffffffffffffff1602179055508173ffffffffffffffffffffffffffffffffffffffff1660808173ffffffffffffffffffffffffffffffffffffffff16815250508073ffffffffffffffffffffffffffffffffffffffff1660a08173ffffffffffffffffffffffffffffffffffffffff1681525050505061017b565b5f80fd5b5f73ffffffffffffffffffffffffffffffffffffffff82169050919050565b5f61010c826100e3565b9050919050565b61011c81610102565b8114610126575f80fd5b50565b5f8151905061013781610113565b92915050565b5f8060408385031215610153576101526100df565b5b5f61016085828601610129565b925050602061017185828601610129565b9150509250929050565b60805160a05161168c6101b85f395f818161090c01528181610b7e015261102601525f818161065b01528181610c3a0152610dd5015261168c5ff3fe608060405234801561000f575f80fd5b5060043610610129575f3560e01c80637519ab50116100ab578063a694fc3a1161006f578063a694fc3a1461031f578063cc1a378f1461033b578063cd3daf9d14610357578063d1af0c7d14610375578063df136d651461039357610129565b80637519ab50146102775780637b0a47ee1461029557806380faa57d146102b35780638b876347146102d15780638da5cb5b1461030157610129565b80633c6b16ab116100f25780633c6b16ab146101e55780633d18b9121461020157806367d3b4881461020b57806370a082311461022957806372f702f31461025957610129565b80628cc2621461012d5780630700037d1461015d5780630fb5a6b41461018d57806318160ddd146101ab5780632e1a7d4d146101c9575b5f80fd5b610147600480360381019061014291906110c5565b6103b1565b6040516101549190611108565b60405180910390f35b610177600480360381019061017291906110c5565b6104ac565b6040516101849190611108565b60405180910390f35b6101956104c1565b6040516101a29190611108565b60405180910390f35b6101b36104c7565b6040516101c09190611108565b60405180910390f35b6101e360048036038101906101de919061114b565b6104cd565b005b6101ff60048036038101906101fa919061114b565b6106f9565b005b610209610a12565b005b610213610c1d565b6040516102209190611108565b60405180910390f35b610243600480360381019061023e91906110c5565b610c23565b6040516102509190611108565b60405180910390f35b610261610c38565b60405161026e91906111d1565b60405180910390f35b61027f610c5c565b60405161028c9190611108565b60405180910390f35b61029d610c62565b6040516102aa9190611108565b60405180910390f35b6102bb610c68565b6040516102c89190611108565b60405180910390f35b6102eb60048036038101906102e691906110c5565b610c7a565b6040516102f89190611108565b60405180910390f35b610309610c8f565b60405161031691906111f9565b60405180910390f35b6103396004803603810190610334919061114b565b610cb2565b005b6103556004803603810190610350919061114b565b610ee0565b005b61035f610fbb565b60405161036c9190611108565b60405180910390f35b61037d611024565b60405161038a91906111d1565b60405180910390f35b61039b611048565b6040516103a89190611108565b60405180910390f35b5f60075f8373ffffffffffffffffffffffffffffffffffffffff1673ffffffffffffffffffffffffffffffffffffffff1681526020019081526020015f2054670de0b6b3a764000060065f8573ffffffffffffffffffffffffffffffffffffffff1673ffffffffffffffffffffffffffffffffffffffff1681526020019081526020015f205461043f610fbb565b610449919061123f565b60095f8673ffffffffffffffffffffffffffffffffffffffff1673ffffffffffffffffffffffffffffffffffffffff1681526020019081526020015f20546104919190611272565b61049b91906112e0565b6104a59190611310565b9050919050565b6007602052805f5260405f205f915090505481565b60015481565b60085481565b336104d6610fbb565b6005819055506104e4610c68565b6003819055505f73ffffffffffffffffffffffffffffffffffffffff168173ffffffffffffffffffffffffffffffffffffffff16146105ac57610526816103b1565b60075f8373ffffffffffffffffffffffffffffffffffffffff1673ffffffffffffffffffffffffffffffffffffffff1681526020019081526020015f208190555060055460065f8373ffffffffffffffffffffffffffffffffffffffff1673ffffffffffffffffffffffffffffffffffffffff1681526020019081526020015f20819055505b5f82116105ee576040517f08c379a00000000000000000000000000000000000000000000000000000000081526004016105e59061139d565b60405180910390fd5b8160095f3373ffffffffffffffffffffffffffffffffffffffff1673ffffffffffffffffffffffffffffffffffffffff1681526020019081526020015f205f82825461063a919061123f565b925050819055508160085f828254610652919061123f565b925050819055507f000000000000000000000000000000000000000000000000000000000000000073ffffffffffffffffffffffffffffffffffffffff1663a9059cbb33846040518363ffffffff1660e01b81526004016106b49291906113bb565b6020604051808303815f875af11580156106d0573d5f803e3d5ffd5b505050506040513d601f19601f820116820180604052508101906106f49190611417565b505050565b5f8054906101000a900473ffffffffffffffffffffffffffffffffffffffff1673ffffffffffffffffffffffffffffffffffffffff163373ffffffffffffffffffffffffffffffffffffffff1614610786576040517f08c379a000000000000000000000000000000000000000000000000000000000815260040161077d9061148c565b60405180910390fd5b5f61078f610fbb565b60058190555061079d610c68565b6003819055505f73ffffffffffffffffffffffffffffffffffffffff168173ffffffffffffffffffffffffffffffffffffffff1614610865576107df816103b1565b60075f8373ffffffffffffffffffffffffffffffffffffffff1673ffffffffffffffffffffffffffffffffffffffff1681526020019081526020015f208190555060055460065f8373ffffffffffffffffffffffffffffffffffffffff1673ffffffffffffffffffffffffffffffffffffffff1681526020019081526020015f20819055505b6002544210610887576001548261087c91906112e0565b6004819055506108c6565b5f60045442600254610899919061123f565b6108a39190611272565b905060015481846108b49190611310565b6108be91906112e0565b600481905550505b5f6004541161090a576040517f08c379a0000000000000000000000000000000000000000000000000000000008152600401610901906114f4565b60405180910390fd5b7f000000000000000000000000000000000000000000000000000000000000000073ffffffffffffffffffffffffffffffffffffffff166370a08231306040518263ffffffff1660e01b815260040161096391906111f9565b602060405180830381865afa15801561097e573d5f803e3d5ffd5b505050506040513d601f19601f820116820180604052508101906109a29190611526565b6001546004546109b29190611272565b11156109f3576040517f08c379a00000000000000000000000000000000000000000000000000000000081526004016109ea9061159b565b60405180910390fd5b60015442610a019190611310565b600281905550426003819055505050565b33610a1b610fbb565b600581905550610a29610c68565b6003819055505f73ffffffffffffffffffffffffffffffffffffffff168173ffffffffffffffffffffffffffffffffffffffff1614610af157610a6b816103b1565b60075f8373ffffffffffffffffffffffffffffffffffffffff1673ffffffffffffffffffffffffffffffffffffffff1681526020019081526020015f208190555060055460065f8373ffffffffffffffffffffffffffffffffffffffff1673ffffffffffffffffffffffffffffffffffffffff1681526020019081526020015f20819055505b5f60075f3373ffffffffffffffffffffffffffffffffffffffff1673ffffffffffffffffffffffffffffffffffffffff1681526020019081526020015f205490505f811115610c19575f60075f3373ffffffffffffffffffffffffffffffffffffffff1673ffffffffffffffffffffffffffffffffffffffff1681526020019081526020015f20819055507f000000000000000000000000000000000000000000000000000000000000000073ffffffffffffffffffffffffffffffffffffffff1663a9059cbb33836040518363ffffffff1660e01b8152600401610bd79291906113bb565b6020604051808303815f875af1158015610bf3573d5f803e3d5ffd5b505050506040513d601f19601f82011682018060405250810190610c179190611417565b505b5050565b60025481565b6009602052805f5260405f205f915090505481565b7f000000000000000000000000000000000000000000000000000000000000000081565b60035481565b60045481565b5f610c756002544261104e565b905090565b6006602052805f5260405f205f915090505481565b5f8054906101000a900473ffffffffffffffffffffffffffffffffffffffff1681565b33610cbb610fbb565b600581905550610cc9610c68565b6003819055505f73ffffffffffffffffffffffffffffffffffffffff168173ffffffffffffffffffffffffffffffffffffffff1614610d9157610d0b816103b1565b60075f8373ffffffffffffffffffffffffffffffffffffffff1673ffffffffffffffffffffffffffffffffffffffff1681526020019081526020015f208190555060055460065f8373ffffffffffffffffffffffffffffffffffffffff1673ffffffffffffffffffffffffffffffffffffffff1681526020019081526020015f20819055505b5f8211610dd3576040517f08c379a0000000000000000000000000000000000000000000000000000000008152600401610dca9061139d565b60405180910390fd5b7f000000000000000000000000000000000000000000000000000000000000000073ffffffffffffffffffffffffffffffffffffffff166323b872dd3330856040518463ffffffff1660e01b8152600401610e30939291906115b9565b6020604051808303815f875af1158015610e4c573d5f803e3d5ffd5b505050506040513d601f19601f82011682018060405250810190610e709190611417565b508160095f3373ffffffffffffffffffffffffffffffffffffffff1673ffffffffffffffffffffffffffffffffffffffff1681526020019081526020015f205f828254610ebd9190611310565b925050819055508160085f828254610ed59190611310565b925050819055505050565b5f8054906101000a900473ffffffffffffffffffffffffffffffffffffffff1673ffffffffffffffffffffffffffffffffffffffff163373ffffffffffffffffffffffffffffffffffffffff1614610f6d576040517f08c379a0000000000000000000000000000000000000000000000000000000008152600401610f649061148c565b60405180910390fd5b4260025410610fb1576040517f08c379a0000000000000000000000000000000000000000000000000000000008152600401610fa890611638565b60405180910390fd5b8060018190555050565b5f8060085403610fcf576005549050611021565b600854670de0b6b3a7640000600354610fe6610c68565b610ff0919061123f565b600454610ffd9190611272565b6110079190611272565b61101191906112e0565b60055461101e9190611310565b90505b90565b7f000000000000000000000000000000000000000000000000000000000000000081565b60055481565b5f8183111561105d578161105f565b825b905092915050565b5f80fd5b5f73ffffffffffffffffffffffffffffffffffffffff82169050919050565b5f6110948261106b565b9050919050565b6110a48161108a565b81146110ae575f80fd5b50565b5f813590506110bf8161109b565b92915050565b5f602082840312156110da576110d9611067565b5b5f6110e7848285016110b1565b91505092915050565b5f819050919050565b611102816110f0565b82525050565b5f60208201905061111b5f8301846110f9565b92915050565b61112a816110f0565b8114611134575f80fd5b50565b5f8135905061114581611121565b92915050565b5f602082840312156111605761115f611067565b5b5f61116d84828501611137565b91505092915050565b5f819050919050565b5f61119961119461118f8461106b565b611176565b61106b565b9050919050565b5f6111aa8261117f565b9050919050565b5f6111bb826111a0565b9050919050565b6111cb816111b1565b82525050565b5f6020820190506111e45f8301846111c2565b92915050565b6111f38161108a565b82525050565b5f60208201905061120c5f8301846111ea565b92915050565b7f4e487b71000000000000000000000000000000000000000000000000000000005f52601160045260245ffd5b5f611249826110f0565b9150611254836110f0565b925082820390508181111561126c5761126b611212565b5b92915050565b5f61127c826110f0565b9150611287836110f0565b9250828202611295816110f0565b915082820484148315176112ac576112ab611212565b5b5092915050565b7f4e487b71000000000000000000000000000000000000000000000000000000005f52601260045260245ffd5b5f6112ea826110f0565b91506112f5836110f0565b925082611305576113046112b3565b5b828204905092915050565b5f61131a826110f0565b9150611325836110f0565b925082820190508082111561133d5761133c611212565b5b92915050565b5f82825260208201905092915050565b7f616d6f756e74203d2030000000000000000000000000000000000000000000005f82015250565b5f611387600a83611343565b915061139282611353565b602082019050919050565b5f6020820190508181035f8301526113b48161137b565b9050919050565b5f6040820190506113ce5f8301856111ea565b6113db60208301846110f9565b9392505050565b5f8115159050919050565b6113f6816113e2565b8114611400575f80fd5b50565b5f81519050611411816113ed565b92915050565b5f6020828403121561142c5761142b611067565b5b5f61143984828501611403565b91505092915050565b7f6e6f7420617574686f72697a65640000000000000000000000000000000000005f82015250565b5f611476600e83611343565b915061148182611442565b602082019050919050565b5f6020820190508181035f8301526114a38161146a565b9050919050565b7f7265776172642072617465203d203000000000000000000000000000000000005f82015250565b5f6114de600f83611343565b91506114e9826114aa565b602082019050919050565b5f6020820190508181035f83015261150b816114d2565b9050919050565b5f8151905061152081611121565b92915050565b5f6020828403121561153b5761153a611067565b5b5f61154884828501611512565b91505092915050565b7f72657761726420616d6f756e74203e2062616c616e63650000000000000000005f82015250565b5f611585601783611343565b915061159082611551565b602082019050919050565b5f6020820190508181035f8301526115b281611579565b9050919050565b5f6060820190506115cc5f8301866111ea565b6115d960208301856111ea565b6115e660408301846110f9565b949350505050565b7f726577617264206475726174696f6e206e6f742066696e6973686564000000005f82015250565b5f611622601c83611343565b915061162d826115ee565b602082019050919050565b5f6020820190508181035f83015261164f81611616565b905091905056fea264697066735822122001879f054998bff08b38fd2b494bd6e278c947157e8af86385335a1a6d8e7d7f64736f6c634300081a0033",
					"opcodes": "PUSH1 0xC0 PUSH1 0x40 MSTORE CALLVALUE DUP1 ISZERO PUSH2 0xF JUMPI PUSH0 DUP1 REVERT JUMPDEST POP PUSH1 0x40 MLOAD PUSH2 0x1844 CODESIZE SUB DUP1 PUSH2 0x1844 DUP4 CODECOPY DUP2 DUP2 ADD PUSH1 0x40 MSTORE DUP2 ADD SWAP1 PUSH2 0x31 SWAP2 SWAP1 PUSH2 0x13D JUMP JUMPDEST CALLER PUSH0 DUP1 PUSH2 0x100 EXP DUP2 SLOAD DUP2 PUSH20 0xFFFFFFFFFFFFFFFFFFFFFFFFFFFFFFFFFFFFFFFF MUL NOT AND SWAP1 DUP4 PUSH20 0xFFFFFFFFFFFFFFFFFFFFFFFFFFFFFFFFFFFFFFFF AND MUL OR SWAP1 SSTORE POP DUP2 PUSH20 0xFFFFFFFFFFFFFFFFFFFFFFFFFFFFFFFFFFFFFFFF AND PUSH1 0x80 DUP2 PUSH20 0xFFFFFFFFFFFFFFFFFFFFFFFFFFFFFFFFFFFFFFFF AND DUP2 MSTORE POP POP DUP1 PUSH20 0xFFFFFFFFFFFFFFFFFFFFFFFFFFFFFFFFFFFFFFFF AND PUSH1 0xA0 DUP2 PUSH20 0xFFFFFFFFFFFFFFFFFFFFFFFFFFFFFFFFFFFFFFFF AND DUP2 MSTORE POP POP POP POP PUSH2 0x17B JUMP JUMPDEST PUSH0 DUP1 REVERT JUMPDEST PUSH0 PUSH20 0xFFFFFFFFFFFFFFFFFFFFFFFFFFFFFFFFFFFFFFFF DUP3 AND SWAP1 POP SWAP2 SWAP1 POP JUMP JUMPDEST PUSH0 PUSH2 0x10C DUP3 PUSH2 0xE3 JUMP JUMPDEST SWAP1 POP SWAP2 SWAP1 POP JUMP JUMPDEST PUSH2 0x11C DUP2 PUSH2 0x102 JUMP JUMPDEST DUP2 EQ PUSH2 0x126 JUMPI PUSH0 DUP1 REVERT JUMPDEST POP JUMP JUMPDEST PUSH0 DUP2 MLOAD SWAP1 POP PUSH2 0x137 DUP2 PUSH2 0x113 JUMP JUMPDEST SWAP3 SWAP2 POP POP JUMP JUMPDEST PUSH0 DUP1 PUSH1 0x40 DUP4 DUP6 SUB SLT ISZERO PUSH2 0x153 JUMPI PUSH2 0x152 PUSH2 0xDF JUMP JUMPDEST JUMPDEST PUSH0 PUSH2 0x160 DUP6 DUP3 DUP7 ADD PUSH2 0x129 JUMP JUMPDEST SWAP3 POP POP PUSH1 0x20 PUSH2 0x171 DUP6 DUP3 DUP7 ADD PUSH2 0x129 JUMP JUMPDEST SWAP2 POP POP SWAP3 POP SWAP3 SWAP1 POP JUMP JUMPDEST PUSH1 0x80 MLOAD PUSH1 0xA0 MLOAD PUSH2 0x168C PUSH2 0x1B8 PUSH0 CODECOPY PUSH0 DUP2 DUP2 PUSH2 0x90C ADD MSTORE DUP2 DUP2 PUSH2 0xB7E ADD MSTORE PUSH2 0x1026 ADD MSTORE PUSH0 DUP2 DUP2 PUSH2 0x65B ADD MSTORE DUP2 DUP2 PUSH2 0xC3A ADD MSTORE PUSH2 0xDD5 ADD MSTORE PUSH2 0x168C PUSH0 RETURN INVALID PUSH1 0x80 PUSH1 0x40 MSTORE CALLVALUE DUP1 ISZERO PUSH2 0xF JUMPI PUSH0 DUP1 REVERT JUMPDEST POP PUSH1 0x4 CALLDATASIZE LT PUSH2 0x129 JUMPI PUSH0 CALLDATALOAD PUSH1 0xE0 SHR DUP1 PUSH4 0x7519AB50 GT PUSH2 0xAB JUMPI DUP1 PUSH4 0xA694FC3A GT PUSH2 0x6F JUMPI DUP1 PUSH4 0xA694FC3A EQ PUSH2 0x31F JUMPI DUP1 PUSH4 0xCC1A378F EQ PUSH2 0x33B JUMPI DUP1 PUSH4 0xCD3DAF9D EQ PUSH2 0x357 JUMPI DUP1 PUSH4 0xD1AF0C7D EQ PUSH2 0x375 JUMPI DUP1 PUSH4 0xDF136D65 EQ PUSH2 0x393 JUMPI PUSH2 0x129 JUMP JUMPDEST DUP1 PUSH4 0x7519AB50 EQ PUSH2 0x277 JUMPI DUP1 PUSH4 0x7B0A47EE EQ PUSH2 0x295 JUMPI DUP1 PUSH4 0x80FAA57D EQ PUSH2 0x2B3 JUMPI DUP1 PUSH4 0x8B876347 EQ PUSH2 0x2D1 JUMPI DUP1 PUSH4 0x8DA5CB5B EQ PUSH2 0x301 JUMPI PUSH2 0x129 JUMP JUMPDEST DUP1 PUSH4 0x3C6B16AB GT PUSH2 0xF2 JUMPI DUP1 PUSH4 0x3C6B16AB EQ PUSH2 0x1E5 JUMPI DUP1 PUSH4 0x3D18B912 EQ PUSH2 0x201 JUMPI DUP1 PUSH4 0x67D3B488 EQ PUSH2 0x20B JUMPI DUP1 PUSH4 0x70A08231 EQ PUSH2 0x229 JUMPI DUP1 PUSH4 0x72F702F3 EQ PUSH2 0x259 JUMPI PUSH2 0x129 JUMP JUMPDEST DUP1 PUSH3 0x8CC262 EQ PUSH2 0x12D JUMPI DUP1 PUSH4 0x700037D EQ PUSH2 0x15D JUMPI DUP1 PUSH4 0xFB5A6B4 EQ PUSH2 0x18D JUMPI DUP1 PUSH4 0x18160DDD EQ PUSH2 0x1AB JUMPI DUP1 PUSH4 0x2E1A7D4D EQ PUSH2 0x1C9 JUMPI JUMPDEST PUSH0 DUP1 REVERT JUMPDEST PUSH2 0x147 PUSH1 0x4 DUP1 CALLDATASIZE SUB DUP2 ADD SWAP1 PUSH2 0x142 SWAP2 SWAP1 PUSH2 0x10C5 JUMP JUMPDEST PUSH2 0x3B1 JUMP JUMPDEST PUSH1 0x40 MLOAD PUSH2 0x154 SWAP2 SWAP1 PUSH2 0x1108 JUMP JUMPDEST PUSH1 0x40 MLOAD DUP1 SWAP2 SUB SWAP1 RETURN JUMPDEST PUSH2 0x177 PUSH1 0x4 DUP1 CALLDATASIZE SUB DUP2 ADD SWAP1 PUSH2 0x172 SWAP2 SWAP1 PUSH2 0x10C5 JUMP JUMPDEST PUSH2 0x4AC JUMP JUMPDEST PUSH1 0x40 MLOAD PUSH2 0x184 SWAP2 SWAP1 PUSH2 0x1108 JUMP JUMPDEST PUSH1 0x40 MLOAD DUP1 SWAP2 SUB SWAP1 RETURN JUMPDEST PUSH2 0x195 PUSH2 0x4C1 JUMP JUMPDEST PUSH1 0x40 MLOAD PUSH2 0x1A2 SWAP2 SWAP1 PUSH2 0x1108 JUMP JUMPDEST PUSH1 0x40 MLOAD DUP1 SWAP2 SUB SWAP1 RETURN JUMPDEST PUSH2 0x1B3 PUSH2 0x4C7 JUMP JUMPDEST PUSH1 0x40 MLOAD PUSH2 0x1C0 SWAP2 SWAP1 PUSH2 0x1108 JUMP JUMPDEST PUSH1 0x40 MLOAD DUP1 SWAP2 SUB SWAP1 RETURN JUMPDEST PUSH2 0x1E3 PUSH1 0x4 DUP1 CALLDATASIZE SUB DUP2 ADD SWAP1 PUSH2 0x1DE SWAP2 SWAP1 PUSH2 0x114B JUMP JUMPDEST PUSH2 0x4CD JUMP JUMPDEST STOP JUMPDEST PUSH2 0x1FF PUSH1 0x4 DUP1 CALLDATASIZE SUB DUP2 ADD SWAP1 PUSH2 0x1FA SWAP2 SWAP1 PUSH2 0x114B JUMP JUMPDEST PUSH2 0x6F9 JUMP JUMPDEST STOP JUMPDEST PUSH2 0x209 PUSH2 0xA12 JUMP JUMPDEST STOP JUMPDEST PUSH2 0x213 PUSH2 0xC1D JUMP JUMPDEST PUSH1 0x40 MLOAD PUSH2 0x220 SWAP2 SWAP1 PUSH2 0x1108 JUMP JUMPDEST PUSH1 0x40 MLOAD DUP1 SWAP2 SUB SWAP1 RETURN JUMPDEST PUSH2 0x243 PUSH1 0x4 DUP1 CALLDATASIZE SUB DUP2 ADD SWAP1 PUSH2 0x23E SWAP2 SWAP1 PUSH2 0x10C5 JUMP JUMPDEST PUSH2 0xC23 JUMP JUMPDEST PUSH1 0x40 MLOAD PUSH2 0x250 SWAP2 SWAP1 PUSH2 0x1108 JUMP JUMPDEST PUSH1 0x40 MLOAD DUP1 SWAP2 SUB SWAP1 RETURN JUMPDEST PUSH2 0x261 PUSH2 0xC38 JUMP JUMPDEST PUSH1 0x40 MLOAD PUSH2 0x26E SWAP2 SWAP1 PUSH2 0x11D1 JUMP JUMPDEST PUSH1 0x40 MLOAD DUP1 SWAP2 SUB SWAP1 RETURN JUMPDEST PUSH2 0x27F PUSH2 0xC5C JUMP JUMPDEST PUSH1 0x40 MLOAD PUSH2 0x28C SWAP2 SWAP1 PUSH2 0x1108 JUMP JUMPDEST PUSH1 0x40 MLOAD DUP1 SWAP2 SUB SWAP1 RETURN JUMPDEST PUSH2 0x29D PUSH2 0xC62 JUMP JUMPDEST PUSH1 0x40 MLOAD PUSH2 0x2AA SWAP2 SWAP1 PUSH2 0x1108 JUMP JUMPDEST PUSH1 0x40 MLOAD DUP1 SWAP2 SUB SWAP1 RETURN JUMPDEST PUSH2 0x2BB PUSH2 0xC68 JUMP JUMPDEST PUSH1 0x40 MLOAD PUSH2 0x2C8 SWAP2 SWAP1 PUSH2 0x1108 JUMP JUMPDEST PUSH1 0x40 MLOAD DUP1 SWAP2 SUB SWAP1 RETURN JUMPDEST PUSH2 0x2EB PUSH1 0x4 DUP1 CALLDATASIZE SUB DUP2 ADD SWAP1 PUSH2 0x2E6 SWAP2 SWAP1 PUSH2 0x10C5 JUMP JUMPDEST PUSH2 0xC7A JUMP JUMPDEST PUSH1 0x40 MLOAD PUSH2 0x2F8 SWAP2 SWAP1 PUSH2 0x1108 JUMP JUMPDEST PUSH1 0x40 MLOAD DUP1 SWAP2 SUB SWAP1 RETURN JUMPDEST PUSH2 0x309 PUSH2 0xC8F JUMP JUMPDEST PUSH1 0x40 MLOAD PUSH2 0x316 SWAP2 SWAP1 PUSH2 0x11F9 JUMP JUMPDEST PUSH1 0x40 MLOAD DUP1 SWAP2 SUB SWAP1 RETURN JUMPDEST PUSH2 0x339 PUSH1 0x4 DUP1 CALLDATASIZE SUB DUP2 ADD SWAP1 PUSH2 0x334 SWAP2 SWAP1 PUSH2 0x114B JUMP JUMPDEST PUSH2 0xCB2 JUMP JUMPDEST STOP JUMPDEST PUSH2 0x355 PUSH1 0x4 DUP1 CALLDATASIZE SUB DUP2 ADD SWAP1 PUSH2 0x350 SWAP2 SWAP1 PUSH2 0x114B JUMP JUMPDEST PUSH2 0xEE0 JUMP JUMPDEST STOP JUMPDEST PUSH2 0x35F PUSH2 0xFBB JUMP JUMPDEST PUSH1 0x40 MLOAD PUSH2 0x36C SWAP2 SWAP1 PUSH2 0x1108 JUMP JUMPDEST PUSH1 0x40 MLOAD DUP1 SWAP2 SUB SWAP1 RETURN JUMPDEST PUSH2 0x37D PUSH2 0x1024 JUMP JUMPDEST PUSH1 0x40 MLOAD PUSH2 0x38A SWAP2 SWAP1 PUSH2 0x11D1 JUMP JUMPDEST PUSH1 0x40 MLOAD DUP1 SWAP2 SUB SWAP1 RETURN JUMPDEST PUSH2 0x39B PUSH2 0x1048 JUMP JUMPDEST PUSH1 0x40 MLOAD PUSH2 0x3A8 SWAP2 SWAP1 PUSH2 0x1108 JUMP JUMPDEST PUSH1 0x40 MLOAD DUP1 SWAP2 SUB SWAP1 RETURN JUMPDEST PUSH0 PUSH1 0x7 PUSH0 DUP4 PUSH20 0xFFFFFFFFFFFFFFFFFFFFFFFFFFFFFFFFFFFFFFFF AND PUSH20 0xFFFFFFFFFFFFFFFFFFFFFFFFFFFFFFFFFFFFFFFF AND DUP2 MSTORE PUSH1 0x20 ADD SWAP1 DUP2 MSTORE PUSH1 0x20 ADD PUSH0 KECCAK256 SLOAD PUSH8 0xDE0B6B3A7640000 PUSH1 0x6 PUSH0 DUP6 PUSH20 0xFFFFFFFFFFFFFFFFFFFFFFFFFFFFFFFFFFFFFFFF AND PUSH20 0xFFFFFFFFFFFFFFFFFFFFFFFFFFFFFFFFFFFFFFFF AND DUP2 MSTORE PUSH1 0x20 ADD SWAP1 DUP2 MSTORE PUSH1 0x20 ADD PUSH0 KECCAK256 SLOAD PUSH2 0x43F PUSH2 0xFBB JUMP JUMPDEST PUSH2 0x449 SWAP2 SWAP1 PUSH2 0x123F JUMP JUMPDEST PUSH1 0x9 PUSH0 DUP7 PUSH20 0xFFFFFFFFFFFFFFFFFFFFFFFFFFFFFFFFFFFFFFFF AND PUSH20 0xFFFFFFFFFFFFFFFFFFFFFFFFFFFFFFFFFFFFFFFF AND DUP2 MSTORE PUSH1 0x20 ADD SWAP1 DUP2 MSTORE PUSH1 0x20 ADD PUSH0 KECCAK256 SLOAD PUSH2 0x491 SWAP2 SWAP1 PUSH2 0x1272 JUMP JUMPDEST PUSH2 0x49B SWAP2 SWAP1 PUSH2 0x12E0 JUMP JUMPDEST PUSH2 0x4A5 SWAP2 SWAP1 PUSH2 0x1310 JUMP JUMPDEST SWAP1 POP SWAP2 SWAP1 POP JUMP JUMPDEST PUSH1 0x7 PUSH1 0x20 MSTORE DUP1 PUSH0 MSTORE PUSH1 0x40 PUSH0 KECCAK256 PUSH0 SWAP2 POP SWAP1 POP SLOAD DUP2 JUMP JUMPDEST PUSH1 0x1 SLOAD DUP2 JUMP JUMPDEST PUSH1 0x8 SLOAD DUP2 JUMP JUMPDEST CALLER PUSH2 0x4D6 PUSH2 0xFBB JUMP JUMPDEST PUSH1 0x5 DUP2 SWAP1 SSTORE POP PUSH2 0x4E4 PUSH2 0xC68 JUMP JUMPDEST PUSH1 0x3 DUP2 SWAP1 SSTORE POP PUSH0 PUSH20 0xFFFFFFFFFFFFFFFFFFFFFFFFFFFFFFFFFFFFFFFF AND DUP2 PUSH20 0xFFFFFFFFFFFFFFFFFFFFFFFFFFFFFFFFFFFFFFFF AND EQ PUSH2 0x5AC JUMPI PUSH2 0x526 DUP2 PUSH2 0x3B1 JUMP JUMPDEST PUSH1 0x7 PUSH0 DUP4 PUSH20 0xFFFFFFFFFFFFFFFFFFFFFFFFFFFFFFFFFFFFFFFF AND PUSH20 0xFFFFFFFFFFFFFFFFFFFFFFFFFFFFFFFFFFFFFFFF AND DUP2 MSTORE PUSH1 0x20 ADD SWAP1 DUP2 MSTORE PUSH1 0x20 ADD PUSH0 KECCAK256 DUP2 SWAP1 SSTORE POP PUSH1 0x5 SLOAD PUSH1 0x6 PUSH0 DUP4 PUSH20 0xFFFFFFFFFFFFFFFFFFFFFFFFFFFFFFFFFFFFFFFF AND PUSH20 0xFFFFFFFFFFFFFFFFFFFFFFFFFFFFFFFFFFFFFFFF AND DUP2 MSTORE PUSH1 0x20 ADD SWAP1 DUP2 MSTORE PUSH1 0x20 ADD PUSH0 KECCAK256 DUP2 SWAP1 SSTORE POP JUMPDEST PUSH0 DUP3 GT PUSH2 0x5EE JUMPI PUSH1 0x40 MLOAD PUSH32 0x8C379A000000000000000000000000000000000000000000000000000000000 DUP2 MSTORE PUSH1 0x4 ADD PUSH2 0x5E5 SWAP1 PUSH2 0x139D JUMP JUMPDEST PUSH1 0x40 MLOAD DUP1 SWAP2 SUB SWAP1 REVERT JUMPDEST DUP2 PUSH1 0x9 PUSH0 CALLER PUSH20 0xFFFFFFFFFFFFFFFFFFFFFFFFFFFFFFFFFFFFFFFF AND PUSH20 0xFFFFFFFFFFFFFFFFFFFFFFFFFFFFFFFFFFFFFFFF AND DUP2 MSTORE PUSH1 0x20 ADD SWAP1 DUP2 MSTORE PUSH1 0x20 ADD PUSH0 KECCAK256 PUSH0 DUP3 DUP3 SLOAD PUSH2 0x63A SWAP2 SWAP1 PUSH2 0x123F JUMP JUMPDEST SWAP3 POP POP DUP2 SWAP1 SSTORE POP DUP2 PUSH1 0x8 PUSH0 DUP3 DUP3 SLOAD PUSH2 0x652 SWAP2 SWAP1 PUSH2 0x123F JUMP JUMPDEST SWAP3 POP POP DUP2 SWAP1 SSTORE POP PUSH32 0x0 PUSH20 0xFFFFFFFFFFFFFFFFFFFFFFFFFFFFFFFFFFFFFFFF AND PUSH4 0xA9059CBB CALLER DUP5 PUSH1 0x40 MLOAD DUP4 PUSH4 0xFFFFFFFF AND PUSH1 0xE0 SHL DUP2 MSTORE PUSH1 0x4 ADD PUSH2 0x6B4 SWAP3 SWAP2 SWAP1 PUSH2 0x13BB JUMP JUMPDEST PUSH1 0x20 PUSH1 0x40 MLOAD DUP1 DUP4 SUB DUP2 PUSH0 DUP8 GAS CALL ISZERO DUP1 ISZERO PUSH2 0x6D0 JUMPI RETURNDATASIZE PUSH0 DUP1 RETURNDATACOPY RETURNDATASIZE PUSH0 REVERT JUMPDEST POP POP POP POP PUSH1 0x40 MLOAD RETURNDATASIZE PUSH1 0x1F NOT PUSH1 0x1F DUP3 ADD AND DUP3 ADD DUP1 PUSH1 0x40 MSTORE POP DUP2 ADD SWAP1 PUSH2 0x6F4 SWAP2 SWAP1 PUSH2 0x1417 JUMP JUMPDEST POP POP POP JUMP JUMPDEST PUSH0 DUP1 SLOAD SWAP1 PUSH2 0x100 EXP SWAP1 DIV PUSH20 0xFFFFFFFFFFFFFFFFFFFFFFFFFFFFFFFFFFFFFFFF AND PUSH20 0xFFFFFFFFFFFFFFFFFFFFFFFFFFFFFFFFFFFFFFFF AND CALLER PUSH20 0xFFFFFFFFFFFFFFFFFFFFFFFFFFFFFFFFFFFFFFFF AND EQ PUSH2 0x786 JUMPI PUSH1 0x40 MLOAD PUSH32 0x8C379A000000000000000000000000000000000000000000000000000000000 DUP2 MSTORE PUSH1 0x4 ADD PUSH2 0x77D SWAP1 PUSH2 0x148C JUMP JUMPDEST PUSH1 0x40 MLOAD DUP1 SWAP2 SUB SWAP1 REVERT JUMPDEST PUSH0 PUSH2 0x78F PUSH2 0xFBB JUMP JUMPDEST PUSH1 0x5 DUP2 SWAP1 SSTORE POP PUSH2 0x79D PUSH2 0xC68 JUMP JUMPDEST PUSH1 0x3 DUP2 SWAP1 SSTORE POP PUSH0 PUSH20 0xFFFFFFFFFFFFFFFFFFFFFFFFFFFFFFFFFFFFFFFF AND DUP2 PUSH20 0xFFFFFFFFFFFFFFFFFFFFFFFFFFFFFFFFFFFFFFFF AND EQ PUSH2 0x865 JUMPI PUSH2 0x7DF DUP2 PUSH2 0x3B1 JUMP JUMPDEST PUSH1 0x7 PUSH0 DUP4 PUSH20 0xFFFFFFFFFFFFFFFFFFFFFFFFFFFFFFFFFFFFFFFF AND PUSH20 0xFFFFFFFFFFFFFFFFFFFFFFFFFFFFFFFFFFFFFFFF AND DUP2 MSTORE PUSH1 0x20 ADD SWAP1 DUP2 MSTORE PUSH1 0x20 ADD PUSH0 KECCAK256 DUP2 SWAP1 SSTORE POP PUSH1 0x5 SLOAD PUSH1 0x6 PUSH0 DUP4 PUSH20 0xFFFFFFFFFFFFFFFFFFFFFFFFFFFFFFFFFFFFFFFF AND PUSH20 0xFFFFFFFFFFFFFFFFFFFFFFFFFFFFFFFFFFFFFFFF AND DUP2 MSTORE PUSH1 0x20 ADD SWAP1 DUP2 MSTORE PUSH1 0x20 ADD PUSH0 KECCAK256 DUP2 SWAP1 SSTORE POP JUMPDEST PUSH1 0x2 SLOAD TIMESTAMP LT PUSH2 0x887 JUMPI PUSH1 0x1 SLOAD DUP3 PUSH2 0x87C SWAP2 SWAP1 PUSH2 0x12E0 JUMP JUMPDEST PUSH1 0x4 DUP2 SWAP1 SSTORE POP PUSH2 0x8C6 JUMP JUMPDEST PUSH0 PUSH1 0x4 SLOAD TIMESTAMP PUSH1 0x2 SLOAD PUSH2 0x899 SWAP2 SWAP1 PUSH2 0x123F JUMP JUMPDEST PUSH2 0x8A3 SWAP2 SWAP1 PUSH2 0x1272 JUMP JUMPDEST SWAP1 POP PUSH1 0x1 SLOAD DUP2 DUP5 PUSH2 0x8B4 SWAP2 SWAP1 PUSH2 0x1310 JUMP JUMPDEST PUSH2 0x8BE SWAP2 SWAP1 PUSH2 0x12E0 JUMP JUMPDEST PUSH1 0x4 DUP2 SWAP1 SSTORE POP POP JUMPDEST PUSH0 PUSH1 0x4 SLOAD GT PUSH2 0x90A JUMPI PUSH1 0x40 MLOAD PUSH32 0x8C379A000000000000000000000000000000000000000000000000000000000 DUP2 MSTORE PUSH1 0x4 ADD PUSH2 0x901 SWAP1 PUSH2 0x14F4 JUMP JUMPDEST PUSH1 0x40 MLOAD DUP1 SWAP2 SUB SWAP1 REVERT JUMPDEST PUSH32 0x0 PUSH20 0xFFFFFFFFFFFFFFFFFFFFFFFFFFFFFFFFFFFFFFFF AND PUSH4 0x70A08231 ADDRESS PUSH1 0x40 MLOAD DUP3 PUSH4 0xFFFFFFFF AND PUSH1 0xE0 SHL DUP2 MSTORE PUSH1 0x4 ADD PUSH2 0x963 SWAP2 SWAP1 PUSH2 0x11F9 JUMP JUMPDEST PUSH1 0x20 PUSH1 0x40 MLOAD DUP1 DUP4 SUB DUP2 DUP7 GAS STATICCALL ISZERO DUP1 ISZERO PUSH2 0x97E JUMPI RETURNDATASIZE PUSH0 DUP1 RETURNDATACOPY RETURNDATASIZE PUSH0 REVERT JUMPDEST POP POP POP POP PUSH1 0x40 MLOAD RETURNDATASIZE PUSH1 0x1F NOT PUSH1 0x1F DUP3 ADD AND DUP3 ADD DUP1 PUSH1 0x40 MSTORE POP DUP2 ADD SWAP1 PUSH2 0x9A2 SWAP2 SWAP1 PUSH2 0x1526 JUMP JUMPDEST PUSH1 0x1 SLOAD PUSH1 0x4 SLOAD PUSH2 0x9B2 SWAP2 SWAP1 PUSH2 0x1272 JUMP JUMPDEST GT ISZERO PUSH2 0x9F3 JUMPI PUSH1 0x40 MLOAD PUSH32 0x8C379A000000000000000000000000000000000000000000000000000000000 DUP2 MSTORE PUSH1 0x4 ADD PUSH2 0x9EA SWAP1 PUSH2 0x159B JUMP JUMPDEST PUSH1 0x40 MLOAD DUP1 SWAP2 SUB SWAP1 REVERT JUMPDEST PUSH1 0x1 SLOAD TIMESTAMP PUSH2 0xA01 SWAP2 SWAP1 PUSH2 0x1310 JUMP JUMPDEST PUSH1 0x2 DUP2 SWAP1 SSTORE POP TIMESTAMP PUSH1 0x3 DUP2 SWAP1 SSTORE POP POP POP JUMP JUMPDEST CALLER PUSH2 0xA1B PUSH2 0xFBB JUMP JUMPDEST PUSH1 0x5 DUP2 SWAP1 SSTORE POP PUSH2 0xA29 PUSH2 0xC68 JUMP JUMPDEST PUSH1 0x3 DUP2 SWAP1 SSTORE POP PUSH0 PUSH20 0xFFFFFFFFFFFFFFFFFFFFFFFFFFFFFFFFFFFFFFFF AND DUP2 PUSH20 0xFFFFFFFFFFFFFFFFFFFFFFFFFFFFFFFFFFFFFFFF AND EQ PUSH2 0xAF1 JUMPI PUSH2 0xA6B DUP2 PUSH2 0x3B1 JUMP JUMPDEST PUSH1 0x7 PUSH0 DUP4 PUSH20 0xFFFFFFFFFFFFFFFFFFFFFFFFFFFFFFFFFFFFFFFF AND PUSH20 0xFFFFFFFFFFFFFFFFFFFFFFFFFFFFFFFFFFFFFFFF AND DUP2 MSTORE PUSH1 0x20 ADD SWAP1 DUP2 MSTORE PUSH1 0x20 ADD PUSH0 KECCAK256 DUP2 SWAP1 SSTORE POP PUSH1 0x5 SLOAD PUSH1 0x6 PUSH0 DUP4 PUSH20 0xFFFFFFFFFFFFFFFFFFFFFFFFFFFFFFFFFFFFFFFF AND PUSH20 0xFFFFFFFFFFFFFFFFFFFFFFFFFFFFFFFFFFFFFFFF AND DUP2 MSTORE PUSH1 0x20 ADD SWAP1 DUP2 MSTORE PUSH1 0x20 ADD PUSH0 KECCAK256 DUP2 SWAP1 SSTORE POP JUMPDEST PUSH0 PUSH1 0x7 PUSH0 CALLER PUSH20 0xFFFFFFFFFFFFFFFFFFFFFFFFFFFFFFFFFFFFFFFF AND PUSH20 0xFFFFFFFFFFFFFFFFFFFFFFFFFFFFFFFFFFFFFFFF AND DUP2 MSTORE PUSH1 0x20 ADD SWAP1 DUP2 MSTORE PUSH1 0x20 ADD PUSH0 KECCAK256 SLOAD SWAP1 POP PUSH0 DUP2 GT ISZERO PUSH2 0xC19 JUMPI PUSH0 PUSH1 0x7 PUSH0 CALLER PUSH20 0xFFFFFFFFFFFFFFFFFFFFFFFFFFFFFFFFFFFFFFFF AND PUSH20 0xFFFFFFFFFFFFFFFFFFFFFFFFFFFFFFFFFFFFFFFF AND DUP2 MSTORE PUSH1 0x20 ADD SWAP1 DUP2 MSTORE PUSH1 0x20 ADD PUSH0 KECCAK256 DUP2 SWAP1 SSTORE POP PUSH32 0x0 PUSH20 0xFFFFFFFFFFFFFFFFFFFFFFFFFFFFFFFFFFFFFFFF AND PUSH4 0xA9059CBB CALLER DUP4 PUSH1 0x40 MLOAD DUP4 PUSH4 0xFFFFFFFF AND PUSH1 0xE0 SHL DUP2 MSTORE PUSH1 0x4 ADD PUSH2 0xBD7 SWAP3 SWAP2 SWAP1 PUSH2 0x13BB JUMP JUMPDEST PUSH1 0x20 PUSH1 0x40 MLOAD DUP1 DUP4 SUB DUP2 PUSH0 DUP8 GAS CALL ISZERO DUP1 ISZERO PUSH2 0xBF3 JUMPI RETURNDATASIZE PUSH0 DUP1 RETURNDATACOPY RETURNDATASIZE PUSH0 REVERT JUMPDEST POP POP POP POP PUSH1 0x40 MLOAD RETURNDATASIZE PUSH1 0x1F NOT PUSH1 0x1F DUP3 ADD AND DUP3 ADD DUP1 PUSH1 0x40 MSTORE POP DUP2 ADD SWAP1 PUSH2 0xC17 SWAP2 SWAP1 PUSH2 0x1417 JUMP JUMPDEST POP JUMPDEST POP POP JUMP JUMPDEST PUSH1 0x2 SLOAD DUP2 JUMP JUMPDEST PUSH1 0x9 PUSH1 0x20 MSTORE DUP1 PUSH0 MSTORE PUSH1 0x40 PUSH0 KECCAK256 PUSH0 SWAP2 POP SWAP1 POP SLOAD DUP2 JUMP JUMPDEST PUSH32 0x0 DUP2 JUMP JUMPDEST PUSH1 0x3 SLOAD DUP2 JUMP JUMPDEST PUSH1 0x4 SLOAD DUP2 JUMP JUMPDEST PUSH0 PUSH2 0xC75 PUSH1 0x2 SLOAD TIMESTAMP PUSH2 0x104E JUMP JUMPDEST SWAP1 POP SWAP1 JUMP JUMPDEST PUSH1 0x6 PUSH1 0x20 MSTORE DUP1 PUSH0 MSTORE PUSH1 0x40 PUSH0 KECCAK256 PUSH0 SWAP2 POP SWAP1 POP SLOAD DUP2 JUMP JUMPDEST PUSH0 DUP1 SLOAD SWAP1 PUSH2 0x100 EXP SWAP1 DIV PUSH20 0xFFFFFFFFFFFFFFFFFFFFFFFFFFFFFFFFFFFFFFFF AND DUP2 JUMP JUMPDEST CALLER PUSH2 0xCBB PUSH2 0xFBB JUMP JUMPDEST PUSH1 0x5 DUP2 SWAP1 SSTORE POP PUSH2 0xCC9 PUSH2 0xC68 JUMP JUMPDEST PUSH1 0x3 DUP2 SWAP1 SSTORE POP PUSH0 PUSH20 0xFFFFFFFFFFFFFFFFFFFFFFFFFFFFFFFFFFFFFFFF AND DUP2 PUSH20 0xFFFFFFFFFFFFFFFFFFFFFFFFFFFFFFFFFFFFFFFF AND EQ PUSH2 0xD91 JUMPI PUSH2 0xD0B DUP2 PUSH2 0x3B1 JUMP JUMPDEST PUSH1 0x7 PUSH0 DUP4 PUSH20 0xFFFFFFFFFFFFFFFFFFFFFFFFFFFFFFFFFFFFFFFF AND PUSH20 0xFFFFFFFFFFFFFFFFFFFFFFFFFFFFFFFFFFFFFFFF AND DUP2 MSTORE PUSH1 0x20 ADD SWAP1 DUP2 MSTORE PUSH1 0x20 ADD PUSH0 KECCAK256 DUP2 SWAP1 SSTORE POP PUSH1 0x5 SLOAD PUSH1 0x6 PUSH0 DUP4 PUSH20 0xFFFFFFFFFFFFFFFFFFFFFFFFFFFFFFFFFFFFFFFF AND PUSH20 0xFFFFFFFFFFFFFFFFFFFFFFFFFFFFFFFFFFFFFFFF AND DUP2 MSTORE PUSH1 0x20 ADD SWAP1 DUP2 MSTORE PUSH1 0x20 ADD PUSH0 KECCAK256 DUP2 SWAP1 SSTORE POP JUMPDEST PUSH0 DUP3 GT PUSH2 0xDD3 JUMPI PUSH1 0x40 MLOAD PUSH32 0x8C379A000000000000000000000000000000000000000000000000000000000 DUP2 MSTORE PUSH1 0x4 ADD PUSH2 0xDCA SWAP1 PUSH2 0x139D JUMP JUMPDEST PUSH1 0x40 MLOAD DUP1 SWAP2 SUB SWAP1 REVERT JUMPDEST PUSH32 0x0 PUSH20 0xFFFFFFFFFFFFFFFFFFFFFFFFFFFFFFFFFFFFFFFF AND PUSH4 0x23B872DD CALLER ADDRESS DUP6 PUSH1 0x40 MLOAD DUP5 PUSH4 0xFFFFFFFF AND PUSH1 0xE0 SHL DUP2 MSTORE PUSH1 0x4 ADD PUSH2 0xE30 SWAP4 SWAP3 SWAP2 SWAP1 PUSH2 0x15B9 JUMP JUMPDEST PUSH1 0x20 PUSH1 0x40 MLOAD DUP1 DUP4 SUB DUP2 PUSH0 DUP8 GAS CALL ISZERO DUP1 ISZERO PUSH2 0xE4C JUMPI RETURNDATASIZE PUSH0 DUP1 RETURNDATACOPY RETURNDATASIZE PUSH0 REVERT JUMPDEST POP POP POP POP PUSH1 0x40 MLOAD RETURNDATASIZE PUSH1 0x1F NOT PUSH1 0x1F DUP3 ADD AND DUP3 ADD DUP1 PUSH1 0x40 MSTORE POP DUP2 ADD SWAP1 PUSH2 0xE70 SWAP2 SWAP1 PUSH2 0x1417 JUMP JUMPDEST POP DUP2 PUSH1 0x9 PUSH0 CALLER PUSH20 0xFFFFFFFFFFFFFFFFFFFFFFFFFFFFFFFFFFFFFFFF AND PUSH20 0xFFFFFFFFFFFFFFFFFFFFFFFFFFFFFFFFFFFFFFFF AND DUP2 MSTORE PUSH1 0x20 ADD SWAP1 DUP2 MSTORE PUSH1 0x20 ADD PUSH0 KECCAK256 PUSH0 DUP3 DUP3 SLOAD PUSH2 0xEBD SWAP2 SWAP1 PUSH2 0x1310 JUMP JUMPDEST SWAP3 POP POP DUP2 SWAP1 SSTORE POP DUP2 PUSH1 0x8 PUSH0 DUP3 DUP3 SLOAD PUSH2 0xED5 SWAP2 SWAP1 PUSH2 0x1310 JUMP JUMPDEST SWAP3 POP POP DUP2 SWAP1 SSTORE POP POP POP JUMP JUMPDEST PUSH0 DUP1 SLOAD SWAP1 PUSH2 0x100 EXP SWAP1 DIV PUSH20 0xFFFFFFFFFFFFFFFFFFFFFFFFFFFFFFFFFFFFFFFF AND PUSH20 0xFFFFFFFFFFFFFFFFFFFFFFFFFFFFFFFFFFFFFFFF AND CALLER PUSH20 0xFFFFFFFFFFFFFFFFFFFFFFFFFFFFFFFFFFFFFFFF AND EQ PUSH2 0xF6D JUMPI PUSH1 0x40 MLOAD PUSH32 0x8C379A000000000000000000000000000000000000000000000000000000000 DUP2 MSTORE PUSH1 0x4 ADD PUSH2 0xF64 SWAP1 PUSH2 0x148C JUMP JUMPDEST PUSH1 0x40 MLOAD DUP1 SWAP2 SUB SWAP1 REVERT JUMPDEST TIMESTAMP PUSH1 0x2 SLOAD LT PUSH2 0xFB1 JUMPI PUSH1 0x40 MLOAD PUSH32 0x8C379A000000000000000000000000000000000000000000000000000000000 DUP2 MSTORE PUSH1 0x4 ADD PUSH2 0xFA8 SWAP1 PUSH2 0x1638 JUMP JUMPDEST PUSH1 0x40 MLOAD DUP1 SWAP2 SUB SWAP1 REVERT JUMPDEST DUP1 PUSH1 0x1 DUP2 SWAP1 SSTORE POP POP JUMP JUMPDEST PUSH0 DUP1 PUSH1 0x8 SLOAD SUB PUSH2 0xFCF JUMPI PUSH1 0x5 SLOAD SWAP1 POP PUSH2 0x1021 JUMP JUMPDEST PUSH1 0x8 SLOAD PUSH8 0xDE0B6B3A7640000 PUSH1 0x3 SLOAD PUSH2 0xFE6 PUSH2 0xC68 JUMP JUMPDEST PUSH2 0xFF0 SWAP2 SWAP1 PUSH2 0x123F JUMP JUMPDEST PUSH1 0x4 SLOAD PUSH2 0xFFD SWAP2 SWAP1 PUSH2 0x1272 JUMP JUMPDEST PUSH2 0x1007 SWAP2 SWAP1 PUSH2 0x1272 JUMP JUMPDEST PUSH2 0x1011 SWAP2 SWAP1 PUSH2 0x12E0 JUMP JUMPDEST PUSH1 0x5 SLOAD PUSH2 0x101E SWAP2 SWAP1 PUSH2 0x1310 JUMP JUMPDEST SWAP1 POP JUMPDEST SWAP1 JUMP JUMPDEST PUSH32 0x0 DUP2 JUMP JUMPDEST PUSH1 0x5 SLOAD DUP2 JUMP JUMPDEST PUSH0 DUP2 DUP4 GT ISZERO PUSH2 0x105D JUMPI DUP2 PUSH2 0x105F JUMP JUMPDEST DUP3 JUMPDEST SWAP1 POP SWAP3 SWAP2 POP POP JUMP JUMPDEST PUSH0 DUP1 REVERT JUMPDEST PUSH0 PUSH20 0xFFFFFFFFFFFFFFFFFFFFFFFFFFFFFFFFFFFFFFFF DUP3 AND SWAP1 POP SWAP2 SWAP1 POP JUMP JUMPDEST PUSH0 PUSH2 0x1094 DUP3 PUSH2 0x106B JUMP JUMPDEST SWAP1 POP SWAP2 SWAP1 POP JUMP JUMPDEST PUSH2 0x10A4 DUP2 PUSH2 0x108A JUMP JUMPDEST DUP2 EQ PUSH2 0x10AE JUMPI PUSH0 DUP1 REVERT JUMPDEST POP JUMP JUMPDEST PUSH0 DUP2 CALLDATALOAD SWAP1 POP PUSH2 0x10BF DUP2 PUSH2 0x109B JUMP JUMPDEST SWAP3 SWAP2 POP POP JUMP JUMPDEST PUSH0 PUSH1 0x20 DUP3 DUP5 SUB SLT ISZERO PUSH2 0x10DA JUMPI PUSH2 0x10D9 PUSH2 0x1067 JUMP JUMPDEST JUMPDEST PUSH0 PUSH2 0x10E7 DUP5 DUP3 DUP6 ADD PUSH2 0x10B1 JUMP JUMPDEST SWAP2 POP POP SWAP3 SWAP2 POP POP JUMP JUMPDEST PUSH0 DUP2 SWAP1 POP SWAP2 SWAP1 POP JUMP JUMPDEST PUSH2 0x1102 DUP2 PUSH2 0x10F0 JUMP JUMPDEST DUP3 MSTORE POP POP JUMP JUMPDEST PUSH0 PUSH1 0x20 DUP3 ADD SWAP1 POP PUSH2 0x111B PUSH0 DUP4 ADD DUP5 PUSH2 0x10F9 JUMP JUMPDEST SWAP3 SWAP2 POP POP JUMP JUMPDEST PUSH2 0x112A DUP2 PUSH2 0x10F0 JUMP JUMPDEST DUP2 EQ PUSH2 0x1134 JUMPI PUSH0 DUP1 REVERT JUMPDEST POP JUMP JUMPDEST PUSH0 DUP2 CALLDATALOAD SWAP1 POP PUSH2 0x1145 DUP2 PUSH2 0x1121 JUMP JUMPDEST SWAP3 SWAP2 POP POP JUMP JUMPDEST PUSH0 PUSH1 0x20 DUP3 DUP5 SUB SLT ISZERO PUSH2 0x1160 JUMPI PUSH2 0x115F PUSH2 0x1067 JUMP JUMPDEST JUMPDEST PUSH0 PUSH2 0x116D DUP5 DUP3 DUP6 ADD PUSH2 0x1137 JUMP JUMPDEST SWAP2 POP POP SWAP3 SWAP2 POP POP JUMP JUMPDEST PUSH0 DUP2 SWAP1 POP SWAP2 SWAP1 POP JUMP JUMPDEST PUSH0 PUSH2 0x1199 PUSH2 0x1194 PUSH2 0x118F DUP5 PUSH2 0x106B JUMP JUMPDEST PUSH2 0x1176 JUMP JUMPDEST PUSH2 0x106B JUMP JUMPDEST SWAP1 POP SWAP2 SWAP1 POP JUMP JUMPDEST PUSH0 PUSH2 0x11AA DUP3 PUSH2 0x117F JUMP JUMPDEST SWAP1 POP SWAP2 SWAP1 POP JUMP JUMPDEST PUSH0 PUSH2 0x11BB DUP3 PUSH2 0x11A0 JUMP JUMPDEST SWAP1 POP SWAP2 SWAP1 POP JUMP JUMPDEST PUSH2 0x11CB DUP2 PUSH2 0x11B1 JUMP JUMPDEST DUP3 MSTORE POP POP JUMP JUMPDEST PUSH0 PUSH1 0x20 DUP3 ADD SWAP1 POP PUSH2 0x11E4 PUSH0 DUP4 ADD DUP5 PUSH2 0x11C2 JUMP JUMPDEST SWAP3 SWAP2 POP POP JUMP JUMPDEST PUSH2 0x11F3 DUP2 PUSH2 0x108A JUMP JUMPDEST DUP3 MSTORE POP POP JUMP JUMPDEST PUSH0 PUSH1 0x20 DUP3 ADD SWAP1 POP PUSH2 0x120C PUSH0 DUP4 ADD DUP5 PUSH2 0x11EA JUMP JUMPDEST SWAP3 SWAP2 POP POP JUMP JUMPDEST PUSH32 0x4E487B7100000000000000000000000000000000000000000000000000000000 PUSH0 MSTORE PUSH1 0x11 PUSH1 0x4 MSTORE PUSH1 0x24 PUSH0 REVERT JUMPDEST PUSH0 PUSH2 0x1249 DUP3 PUSH2 0x10F0 JUMP JUMPDEST SWAP2 POP PUSH2 0x1254 DUP4 PUSH2 0x10F0 JUMP JUMPDEST SWAP3 POP DUP3 DUP3 SUB SWAP1 POP DUP2 DUP2 GT ISZERO PUSH2 0x126C JUMPI PUSH2 0x126B PUSH2 0x1212 JUMP JUMPDEST JUMPDEST SWAP3 SWAP2 POP POP JUMP JUMPDEST PUSH0 PUSH2 0x127C DUP3 PUSH2 0x10F0 JUMP JUMPDEST SWAP2 POP PUSH2 0x1287 DUP4 PUSH2 0x10F0 JUMP JUMPDEST SWAP3 POP DUP3 DUP3 MUL PUSH2 0x1295 DUP2 PUSH2 0x10F0 JUMP JUMPDEST SWAP2 POP DUP3 DUP3 DIV DUP5 EQ DUP4 ISZERO OR PUSH2 0x12AC JUMPI PUSH2 0x12AB PUSH2 0x1212 JUMP JUMPDEST JUMPDEST POP SWAP3 SWAP2 POP POP JUMP JUMPDEST PUSH32 0x4E487B7100000000000000000000000000000000000000000000000000000000 PUSH0 MSTORE PUSH1 0x12 PUSH1 0x4 MSTORE PUSH1 0x24 PUSH0 REVERT JUMPDEST PUSH0 PUSH2 0x12EA DUP3 PUSH2 0x10F0 JUMP JUMPDEST SWAP2 POP PUSH2 0x12F5 DUP4 PUSH2 0x10F0 JUMP JUMPDEST SWAP3 POP DUP3 PUSH2 0x1305 JUMPI PUSH2 0x1304 PUSH2 0x12B3 JUMP JUMPDEST JUMPDEST DUP3 DUP3 DIV SWAP1 POP SWAP3 SWAP2 POP POP JUMP JUMPDEST PUSH0 PUSH2 0x131A DUP3 PUSH2 0x10F0 JUMP JUMPDEST SWAP2 POP PUSH2 0x1325 DUP4 PUSH2 0x10F0 JUMP JUMPDEST SWAP3 POP DUP3 DUP3 ADD SWAP1 POP DUP1 DUP3 GT ISZERO PUSH2 0x133D JUMPI PUSH2 0x133C PUSH2 0x1212 JUMP JUMPDEST JUMPDEST SWAP3 SWAP2 POP POP JUMP JUMPDEST PUSH0 DUP3 DUP3 MSTORE PUSH1 0x20 DUP3 ADD SWAP1 POP SWAP3 SWAP2 POP POP JUMP JUMPDEST PUSH32 0x616D6F756E74203D203000000000000000000000000000000000000000000000 PUSH0 DUP3 ADD MSTORE POP JUMP JUMPDEST PUSH0 PUSH2 0x1387 PUSH1 0xA DUP4 PUSH2 0x1343 JUMP JUMPDEST SWAP2 POP PUSH2 0x1392 DUP3 PUSH2 0x1353 JUMP JUMPDEST PUSH1 0x20 DUP3 ADD SWAP1 POP SWAP2 SWAP1 POP JUMP JUMPDEST PUSH0 PUSH1 0x20 DUP3 ADD SWAP1 POP DUP2 DUP2 SUB PUSH0 DUP4 ADD MSTORE PUSH2 0x13B4 DUP2 PUSH2 0x137B JUMP JUMPDEST SWAP1 POP SWAP2 SWAP1 POP JUMP JUMPDEST PUSH0 PUSH1 0x40 DUP3 ADD SWAP1 POP PUSH2 0x13CE PUSH0 DUP4 ADD DUP6 PUSH2 0x11EA JUMP JUMPDEST PUSH2 0x13DB PUSH1 0x20 DUP4 ADD DUP5 PUSH2 0x10F9 JUMP JUMPDEST SWAP4 SWAP3 POP POP POP JUMP JUMPDEST PUSH0 DUP2 ISZERO ISZERO SWAP1 POP SWAP2 SWAP1 POP JUMP JUMPDEST PUSH2 0x13F6 DUP2 PUSH2 0x13E2 JUMP JUMPDEST DUP2 EQ PUSH2 0x1400 JUMPI PUSH0 DUP1 REVERT JUMPDEST POP JUMP JUMPDEST PUSH0 DUP2 MLOAD SWAP1 POP PUSH2 0x1411 DUP2 PUSH2 0x13ED JUMP JUMPDEST SWAP3 SWAP2 POP POP JUMP JUMPDEST PUSH0 PUSH1 0x20 DUP3 DUP5 SUB SLT ISZERO PUSH2 0x142C JUMPI PUSH2 0x142B PUSH2 0x1067 JUMP JUMPDEST JUMPDEST PUSH0 PUSH2 0x1439 DUP5 DUP3 DUP6 ADD PUSH2 0x1403 JUMP JUMPDEST SWAP2 POP POP SWAP3 SWAP2 POP POP JUMP JUMPDEST PUSH32 0x6E6F7420617574686F72697A6564000000000000000000000000000000000000 PUSH0 DUP3 ADD MSTORE POP JUMP JUMPDEST PUSH0 PUSH2 0x1476 PUSH1 0xE DUP4 PUSH2 0x1343 JUMP JUMPDEST SWAP2 POP PUSH2 0x1481 DUP3 PUSH2 0x1442 JUMP JUMPDEST PUSH1 0x20 DUP3 ADD SWAP1 POP SWAP2 SWAP1 POP JUMP JUMPDEST PUSH0 PUSH1 0x20 DUP3 ADD SWAP1 POP DUP2 DUP2 SUB PUSH0 DUP4 ADD MSTORE PUSH2 0x14A3 DUP2 PUSH2 0x146A JUMP JUMPDEST SWAP1 POP SWAP2 SWAP1 POP JUMP JUMPDEST PUSH32 0x7265776172642072617465203D20300000000000000000000000000000000000 PUSH0 DUP3 ADD MSTORE POP JUMP JUMPDEST PUSH0 PUSH2 0x14DE PUSH1 0xF DUP4 PUSH2 0x1343 JUMP JUMPDEST SWAP2 POP PUSH2 0x14E9 DUP3 PUSH2 0x14AA JUMP JUMPDEST PUSH1 0x20 DUP3 ADD SWAP1 POP SWAP2 SWAP1 POP JUMP JUMPDEST PUSH0 PUSH1 0x20 DUP3 ADD SWAP1 POP DUP2 DUP2 SUB PUSH0 DUP4 ADD MSTORE PUSH2 0x150B DUP2 PUSH2 0x14D2 JUMP JUMPDEST SWAP1 POP SWAP2 SWAP1 POP JUMP JUMPDEST PUSH0 DUP2 MLOAD SWAP1 POP PUSH2 0x1520 DUP2 PUSH2 0x1121 JUMP JUMPDEST SWAP3 SWAP2 POP POP JUMP JUMPDEST PUSH0 PUSH1 0x20 DUP3 DUP5 SUB SLT ISZERO PUSH2 0x153B JUMPI PUSH2 0x153A PUSH2 0x1067 JUMP JUMPDEST JUMPDEST PUSH0 PUSH2 0x1548 DUP5 DUP3 DUP6 ADD PUSH2 0x1512 JUMP JUMPDEST SWAP2 POP POP SWAP3 SWAP2 POP POP JUMP JUMPDEST PUSH32 0x72657761726420616D6F756E74203E2062616C616E6365000000000000000000 PUSH0 DUP3 ADD MSTORE POP JUMP JUMPDEST PUSH0 PUSH2 0x1585 PUSH1 0x17 DUP4 PUSH2 0x1343 JUMP JUMPDEST SWAP2 POP PUSH2 0x1590 DUP3 PUSH2 0x1551 JUMP JUMPDEST PUSH1 0x20 DUP3 ADD SWAP1 POP SWAP2 SWAP1 POP JUMP JUMPDEST PUSH0 PUSH1 0x20 DUP3 ADD SWAP1 POP DUP2 DUP2 SUB PUSH0 DUP4 ADD MSTORE PUSH2 0x15B2 DUP2 PUSH2 0x1579 JUMP JUMPDEST SWAP1 POP SWAP2 SWAP1 POP JUMP JUMPDEST PUSH0 PUSH1 0x60 DUP3 ADD SWAP1 POP PUSH2 0x15CC PUSH0 DUP4 ADD DUP7 PUSH2 0x11EA JUMP JUMPDEST PUSH2 0x15D9 PUSH1 0x20 DUP4 ADD DUP6 PUSH2 0x11EA JUMP JUMPDEST PUSH2 0x15E6 PUSH1 0x40 DUP4 ADD DUP5 PUSH2 0x10F9 JUMP JUMPDEST SWAP5 SWAP4 POP POP POP POP JUMP JUMPDEST PUSH32 0x726577617264206475726174696F6E206E6F742066696E697368656400000000 PUSH0 DUP3 ADD MSTORE POP JUMP JUMPDEST PUSH0 PUSH2 0x1622 PUSH1 0x1C DUP4 PUSH2 0x1343 JUMP JUMPDEST SWAP2 POP PUSH2 0x162D DUP3 PUSH2 0x15EE JUMP JUMPDEST PUSH1 0x20 DUP3 ADD SWAP1 POP SWAP2 SWAP1 POP JUMP JUMPDEST PUSH0 PUSH1 0x20 DUP3 ADD SWAP1 POP DUP2 DUP2 SUB PUSH0 DUP4 ADD MSTORE PUSH2 0x164F DUP2 PUSH2 0x1616 JUMP JUMPDEST SWAP1 POP SWAP2 SWAP1 POP JUMP INVALID LOG2 PUSH5 0x6970667358 0x22 SLT KECCAK256 ADD DUP8 SWAP16 SDIV BLOBHASH SWAP9 0xBF CREATE DUP12 CODESIZE REVERT 0x2B BLOBHASH 0x4B 0xD6 0xE2 PUSH25 0xC947157E8AF86385335A1A6D8E7D7F64736F6C634300081A00 CALLER "
				},
				"gasEstimates": {
					"creation": {
						"codeDepositCost": "1154400",
						"executionCost": "infinite",
						"totalCost": "infinite"
					},
					"external": {
						"balanceOf(address)": "2891",
						"duration()": "2493",
						"earned(address)": "infinite",
						"finishAt()": "2492",
						"getReward()": "infinite",
						"lastTimeRewardApplicable()": "2582",
						"notifyRewardAmount(uint256)": "infinite",
						"owner()": "2616",
						"rewardPerToken()": "infinite",
						"rewardPerTokenStored()": "2535",
						"rewardRate()": "2470",
						"rewards(address)": "2848",
						"rewardsToken()": "infinite",
						"setRewardsDuration(uint256)": "26847",
						"stake(uint256)": "infinite",
						"stakingToken()": "infinite",
						"totalSupply()": "2515",
						"updatedAt()": "2448",
						"userRewardPerTokenPaid(address)": "2891",
						"withdraw(uint256)": "infinite"
					},
					"internal": {
						"_min(uint256,uint256)": "66"
					}
				},
				"methodIdentifiers": {
					"balanceOf(address)": "70a08231",
					"duration()": "0fb5a6b4",
					"earned(address)": "008cc262",
					"finishAt()": "67d3b488",
					"getReward()": "3d18b912",
					"lastTimeRewardApplicable()": "80faa57d",
					"notifyRewardAmount(uint256)": "3c6b16ab",
					"owner()": "8da5cb5b",
					"rewardPerToken()": "cd3daf9d",
					"rewardPerTokenStored()": "df136d65",
					"rewardRate()": "7b0a47ee",
					"rewards(address)": "0700037d",
					"rewardsToken()": "d1af0c7d",
					"setRewardsDuration(uint256)": "cc1a378f",
					"stake(uint256)": "a694fc3a",
					"stakingToken()": "72f702f3",
					"totalSupply()": "18160ddd",
					"updatedAt()": "7519ab50",
					"userRewardPerTokenPaid(address)": "8b876347",
					"withdraw(uint256)": "2e1a7d4d"
				}
			},
			"storageLayout": {
				"storage": [
					{
						"astId": 9,
						"contract": "20241011/StakingReward.sol:StakingRewards",
						"label": "owner",
						"offset": 0,
						"slot": "0",
						"type": "t_address"
					},
					{
						"astId": 11,
						"contract": "20241011/StakingReward.sol:StakingRewards",
						"label": "duration",
						"offset": 0,
						"slot": "1",
						"type": "t_uint256"
					},
					{
						"astId": 13,
						"contract": "20241011/StakingReward.sol:StakingRewards",
						"label": "finishAt",
						"offset": 0,
						"slot": "2",
						"type": "t_uint256"
					},
					{
						"astId": 15,
						"contract": "20241011/StakingReward.sol:StakingRewards",
						"label": "updatedAt",
						"offset": 0,
						"slot": "3",
						"type": "t_uint256"
					},
					{
						"astId": 17,
						"contract": "20241011/StakingReward.sol:StakingRewards",
						"label": "rewardRate",
						"offset": 0,
						"slot": "4",
						"type": "t_uint256"
					},
					{
						"astId": 19,
						"contract": "20241011/StakingReward.sol:StakingRewards",
						"label": "rewardPerTokenStored",
						"offset": 0,
						"slot": "5",
						"type": "t_uint256"
					},
					{
						"astId": 23,
						"contract": "20241011/StakingReward.sol:StakingRewards",
						"label": "userRewardPerTokenPaid",
						"offset": 0,
						"slot": "6",
						"type": "t_mapping(t_address,t_uint256)"
					},
					{
						"astId": 27,
						"contract": "20241011/StakingReward.sol:StakingRewards",
						"label": "rewards",
						"offset": 0,
						"slot": "7",
						"type": "t_mapping(t_address,t_uint256)"
					},
					{
						"astId": 29,
						"contract": "20241011/StakingReward.sol:StakingRewards",
						"label": "totalSupply",
						"offset": 0,
						"slot": "8",
						"type": "t_uint256"
					},
					{
						"astId": 33,
						"contract": "20241011/StakingReward.sol:StakingRewards",
						"label": "balanceOf",
						"offset": 0,
						"slot": "9",
						"type": "t_mapping(t_address,t_uint256)"
					}
				],
				"types": {
					"t_address": {
						"encoding": "inplace",
						"label": "address",
						"numberOfBytes": "20"
					},
					"t_mapping(t_address,t_uint256)": {
						"encoding": "mapping",
						"key": "t_address",
						"label": "mapping(address => uint256)",
						"numberOfBytes": "32",
						"value": "t_uint256"
					},
					"t_uint256": {
						"encoding": "inplace",
						"label": "uint256",
						"numberOfBytes": "32"
					}
				}
			},
			"userdoc": {
				"kind": "user",
				"methods": {},
				"version": 1
			}
		}
	}
}