{
	"20241016/Balance.sol": {
		"Balance": {
			"abi": [
				{
					"stateMutability": "payable",
					"type": "fallback"
				},
				{
					"inputs": [],
					"name": "balanceOf",
					"outputs": [
						{
							"internalType": "uint256",
							"name": "",
							"type": "uint256"
						}
					],
					"stateMutability": "nonpayable",
					"type": "function"
				},
				{
					"inputs": [],
					"name": "dec",
					"outputs": [],
					"stateMutability": "nonpayable",
					"type": "function"
				},
				{
					"stateMutability": "payable",
					"type": "receive"
				}
			],
			"devdoc": {
				"kind": "dev",
				"methods": {},
				"version": 1
			},
			"evm": {
				"assembly": "    /* \"20241016/Balance.sol\":56:410  contract Balance{... */\n  mstore(0x40, 0x80)\n  callvalue\n  dup1\n  iszero\n  tag_1\n  jumpi\n  0x00\n  dup1\n  revert\ntag_1:\n  pop\n  dataSize(sub_0)\n  dup1\n  dataOffset(sub_0)\n  0x00\n  codecopy\n  0x00\n  return\nstop\n\nsub_0: assembly {\n        /* \"20241016/Balance.sol\":56:410  contract Balance{... */\n      mstore(0x40, 0x80)\n      jumpi(tag_1, lt(calldatasize, 0x04))\n      shr(0xe0, calldataload(0x00))\n      dup1\n      0x722713f7\n      eq\n      tag_3\n      jumpi\n      dup1\n      0xb3bcfa82\n      eq\n      tag_4\n      jumpi\n      jump(tag_2)\n    tag_1:\n      jumpi(tag_2, calldatasize)\n        /* \"20241016/Balance.sol\":328:334  uint i */\n      0x00\n        /* \"20241016/Balance.sol\":324:365  for(uint i=0;;i++){... */\n    tag_7:\n        /* \"20241016/Balance.sol\":338:341  i++ */\n      dup1\n      dup1\n      tag_10\n      swap1\n      tag_11\n      jump\t// in\n    tag_10:\n      swap2\n      pop\n      pop\n        /* \"20241016/Balance.sol\":324:365  for(uint i=0;;i++){... */\n      jump(tag_7)\n        /* \"20241016/Balance.sol\":56:410  contract Balance{... */\n    tag_2:\n      stop\n        /* \"20241016/Balance.sol\":127:231  function balanceOf() external returns(uint256){... */\n    tag_3:\n      callvalue\n      dup1\n      iszero\n      tag_14\n      jumpi\n      0x00\n      dup1\n      revert\n    tag_14:\n      pop\n      tag_15\n      tag_16\n      jump\t// in\n    tag_15:\n      mload(0x40)\n      tag_17\n      swap2\n      swap1\n      tag_18\n      jump\t// in\n    tag_17:\n      mload(0x40)\n      dup1\n      swap2\n      sub\n      swap1\n      return\n        /* \"20241016/Balance.sol\":237:281  function dec() external {... */\n    tag_4:\n      callvalue\n      dup1\n      iszero\n      tag_19\n      jumpi\n      0x00\n      dup1\n      revert\n    tag_19:\n      pop\n      tag_20\n      tag_21\n      jump\t// in\n    tag_20:\n      stop\n        /* \"20241016/Balance.sol\":127:231  function balanceOf() external returns(uint256){... */\n    tag_16:\n        /* \"20241016/Balance.sol\":165:172  uint256 */\n      0x00\n        /* \"20241016/Balance.sol\":183:184  x */\n      dup1\n      0x00\n        /* \"20241016/Balance.sol\":183:186  x++ */\n      dup2\n      sload\n      dup1\n      swap3\n      swap2\n      swap1\n      tag_23\n      swap1\n      tag_11\n      jump\t// in\n    tag_23:\n      swap2\n      swap1\n      pop\n      sstore\n      pop\n        /* \"20241016/Balance.sol\":203:224  address(this).balance */\n      selfbalance\n        /* \"20241016/Balance.sol\":196:224  return address(this).balance */\n      swap1\n      pop\n        /* \"20241016/Balance.sol\":127:231  function balanceOf() external returns(uint256){... */\n      swap1\n      jump\t// out\n        /* \"20241016/Balance.sol\":237:281  function dec() external {... */\n    tag_21:\n        /* \"20241016/Balance.sol\":271:272  x */\n      0x00\n      dup1\n        /* \"20241016/Balance.sol\":271:274  x-- */\n      dup2\n      sload\n      dup1\n      swap3\n      swap2\n      swap1\n      tag_25\n      swap1\n      tag_26\n      jump\t// in\n    tag_25:\n      swap2\n      swap1\n      pop\n      sstore\n      pop\n        /* \"20241016/Balance.sol\":237:281  function dec() external {... */\n      jump\t// out\n        /* \"#utility.yul\":7:187   */\n    tag_27:\n        /* \"#utility.yul\":55:132   */\n      0x4e487b7100000000000000000000000000000000000000000000000000000000\n        /* \"#utility.yul\":52:53   */\n      0x00\n        /* \"#utility.yul\":45:133   */\n      mstore\n        /* \"#utility.yul\":152:156   */\n      0x11\n        /* \"#utility.yul\":149:150   */\n      0x04\n        /* \"#utility.yul\":142:157   */\n      mstore\n        /* \"#utility.yul\":176:180   */\n      0x24\n        /* \"#utility.yul\":173:174   */\n      0x00\n        /* \"#utility.yul\":166:181   */\n      revert\n        /* \"#utility.yul\":193:270   */\n    tag_28:\n        /* \"#utility.yul\":230:237   */\n      0x00\n        /* \"#utility.yul\":259:264   */\n      dup2\n        /* \"#utility.yul\":248:264   */\n      swap1\n      pop\n        /* \"#utility.yul\":193:270   */\n      swap2\n      swap1\n      pop\n      jump\t// out\n        /* \"#utility.yul\":276:509   */\n    tag_11:\n        /* \"#utility.yul\":315:318   */\n      0x00\n        /* \"#utility.yul\":338:362   */\n      tag_34\n        /* \"#utility.yul\":356:361   */\n      dup3\n        /* \"#utility.yul\":338:362   */\n      tag_28\n      jump\t// in\n    tag_34:\n        /* \"#utility.yul\":329:362   */\n      swap2\n      pop\n        /* \"#utility.yul\":384:450   */\n      0xffffffffffffffffffffffffffffffffffffffffffffffffffffffffffffffff\n        /* \"#utility.yul\":377:382   */\n      dup3\n        /* \"#utility.yul\":374:451   */\n      sub\n        /* \"#utility.yul\":371:474   */\n      tag_35\n      jumpi\n        /* \"#utility.yul\":454:472   */\n      tag_36\n      tag_27\n      jump\t// in\n    tag_36:\n        /* \"#utility.yul\":371:474   */\n    tag_35:\n        /* \"#utility.yul\":501:502   */\n      0x01\n        /* \"#utility.yul\":494:499   */\n      dup3\n        /* \"#utility.yul\":490:503   */\n      add\n        /* \"#utility.yul\":483:503   */\n      swap1\n      pop\n        /* \"#utility.yul\":276:509   */\n      swap2\n      swap1\n      pop\n      jump\t// out\n        /* \"#utility.yul\":515:633   */\n    tag_29:\n        /* \"#utility.yul\":602:626   */\n      tag_38\n        /* \"#utility.yul\":620:625   */\n      dup2\n        /* \"#utility.yul\":602:626   */\n      tag_28\n      jump\t// in\n    tag_38:\n        /* \"#utility.yul\":597:600   */\n      dup3\n        /* \"#utility.yul\":590:627   */\n      mstore\n        /* \"#utility.yul\":515:633   */\n      pop\n      pop\n      jump\t// out\n        /* \"#utility.yul\":639:861   */\n    tag_18:\n        /* \"#utility.yul\":732:736   */\n      0x00\n        /* \"#utility.yul\":770:772   */\n      0x20\n        /* \"#utility.yul\":759:768   */\n      dup3\n        /* \"#utility.yul\":755:773   */\n      add\n        /* \"#utility.yul\":747:773   */\n      swap1\n      pop\n        /* \"#utility.yul\":783:854   */\n      tag_40\n        /* \"#utility.yul\":851:852   */\n      0x00\n        /* \"#utility.yul\":840:849   */\n      dup4\n        /* \"#utility.yul\":836:853   */\n      add\n        /* \"#utility.yul\":827:833   */\n      dup5\n        /* \"#utility.yul\":783:854   */\n      tag_29\n      jump\t// in\n    tag_40:\n        /* \"#utility.yul\":639:861   */\n      swap3\n      swap2\n      pop\n      pop\n      jump\t// out\n        /* \"#utility.yul\":867:1038   */\n    tag_26:\n        /* \"#utility.yul\":906:909   */\n      0x00\n        /* \"#utility.yul\":929:953   */\n      tag_42\n        /* \"#utility.yul\":947:952   */\n      dup3\n        /* \"#utility.yul\":929:953   */\n      tag_28\n      jump\t// in\n    tag_42:\n        /* \"#utility.yul\":920:953   */\n      swap2\n      pop\n        /* \"#utility.yul\":975:979   */\n      0x00\n        /* \"#utility.yul\":968:973   */\n      dup3\n        /* \"#utility.yul\":965:980   */\n      sub\n        /* \"#utility.yul\":962:1003   */\n      tag_43\n      jumpi\n        /* \"#utility.yul\":983:1001   */\n      tag_44\n      tag_27\n      jump\t// in\n    tag_44:\n        /* \"#utility.yul\":962:1003   */\n    tag_43:\n        /* \"#utility.yul\":1030:1031   */\n      0x01\n        /* \"#utility.yul\":1023:1028   */\n      dup3\n        /* \"#utility.yul\":1019:1032   */\n      sub\n        /* \"#utility.yul\":1012:1032   */\n      swap1\n      pop\n        /* \"#utility.yul\":867:1038   */\n      swap2\n      swap1\n      pop\n      jump\t// out\n\n    auxdata: 0xa2646970667358221220f20457087fd54e1fa46c34df6a14e5dfc2da9d3193e2a0d51c501e78561811a364736f6c634300081a0033\n}\n",
				"bytecode": {
					"linkReferences": {},
					"object": "6080604052348015600e575f80fd5b506101bf8061001c5f395ff3fe60806040526004361061002c575f3560e01c8063722713f714610048578063b3bcfa821461007257610046565b36610046575f5b808061003e906100f3565b915050610033565b005b348015610053575f80fd5b5061005c610088565b6040516100699190610149565b60405180910390f35b34801561007d575f80fd5b506100866100a5565b005b5f805f81548092919061009a906100f3565b919050555047905090565b5f808154809291906100b690610162565b9190505550565b7f4e487b71000000000000000000000000000000000000000000000000000000005f52601160045260245ffd5b5f819050919050565b5f6100fd826100ea565b91507fffffffffffffffffffffffffffffffffffffffffffffffffffffffffffffffff820361012f5761012e6100bd565b5b600182019050919050565b610143816100ea565b82525050565b5f60208201905061015c5f83018461013a565b92915050565b5f61016c826100ea565b91505f820361017e5761017d6100bd565b5b60018203905091905056fea2646970667358221220f20457087fd54e1fa46c34df6a14e5dfc2da9d3193e2a0d51c501e78561811a364736f6c634300081a0033",
					"opcodes": "PUSH1 0x80 PUSH1 0x40 MSTORE CALLVALUE DUP1 ISZERO PUSH1 0xE JUMPI PUSH0 DUP1 REVERT JUMPDEST POP PUSH2 0x1BF DUP1 PUSH2 0x1C PUSH0 CODECOPY PUSH0 RETURN INVALID PUSH1 0x80 PUSH1 0x40 MSTORE PUSH1 0x4 CALLDATASIZE LT PUSH2 0x2C JUMPI PUSH0 CALLDATALOAD PUSH1 0xE0 SHR DUP1 PUSH4 0x722713F7 EQ PUSH2 0x48 JUMPI DUP1 PUSH4 0xB3BCFA82 EQ PUSH2 0x72 JUMPI PUSH2 0x46 JUMP JUMPDEST CALLDATASIZE PUSH2 0x46 JUMPI PUSH0 JUMPDEST DUP1 DUP1 PUSH2 0x3E SWAP1 PUSH2 0xF3 JUMP JUMPDEST SWAP2 POP POP PUSH2 0x33 JUMP JUMPDEST STOP JUMPDEST CALLVALUE DUP1 ISZERO PUSH2 0x53 JUMPI PUSH0 DUP1 REVERT JUMPDEST POP PUSH2 0x5C PUSH2 0x88 JUMP JUMPDEST PUSH1 0x40 MLOAD PUSH2 0x69 SWAP2 SWAP1 PUSH2 0x149 JUMP JUMPDEST PUSH1 0x40 MLOAD DUP1 SWAP2 SUB SWAP1 RETURN JUMPDEST CALLVALUE DUP1 ISZERO PUSH2 0x7D JUMPI PUSH0 DUP1 REVERT JUMPDEST POP PUSH2 0x86 PUSH2 0xA5 JUMP JUMPDEST STOP JUMPDEST PUSH0 DUP1 PUSH0 DUP2 SLOAD DUP1 SWAP3 SWAP2 SWAP1 PUSH2 0x9A SWAP1 PUSH2 0xF3 JUMP JUMPDEST SWAP2 SWAP1 POP SSTORE POP SELFBALANCE SWAP1 POP SWAP1 JUMP JUMPDEST PUSH0 DUP1 DUP2 SLOAD DUP1 SWAP3 SWAP2 SWAP1 PUSH2 0xB6 SWAP1 PUSH2 0x162 JUMP JUMPDEST SWAP2 SWAP1 POP SSTORE POP JUMP JUMPDEST PUSH32 0x4E487B7100000000000000000000000000000000000000000000000000000000 PUSH0 MSTORE PUSH1 0x11 PUSH1 0x4 MSTORE PUSH1 0x24 PUSH0 REVERT JUMPDEST PUSH0 DUP2 SWAP1 POP SWAP2 SWAP1 POP JUMP JUMPDEST PUSH0 PUSH2 0xFD DUP3 PUSH2 0xEA JUMP JUMPDEST SWAP2 POP PUSH32 0xFFFFFFFFFFFFFFFFFFFFFFFFFFFFFFFFFFFFFFFFFFFFFFFFFFFFFFFFFFFFFFFF DUP3 SUB PUSH2 0x12F JUMPI PUSH2 0x12E PUSH2 0xBD JUMP JUMPDEST JUMPDEST PUSH1 0x1 DUP3 ADD SWAP1 POP SWAP2 SWAP1 POP JUMP JUMPDEST PUSH2 0x143 DUP2 PUSH2 0xEA JUMP JUMPDEST DUP3 MSTORE POP POP JUMP JUMPDEST PUSH0 PUSH1 0x20 DUP3 ADD SWAP1 POP PUSH2 0x15C PUSH0 DUP4 ADD DUP5 PUSH2 0x13A JUMP JUMPDEST SWAP3 SWAP2 POP POP JUMP JUMPDEST PUSH0 PUSH2 0x16C DUP3 PUSH2 0xEA JUMP JUMPDEST SWAP2 POP PUSH0 DUP3 SUB PUSH2 0x17E JUMPI PUSH2 0x17D PUSH2 0xBD JUMP JUMPDEST JUMPDEST PUSH1 0x1 DUP3 SUB SWAP1 POP SWAP2 SWAP1 POP JUMP INVALID LOG2 PUSH5 0x6970667358 0x22 SLT KECCAK256 CALLCODE DIV JUMPI ADDMOD PUSH32 0xD54E1FA46C34DF6A14E5DFC2DA9D3193E2A0D51C501E78561811A364736F6C63 NUMBER STOP ADDMOD BYTE STOP CALLER "
				},
				"gasEstimates": {
					"creation": {
						"codeDepositCost": "89400",
						"executionCost": "133",
						"totalCost": "89533"
					},
					"external": {
						"": "106",
						"balanceOf()": "infinite",
						"dec()": "24496"
					}
				},
				"methodIdentifiers": {
					"balanceOf()": "722713f7",
					"dec()": "b3bcfa82"
				}
			},
			"storageLayout": {
				"storage": [
					{
						"astId": 3,
						"contract": "20241016/Balance.sol:Balance",
						"label": "x",
						"offset": 0,
						"slot": "0",
						"type": "t_uint256"
					},
					{
						"astId": 7,
						"contract": "20241016/Balance.sol:Balance",
						"label": "isCheck",
						"offset": 0,
						"slot": "1",
						"type": "t_mapping(t_address,t_bool)"
					}
				],
				"types": {
					"t_address": {
						"encoding": "inplace",
						"label": "address",
						"numberOfBytes": "20"
					},
					"t_bool": {
						"encoding": "inplace",
						"label": "bool",
						"numberOfBytes": "1"
					},
					"t_mapping(t_address,t_bool)": {
						"encoding": "mapping",
						"key": "t_address",
						"label": "mapping(address => bool)",
						"numberOfBytes": "32",
						"value": "t_bool"
					},
					"t_uint256": {
						"encoding": "inplace",
						"label": "uint256",
						"numberOfBytes": "32"
					}
				}
			},
			"userdoc": {
				"kind": "user",
				"methods": {},
				"version": 1
			}
		}
	}
}